:020000040000FA
:04000000FEEFFFF020
:1020000000436867206661756C743A2025332E3072
:102010006625250046756C6C204368673A20253399
:102020002E306625250046617374204368673A2088
:1020300025332E3066252500426174746572793A25
:102040002025332E306625250048656C6C6F20579F
:102050006F726C642100494E46004E414E00696E1D
:1020600066006E616E006C660000000E0001876FF6
:10207000000E866F600088F198F060008CF199F096
:10208000600090F19AF0600094F19BF09BBF4DEFDF
:1020900010F04BEF10F06BEF10F0000E876F010E99
:1020A000866F600060F201F0600064F202F0600090
:1020B00068F203F060006CF204F06FEC31F0600045
:1020C00004F098F0600008F099F060000CF09AF0CD
:1020D000600010F09BF0000E00019F6F000E9E6FDD
:1020E0006000A4F38BF06000A8F38CF08651871198
:1020F000D8A47DEF10F07FEF10F086EF10F0EDA583
:1021000084EF10F086EF10F0A1EF10F086518711E8
:10211000D8A48DEF10F08FEF10F095EF10F0000EB7
:10212000716F2B0E706F99EF10F0000E716F2D0E06
:10213000706F6000C0F122F19E4B9F2B8B07D8A0DF
:102140008C07600060F201F0600064F202F0600051
:1021500068F203F060006CF204F07CEC2AF00104F9
:102160000210D8A4B6EF10F0B8EF10F015EF11F090
:10217000BF0E0001676FFF0E686F6651696F6A6B73
:102180006751692768516A236A510AE11A0E695D2D
:10219000D8A0CDEF10F0D0EF10F0010ED1EF10F07D
:1021A000000E726F736B72517311D8B4DAEF10F0C6
:1021B000DCEF10F0EAEF10F0220E9E25016E010E0A
:1021C0009F21026E560E036E200E046EB6EC2FF0A9
:1021D000F6EF10F0220E9E25016E010E9F21026E79
:1021E0005E0E036E200E046EB6EC2FF00001FD0EA5
:1021F0008B27FF0E8C23600080F111F0600084F1CA
:1022000012F0220E136E010E146E60002CF215F007
:10221000600030F216F099EC2CF0600044F060F0B1
:10222000600048F061F0F7EF16F0600060F201F036
:10223000600064F202F0600068F203F060006CF28B
:1022400004F07CEC2AF001500210D8A42AEF11F01F
:102250002CEF11F06CEF11F0BF0E0001676FFF0E55
:10226000686F6651696F6A6B6751692768516A23A5
:102270006A510AE11A0E695DD8A041EF11F044EFEE
:1022800011F0010E45EF11F0000E746F756B745173
:102290007511D8B44EEF11F050EF11F05EEF11F060
:1022A000220E9E25016E010E9F21026E5A0E036EB4
:1022B000200E046EB6EC2FF0F6EF10F0220E9E25E5
:1022C000016E010E9F21026E620E036E200E046EDF
:1022D000B6EC2FF0F6EF10F0000E0001A06F000E2C
:1022E000A16F800EA26F3F0EA36F000E9D6F000EB8
:1022F0009C6F600060F201F0600064F202F0600028
:1023000068F203F060006CF204F0000E056E000E3F
:10231000066E000E076E000E086E8AEC2EF0D8B026
:1023200094EF11F096EF11F03DEF12F0BDEF11F0C8
:10233000600080F238F0600084F239F0600088F2CA
:102340003AF060008CF23BF0000E3C6E000E3D6EE9
:10235000200E3E6E410E3F6E20EC21F06000E0F05A
:10236000A0F06000E4F0A1F06000E8F0A2F06000EE
:10237000ECF0A3F000019C4B9D2B600060F251F04B
:10238000600064F252F0600068F253F060006CF29A
:1023900054F0000E3C6E000E3D6E200E3E6E410E5F
:1023A0003F6E600080F238F0600084F239F0600027
:1023B00088F23AF060008CF23BF020EC21F06000F3
:1023C000E0F055F06000E4F056F06000E8F057F0FF
:1023D0006000ECF058F096EC2BF0D8B0F2EF11F072
:1023E000F4EF11F098EF11F01CEF12F0600080F2A2
:1023F0001FF0600084F220F0600088F221F060009D
:102400008CF222F0000E236E000E246E200E256E3C
:10241000410E266E65EC23F060007CF0A0F06000B9
:1024200080F0A1F0600084F0A2F0600088F0A3F0DA
:1024300000019C07D8A09D07600060F251F0600089
:1024400064F252F0600068F253F060006CF254F0F5
:10245000600080F255F0600084F256F0600088F26F
:1024600057F060008CF258F096EC2BF0D8A03BEFC0
:1024700012F03DEF12F0F6EF11F0600098F107F066
:10248000086A5FEC30F0075000018D6F600034F295
:102490008AF0670E8D19D8A450EF12F052EF12F0A7
:1024A0007AEF12F0EB51EC11D8A459EF12F05BEF78
:1024B00012F05FEF12F0000EEC6F010EEB6FECBF4D
:1024C0006CEF12F0EC5106E1EB05D8B06AEF12F0B8
:1024D0006CEF12F072EF12F0000E896F060E886F2B
:1024E00083EF12F06000ACF388F06000B0F389F085
:1024F00083EF12F0ECBF7FEF12F081EF12F06CEF80
:1025000012F072EF12F0670E8D19D8A48AEF12F054
:102510008CEF12F0BDEF12F09DAF9AEF12F0FC0EAF
:102520009C5DFF0E9D59D8A098EF12F09AEF12F023
:10253000BBEF12F0FF0E676FFF0E686F600020F2B6
:1025400069F0600024F26AF06751692768516A23D4
:102550009C51695D6A51800A6B6F9D51800A6B596D
:10256000D8A0B5EF12F0B7EF12F0BBEF12F0660E85
:102570008A6FBDEF12F0650E8A6F600020F280F066
:10258000600024F281F0670E8D19D8A4CAEF12F012
:10259000CCEF12F0DCEF12F0660E8A19D8A4D3EF5C
:1025A00012F0D5EF12F0DEEF12F09DBFDCEF12F06B
:1025B000DAEF12F0DEEF12F0804B812B660E8A19F3
:1025C000D8A4E5EF12F0E7EF12F007EF13F09DBF8C
:1025D000EEEF12F0ECEF12F0FAEF12F0000EA06F37
:1025E000000EA16F800EA26F3F0EA36F000E9D6FB5
:1025F000000E9C6F670E8D19D8B401EF13F003EF36
:1026000013F007EF13F09C5180279D518123000E9A
:10261000976F000E966F600060F28EF0600064F2BB
:102620008FF0600068F290F060006CF291F0600052
:1026300080F26CF0600084F26DF0600088F26EF061
:1026400060008CF26FF0D2EF13F0600038F21FF0F0
:1026500060003CF220F0600040F221F0600044F2A3
:1026600022F0600080F223F0600084F224F0600029
:1026700088F225F060008CF226F065EC23F0600013
:102680007CF038F0600080F039F0600084F03AF0BF
:10269000600088F03BF0C8EC26F06000E0F092F0BB
:1026A0006000E4F093F06000E8F094F06000ECF07B
:1026B00095F0600048F201F060004CF202F060001A
:1026C00050F203F0600054F204F00BEC2BF06000C9
:1026D00004F084F0600008F085F0600038F251F0FA
:1026E00060003CF252F0600040F253F0600044F2AF
:1026F00054F0600080F23CF0600084F23DF0600035
:1027000088F23EF060008CF23FF0600048F238F052
:1027100060004CF239F0600050F23AF0600054F280
:102720003BF020EC21F06000E0F055F06000E4F0B8
:1027300056F06000E8F057F06000ECF058F093ECD1
:1027400030F0600044F18EF0600048F18FF06000DE
:102750004CF190F0600050F191F0600080F21FF0B9
:10276000600084F220F0600088F221F060008CF2BA
:1027700022F0000E236E000E246E200E256E410EF8
:10278000266E65EC23F060007CF0A0F0600080F025
:10279000A1F0600084F0A2F0600088F0A3F00001D6
:1027A000964B972B8051965D9751800A676F8151A8
:1027B000800A6759D8A0DFEF13F0E1EF13F025EF9F
:1027C00013F0600080F238F0600084F239F06000AD
:1027D00088F23AF060008CF23BF0000E3C6E000E86
:1027E0003D6EA00E3E6E400E3F6E20EC21F060006C
:1027F000E0F092F06000E4F093F06000E8F094F014
:102800006000ECF095F0600038F251F060003CF2AE
:1028100052F0600040F253F0600044F254F0600067
:1028200048F255F060004CF256F0600050F257F05C
:10283000600054F258F096EC2BF0D8B022EF14F070
:1028400024EF14F02FEF14F0000E0001926F000E31
:10285000936F000E946F000E956F60EF14F06000A0
:1028600038F201F060003CF202F0600040F203F048
:10287000600044F204F0600048F205F060004CF2A1
:1028800006F0600050F207F0600054F208F08AECA5
:102890002EF0D8A04EEF14F050EF14F060EF14F0CB
:1028A000000184B156EF14F058EF14F060EF14F00B
:1028B000000E926F000E936F000E946F000E956FD6
:1028C000600060F20FF0600064F210F0600068F2E7
:1028D00011F060006CF212F0600048F213F060003A
:1028E0004CF214F0600050F215F0600054F216F053
:1028F000A2EC1EF060003CF08EF0600040F08FF023
:10290000600044F090F0600048F091F06000B0F199
:10291000A0F06000B4F1A1F06000B8F1A2F0600096
:10292000BCF1A3F0650E00018A19D8B49AEF14F037
:102930009CEF14F0A4EF14F0600070F282F06000DD
:1029400074F283F0A8EF14F0000E836F000E826F14
:10295000000E7F6F000E7E6F000E7D6F000E7C6F8D
:10296000000E976F000E966FD5EF15F0600038F2ED
:102970001FF060003CF220F0600040F221F06000A7
:1029800044F222F0600080F223F0600084F224F030
:10299000600088F225F060008CF226F065EC23F0F0
:1029A00060007CF038F0600080F039F0600084F066
:1029B0003AF0600088F03BF0C8EC26F06000E0F0F0
:1029C00092F06000E4F093F06000E8F094F06000B2
:1029D000ECF095F0600048F201F060004CF202F07B
:1029E000600050F203F0600054F204F00BEC2BF0A6
:1029F000600004F084F0600008F085F00001EDB99B
:102A000004EF15F006EF15F023EF15F08451851152
:102A1000D8A40DEF15F00FEF15F023EF15F0670EAA
:102A20008D19D8A416EF15F018EF15F023EF15F057
:102A300083BF1FEF15F01DEF15F023EF15F07C4B52
:102A40007D2B6DEF15F07E517F11D8A42AEF15F084
:102A50002CEF15F056EF15F083BF33EF15F031EF83
:102A600015F056EF15F0220E9E25D96E010E9F210E
:102A7000DA6E2E0EDF6E9E4B9F2B8B07D8A08C0735
:102A8000000E7F6F010E7E6F56EF15F0220E9E2511
:102A9000D96E010E9F21DA6E300EDF6E9E4B9F2B9A
:102AA0008B07D8A08C077C07D8A07D077C517D11AF
:102AB000D8A45DEF15F05FEF15F046EF15F0220E8C
:102AC0009E25D96E010E9F21DA6E8451300FDF6E84
:102AD0009E4B9F2B8B07D8A08C07600038F251F0DB
:102AE00060003CF252F0600040F253F0600044F2AB
:102AF00054F0600080F23CF0600084F23DF0600031
:102B000088F23EF060008CF23FF0600048F238F04E
:102B100060004CF239F0600050F23AF0600054F27C
:102B20003BF020EC21F06000E0F055F06000E4F0B4
:102B300056F06000E8F057F06000ECF058F093ECCD
:102B400030F0600044F18EF0600048F18FF06000DA
:102B50004CF190F0600050F191F0600080F21FF0B5
:102B6000600084F220F0600088F221F060008CF2B6
:102B700022F0000E236E000E246E200E256E410EF4
:102B8000266E65EC23F060007CF0A0F0600080F021
:102B9000A1F0600084F0A2F0600088F0A3F00001D2
:102BA0008207D8A08307964B972B8051965D97514B
:102BB000800A676F8151800A6759D8B0E2EF15F03B
:102BC000E4EF15F0F2EF15F09FBFF0EF15F09F5115
:102BD00009E14B0E9E5DD8A0F0EF15F0F2EF15F075
:102BE000B6EF14F07E517F11D8A4F9EF15F0FBEF8A
:102BF00015F00CEF16F0EDA900EF16F002EF16F04D
:102C00000CEF16F0220E9E25D96E010E9F21DA6E72
:102C10002E0EDF6E9E4B9F2B220E9E25D96E010E2F
:102C20009F21DA6E000EDF6E650E8A19D8A41BEFA5
:102C300016F01DEF16F0FBEF10F0000E976F4F0E21
:102C4000966F220E9625D96E010E9721DA6E000E30
:102C5000DF6E000E876F000E866F9DBF34EF16F09B
:102C600032EF16F03CEF16F0000E876F010E866F04
:102C70009C6D9D1FD8B09D2B000E896F020E886F32
:102C800073EF16F09607D8A09707220E9625D96EF7
:102C9000010E9721DA6E600070F201F0600074F2AC
:102CA00002F0000E046E0A0E036EDAEC2DF00150F5
:102CB000300FDF6E600070F201F0600074F202F01D
:102CC000000E046E0A0E036E76EC2DF0600004F028
:102CD0009CF0600008F09DF000018807D8A08907EB
:102CE0008B07D8A08C079C519D11D8A47AEF16F0C1
:102CF0007CEF16F042EF16F089BF89EF16F089518C
:102D000006E18805D8B087EF16F089EF16F042EF9C
:102D100016F09607D8A0970786518711D8A493EF8D
:102D200016F095EF16F09BEF16F0000E776F2B0E56
:102D3000766F9FEF16F0000E776F2D0E766F220ED6
:102D40009625D96E010E9721DA6E6000DBF1DFFF68
:102D50008B07D8A08C079607D8A09707BF0E676F80
:102D6000FF0E686F6651696F6A6B6751692768511A
:102D70006A236A510AE11A0E695DD8A0C2EF16F003
:102D8000C5EF16F0010EC6EF16F0000E7A6F7B6BE2
:102D90007A517B11D8A4CFEF16F0D1EF16F0D7EF10
:102DA00016F0000E796F650E786FDBEF16F0000EEF
:102DB000796F450E786F220E9625D96E010E9721F8
:102DC000DA6E6000E3F1DFFF8B07D8A08C07220EDC
:102DD0009E25016E010E9F21026E220E9625036E26
:102DE000010E9721046EB6EC2FF0FBEF10F01200ED
:102DF000150E3E01F16FF88102EF17F0050EE82E77
:102E0000FED700F03E01F8B108EF17F00AEF17F017
:102E1000FEEF16F0EF516F00C0FBD4F00001D56B50
:102E2000600050F3D5F0D46BD413000ED5130E0E02
:102E3000D42501018E6FFA0E0001D52101018F6F9B
:102E40008FBF25EF17F027EF17F02FEF17F0600077
:102E500038F686F160003CF687F140EF17F060002D
:102E600038F6D4F060003CF6D5F00001D41FD51F31
:102E7000D44BD52B600050F386F1600054F387F1FA
:102E8000600018F6D4F060001CF6D5F0000E0001CA
:102E9000D5BFFF0ED66FD76FD4510101182700019F
:102EA000D551010119230001D65101011A23000156
:102EB000D75101011B23600070F41AF0600074F414
:102EC0001BF0600078F41CF060007CF41DF0320E02
:102ED0001E6E000E1F6E000E206E000E216E31EC75
:102EE0002FF0310E1A181B101C101D10D8A47BEFE8
:102EF00017F07DEF17F0C3EF19F0600060F40DF0EC
:102F0000600064F40EF0600068F40FF060006CF490
:102F100010F0320E116E000E126E000E136E000EC7
:102F2000146E34EC2EF0600034F094F1600038F050
:102F300095F160003CF096F1600040F097F1E90EE9
:102F400001019427FF0E9523FF0E9623FF0E972372
:102F500097BFAFEF17F0ADEF17F0B7EF17F0000E18
:102F6000946F000E956F000E966F000E976F6000C5
:102F700050F40DF0600054F40EF0600058F40FF0BF
:102F800060005CF410F00A0E116E000E126E000E5E
:102F9000136E000E146E34EC2EF0D89010320F32F7
:102FA0000E320D32600034F08CF1600038F08DF19B
:102FB000600080F4D4F0600084F4D5F0000E0001CD
:102FC000D5BFFF0ED66FD76F01018C510001D86FAE
:102FD00001018D510001D96FDA6BDB6BD851010112
:102FE000945D016E0001D95101019559026E0001F5
:102FF000DA5101019659036E0001DB510101975925
:10300000046E2C0E056E010E066E000E076E000E8D
:10301000086EEFEC2FF00001D451015CD55102583D
:10302000D65103580450800ADC6FD751800ADC590E
:10303000D8A01DEF18F01FEF18F054EF18F00101A1
:103040008C510001D46F01018D510001D56FD66BF9
:10305000D76BD4510101945D016E0001D55101017E
:103060009559026E0001D65101019659036E000177
:10307000D75101019759046E2C0E056E010E066E94
:10308000000E076E000E086EEFEC2FF0600004F0EB
:1030900082F1600008F083F160000CF084F16000C0
:1030A00010F085F160EF18F0600080F482F16000AC
:1030B00084F483F10101000E83BFFF0E846F856FDE
:1030C000600008F620F160000CF621F1010121BF3B
:1030D00071EF18F0080E215DD8A071EF18F073EFB2
:1030E00018F079EF18F0080E896F000E886F7FEFE7
:1030F00018F0600080F488F1600084F489F121BF49
:1031000089EF18F0080E215DD8A089EF18F08BEF39
:1031100018F091EF18F0080E8B6F000E8A6F97EF82
:1031200018F0600080F48AF1600084F48BF1600094
:1031300080F41AF0600084F41BF0000E1BBEFF0E3A
:103140001C6E1D6E000E0001D46F080ED56F0101BC
:103150008A510001D45F01018B510001D55B6000F1
:1031600050F31EF0600054F31FF0000E1FBEFF0E60
:10317000206E216E000ED66F080ED76F01018851A8
:103180000001D65F010189510001D75B600058F34F
:1031900022F060005CF323F0000E23BEFF0E246ECD
:1031A000256E44EC25F0FF0E0001D46FFF0ED56FA5
:1031B000600080F401F0600084F402F0000E046E00
:1031C000460E036E76EC2DF0600080F4D6F06000C1
:1031D00084F4D7F001500001D65F0250D75BD45180
:1031E000D627D551D723D7BF00EF19F0D75106E125
:1031F000D605D8B0FEEF18F000EF19F007EF19F080
:10320000000E0101216F000E206F27EF19F0600002
:1032100080F401F0600084F402F0000E046E460EAB
:10322000036E76EC2DF0600080F4D4F0600084F43E
:10323000D5F001500001D45F0250D55BFF0ED425BC
:103240000101206FFF0E0001D5210101216F000E49
:10325000186F000E196F000E1A6F000E1B6F320EE2
:10326000116E000E126E000E136E000E146E6000D2
:1032700070F40DF0600074F40EF0600078F40FF05C
:1032800060007CF410F034EC2EF0600034F01AF0A2
:10329000600038F01BF060003CF01CF0600040F073
:1032A0001DF00A0E1E6E000E1F6E000E206E000E28
:1032B000216E31EC2FF0D8901A361B36000E1A24EE
:1032C000D96E010E1B20DA6E6F0078FFD4F06F000C
:1032D00074FFD5F00001D451D66FD551D76FD86B9C
:1032E000D96BD6510101145F0001D7510101155B63
:1032F0000001D8510101165B0001D9510101175B92
:10330000945114279551152396511623975117233D
:10331000320E116E000E126E000E136E000E146E41
:10332000600070F40DF0600074F40EF0600078F44A
:103330000FF060007CF410F034EC2EF0600034F0FC
:103340001AF0600038F01BF060003CF01CF06000E8
:1033500040F01DF00A0E1E6E000E1F6E000E206E55
:10336000000E216E31EC2FF0D8901A361B36000E6D
:103370001A24D96E010E1B20DA6E600053F6DEFFB0
:10338000600057F6DDFF600070F41AF0600074F41E
:103390001BF0600078F41CF060007CF41DF0E80E77
:1033A0001E6E030E1F6E000E206E000E216E31EC9D
:1033B0002FF0E70E1A1809E1030E1B181C101D1040
:1033C000D8A4E5EF19F0E7EF19F013EF1AF0CCA24B
:1033D000ECEF19F0F1EF19F00001D46BD42BF3EFFF
:1033E00019F00001D46BCC50D419FE0BD419CC6E5B
:1033F000160E3E01F16FF30EF817F88104EF1AF084
:10340000050EE82EFED700F03E01F8B10AEF1AF0E3
:103410000CEF1AF000EF1AF06F00C0FB5FF0F851EC
:10342000F30B0409F86F010E01011C27000E1D2388
:103430001E231F231F510DE1A00E1C5D860E1D597A
:10344000010E1E59D8A027EF1AF029EF1AF02DEF20
:103450001BF01B0E3E01F16FF88133EF1AF0050EE1
:10346000E82EFED700F03E01F8B139EF1AF03BEF3D
:103470001AF02FEF1AF0000E236E000E246E690E64
:10348000256E440E266E000E136E200E146E020E74
:10349000156EC50E166EEF516F00C0FBD4F0000123
:1034A000D56B600050F3D5F0D46BD413000ED51358
:1034B000600050F301F0600054F302F0000E02BE11
:1034C000FF0E036E046E010EF2EC27F0600004F0B4
:1034D0000FF0600008F010F060000CF011F06000D8
:1034E00010F012F0A2EC1EF060003CF01FF0600043
:1034F00040F020F0600044F021F0600048F022F03D
:1035000065EC23F060007CF038F0600080F039F06A
:10351000600084F03AF0600088F03BF0000E3C6EF2
:10352000000E3D6EC80E3E6E420E3F6E20EC21F046
:103530006000E0F090F16000E4F091F16000E8F0EC
:1035400092F16000ECF093F1CDB4A9EF1AF0ABEF7B
:103550001AF0C4EF1AF0720E0001C26F010EC36FB1
:10356000010EC46F200EC56F600040F6C6F060000B
:1035700044F6C7F0600048F6C8F060004CF6C9F0A9
:10358000F1EC30F01BEF1BF0CDB2C9EF1AF0CBEF2E
:103590001AF0E4EF1AF0720E0001C26F010EC36F51
:1035A000140EC46F200EC56F600040F6C6F06000B8
:1035B00044F6C7F0600048F6C8F060004CF6C9F069
:1035C000F1EC30F01BEF1BF0CDB0E9EF1AF0EBEFB0
:1035D0001AF004EF1BF0720E0001C26F010EC36FF0
:1035E000260EC46F200EC56F600040F6C6F0600066
:1035F00044F6C7F0600048F6C8F060004CF6C9F029
:10360000F1EC30F01BEF1BF0720E0001C26F010EE7
:10361000C36F380EC46F200EC56F600040F6C6F051
:10362000600044F6C7F0600048F6C8F060004CF651
:10363000C9F0F1EC30F0000E1AEC32F0720E056EAB
:10364000010E066EDFEC2EF0000E01011C6F000E65
:103650001D6F000E1E6F000E1F6F0400350EE82E4A
:10366000FED700F0120060009BF2D9FF60009FF2CD
:10367000DAFF6F007BFFF6FF6F0077FFF7FF000EAA
:10368000F86E0800F550250AD8A449EF1BF04BEF5F
:103690001BF07CEF1EF060009BF2D9FF60009FF2F0
:1036A000DAFFDE2A000EDD22000E0001EA6F000EB6
:1036B000E96FE9C0EDF0EAC0EEF0EB69EC6960009B
:1036C0009BF2D9FF60009FF2DAFF6F007BFFF6FFED
:1036D0006F0077FFF7FF000EF86E0800F5502A0A1A
:1036E000D8A475EF1BF077EF1BF0AAEF1BF060007A
:1036F0009BF2D9FF60009FF2DAFFDE2A000EDD2286
:103700006000A3F2D9FF6000A7F2DAFF6F007CFF30
:10371000AAF0020EDE266F007CFFABF0000EDD2269
:103720006000ABF2D9FF6000AFF2DAFF6F0078FF04
:10373000E9F06F0074FFEAF0EABFA3EF1BF0A1EF1E
:103740001BF0FCEF1BF0ED81E96DEA1FD8B0EA2B0E
:10375000FCEF1BF060009BF2D9FF60009FF2DAFFE4
:103760006F0078FF08F06F0074FF09F0DEEC28F0BE
:10377000600020F0E9F0600024F0EAF0C9EF1BF0EF
:1037800060009BF2D9FF60009FF2DAFFDE2A000E94
:10379000DD22D00E0001AA6FFF0EAB6F60009BF21E
:1037A000D9FF60009FF2DAFF6F007BFFF6FF6F002A
:1037B00077FFF7FF000EF86E0800F550AC6FAD6BA9
:1037C000AA51AC27AB51AD23AD510AE10A0EAC5D55
:1037D000D8A0EDEF1BF0F0EF1BF0010EF1EF1BF0A6
:1037E000000EAE6FAF6BAE51AF11D8A4FAEF1BF065
:1037F000FCEF1BF0C0EF1BF060009BF2D9FF6000F4
:103800009FF2DAFF6F007BFFF6FF6F0077FFF7FF95
:10381000000EF86E0800F5502E0AD8A412EF1CF026
:1038200014EF1CF0B2EF1CF0000EEC6F000EEB6F0B
:1038300060009BF2D9FF60009FF2DAFFDE2A000EE3
:10384000DD2260009BF2D9FF60009FF2DAFF6F007B
:103850007BFFF6FF6F0077FFF7FF000EF86E0800A2
:10386000F5502A0AD8A437EF1CF039EF1CF060EFAE
:103870001CF060009BF2D9FF60009FF2DAFFDE2AA5
:10388000000EDD226000A3F2D9FF6000A7F2DAFF8C
:103890006F007CFFAAF0020EDE266F007CFFABF00B
:1038A000000EDD226000ABF2D9FF6000AFF2DAFF5C
:1038B0006F0078FFEBF06F0074FFECF0B2EF1CF0DC
:1038C00060009BF2D9FF60009FF2DAFF6F0078FF83
:1038D00008F06F0074FF09F0DEEC28F0600020F0C3
:1038E000EBF0600024F0ECF07FEF1CF060009BF246
:1038F000D9FF60009FF2DAFFDE2A000EDD22D00E33
:103900000001AA6FFF0EAB6F60009BF2D9FF600051
:103910009FF2DAFF6F007BFFF6FF6F0077FFF7FF84
:10392000000EF86E0800F550AC6FAD6BAA51AC27D5
:10393000AB51AD23AD510AE10A0EAC5DD8A0A3EFA7
:103940001CF0A6EF1CF0010EA7EF1CF0000EB06FEC
:10395000B16BB051B111D8A4B0EF1CF0B2EF1CF0B4
:1039600076EF1CF060009BF2D9FF60009FF2DAFF57
:103970006F007BFFF6FF6F0077FFF7FF000EF86E1A
:103980000800F550076E086A5FEC30F00750000140
:10399000B86FB851D8B4CFEF1CF0D1EF1CF01BEFCB
:1039A0001DF060009BF2D9FF60009FF2DAFF6F000C
:1039B00078FFAAF06F0074FFABF0010EAA27000E8B
:1039C000AB236000ABF2F6FF6000AFF2F7FF000E32
:1039D000F86E0800F550076E086A5FEC30F007508B
:1039E0000001B96FB951D8B4F8EF1CF0FAEF1CF030
:1039F0001BEF1DF060009BF2D9FF60009FF2DAFF21
:103A00006F0078FFAAF06F0074FFABF0020EAA27D8
:103A1000000EAB236000ABF2F6FF6000AFF2F7FFE1
:103A2000000EF86E0800F550076E086A5FEC30F083
:103A300007500001BA6F660EB819D8A422EF1DF026
:103A400024EF1DF080EF1DF060009BF2D9FF6000B5
:103A50009FF2DAFF6F007BFFF6FF6F0077FFF7FF43
:103A6000000EF86E08006F00D4FFBBF060009BF200
:103A7000D9FF60009FF2DAFFDE2A000EDD2260002F
:103A8000A3F2D9FF6000A7F2DAFF6F007CFFAAF073
:103A9000040EDE266F007CFFABF0000EDD2260001E
:103AA000ABF2D9FF6000AFF2DAFF6F0078FFB4F03D
:103AB0006F0078FFB5F06F0078FFB6F06F0078FF09
:103AC000B7F0600090F260F0600094F261F0600086
:103AD000D0F262F06000D4F263F06000D8F264F0DB
:103AE0006000DCF265F06000ECF266F035EC10F09E
:103AF000600080F1A4F0600084F1A5F0A1EF1EF059
:103B0000B80E016E000E026E660E036E200E046E7D
:103B1000000E066E020E056E18EC2CF0015002101D
:103B2000D8A495EF1DF097EF1DF038EF1EF0600060
:103B30009BF2D9FF60009FF2DAFF6F0078FFAAF0D6
:103B40006F0074FFABF0010E0001AA27000EAB233B
:103B50006000ABF2F6FF6000AFF2F7FF000EF86E08
:103B600008006F00D4FFBBF0BF0EAA6FFF0EAB6F53
:103B700060009BF2D9FF60009FF2DAFF6F007BFFCD
:103B8000F6FF6F0077FFF7FF000EF86E0800F550A4
:103B9000AC6FAD6BAA51AC27AB51AD23AD510AE16F
:103BA0001A0EAC5DD8A0D7EF1DF0DAEF1DF0010EB4
:103BB000DBEF1DF0000EB26FB36BB251B311D8B48E
:103BC000E4EF1DF0E6EF1DF00AEF1EF06000A3F237
:103BD000D9FF6000A7F2DAFF6F007CFFAAF0040EA5
:103BE000DE266F007CFFABF0000EDD226000ABF242
:103BF000D9FF6000AFF2DAFF6F0078FFB4F06F001A
:103C000078FFB5F06F0078FFB6F06F0078FFB7F07F
:103C10002CEF1EF06000A3F2D9FF6000A7F2DAFFDC
:103C20006F007CFFAAF0040EDE266F007CFFABF075
:103C3000000EDD226000ABF2D9FF6000AFF2DAFFC8
:103C40006F0078FFB4F06F0078FFB5F06F0078FF79
:103C5000B6F06F0078FFB7F0020E60009BF2D9FF5C
:103C600060009FF2DAFFDE26000EDD2261EF1DF01C
:103C700060009BF2D9FF60009FF2DAFF6F007BFFCC
:103C8000F6FF6F0077FFF7FF000EF86E0800F550A3
:103C9000250AD8A44EEF1EF050EF1EF06CEF1EF078
:103CA00060009BF2D9FF60009FF2DAFFDE2A000E6F
:103CB000DD22000E026E250E016E600090F203F010
:103CC000600094F204F00AEC2DF0000E0001A56FE4
:103CD000010EA46FA1EF1EF060009BF2D9FF6000FF
:103CE0009FF2DAFFDE2A000EDD22000E0001A56F32
:103CF000000EA46FA1EF1EF060009BF2D9FF6000E0
:103D00009FF2DAFF6F007BFFF6FF6F0077FFF7FF90
:103D1000000EF86E0800F550016E026A600090F225
:103D200003F0600094F204F00AEC2DF060009BF2C6
:103D3000D9FF60009FF2DAFFDE2A000EDD2265EF78
:103D40001EF012001250800B1B6E125012241D6EBA
:103D500011AEADEF1EF0AFEF1EF0B0EF1EF01D8004
:103D60001D50D8B4B6EF1EF0B8EF1EF0CDEF1EF028
:103D70001D28D8A4BEEF1EF0C0EF1EF0C8EF1EF045
:103D8000000E0F6E000E106E000E116E000E126E01
:103D9000118E000E126ED5EF1EF0000E0F6E000E8B
:103DA000106E000E116E000E126E1650800B1C6EFF
:103DB0001B501C18D8B4DFEF1EF0E1EF1EF0E2EF4D
:103DC0001EF01B8C165016241C6E15AEEAEF1EF06A
:103DD000ECEF1EF0EDEF1EF01C801C50D8B4F3EF9A
:103DE0001EF0F5EF1EF00AEF1FF01C28D8A4FBEF21
:103DF0001EF0FDEF1EF005EF1FF0000E136E000E1B
:103E0000146E000E156E000E166E158E000E166ED8
:103E100012EF1FF0000E136E000E146E000E156EE2
:103E2000000E166E1D501C5CD8B019EF1FF01BEF72
:103E30001FF051EF1FF01BAC20EF1FF022EF1FF01F
:103E400024EF1FF0800E1B1A600074F01EF060005B
:103E500070F01DF0600078F01CF060003CF01EF087
:103E600060004CF00FF0600078F013F0600040F05C
:103E70001EF0600050F010F0600078F014F0600068
:103E800044F01EF0600054F011F0600078F015F07E
:103E9000600048F01EF0600058F012F0600078F00A
:103EA00016F0000E1E6E1D50600070F017F0186ABC
:103EB000175E000E185A18BE67EF1FF0185009E180
:103EC0001A0E175CD8A067EF1FF069EF1FF0A1EF83
:103ED0001FF00F50101011101210D8A472EF1FF025
:103EE00075EF1FF0010E76EF1FF0000E1E6E000E34
:103EF0000F6E000E106E000E116E000E126E60003E
:103F000070F01DF0AAEF1FF01EA089EF1FF08BEFDD
:103F10001FF091EF1FF0D8901E3001091E6E93EF35
:103F20001FF0D8901E320FA098EF1FF09AEF1FF0ED
:103F30009BEF1FF01E8E12341232113210320F32EC
:103F40001D2A1C501D5CD8A0A8EF1FF0AAEF1FF07F
:103F500084EF1FF01BBCAFEF1FF0B1EF1FF0F1EFCC
:103F60001FF01D50D8A4B7EF1FF0B9EF1FF0C3EF3B
:103F70001FF0000E0F6E000E106E000E116E000E80
:103F8000126E1FEF21F013500F26145010221550FF
:103F900011221650122212A0D0EF1FF0D2EF1FF004
:103FA0007EEF20F01EA0D7EF1FF0D9EF1FF0DFEF5C
:103FB0001FF0D8901E3001091E6EE1EF1FF0D8905F
:103FC0001E320FA0E6EF1FF0E8EF1FF0E9EF1FF041
:103FD0001E8E12341232113210320F321D2A7EEF31
:103FE00020F013500F5C14501058155011581250F7
:103FF000800A176E1650800A1758D8B002EF20F0CA
:1040000004EF20F02FEF20F00F50135C176E1050CC
:104010001458186E11501558196E125016581A6E01
:10402000FF0E17240F6EFF0E1820106EFF0E1920C2
:10403000116EFF0E1A20126E800E1B1A1E6C1E507F
:10404000D8A425EF20F027EF20F037EF20F0010E65
:104050000F26000E10221122122237EF20F01350EB
:104060000F5E1450105A1550115A1650125A0F5014
:10407000101011101210D8A440EF20F042EF20F0E1
:1040800077EF20F01E50D8A448EF20F04AEF20F040
:1040900077EF20F0000E0F6E000E106E000E116E06
:1040A000000E126E1FEF21F0D8900F361036113629
:1040B00012361EAE5EEF20F060EF20F061EF20F0D0
:1040C0000F801EA066EF20F068EF20F06CEF20F06C
:1040D000D8801E366EEF20F0D8901E361D50D8B412
:1040E00074EF20F076EF20F077EF20F01D0611AE90
:1040F0007CEF20F07EEF20F054EF20F0000E1C6EDD
:104100001EAE85EF20F087EF20F0A0EF20F06000DA
:1041100078F017F07F0E1716D8B491EF20F093EFD8
:1041200020F097EF20F0010E1C6EA0EF20F00FA002
:104130009CEF20F09EEF20F0A0EF20F093EF20F016
:104140001C50D8B4A6EF20F0A8EF20F0DBEF20F051
:10415000010E0F26000E10221122122212A0B3EF20
:1041600020F0B5EF20F0DBEF20F060003CF017F01E
:10417000600040F018F0600044F019F0600048F072
:104180001AF01A341A3219321832173260005CF001
:104190000FF0600060F010F0600064F011F060005B
:1041A00068F012F01D28D8B4D8EF20F0DAEF20F034
:1041B000DBEF20F01D2A1D28D8B4E1EF20F0E3EF5B
:1041C00020F0EBEF20F01D50D8A4E9EF20F0EBEF4A
:1041D00020F0FDEF20F0000E0F6E000E106E000EAE
:1041E000116E000E126E1D50D8A4F9EF20F0FBEFF7
:1041F00020F0FDEF20F0000E1B6E1DA002EF21F05D
:1042000004EF21F007EF21F0118E08EF21F0119E4D
:10421000D8901D30126E1BAE10EF21F012EF21F07E
:1042200013EF21F0128E60003CF00FF0600040F0C0
:1042300010F0600044F011F0600048F012F012003D
:104240003B50800B446E3B503B244A6E3AAE2BEF02
:1042500021F02DEF21F02EEF21F04A804A50D8B402
:1042600034EF21F036EF21F049EF21F04A28D8A4AD
:104270003CEF21F03EEF21F046EF21F0000E386ECA
:10428000000E396E000E3A6E000E3B6E3A8E51EF04
:1042900021F0000E386E000E396E000E3A6E000EE0
:1042A0003B6E3F50800B441A3F503F24496E3EAE58
:1042B0005CEF21F05EEF21F05FEF21F04980495083
:1042C000D8B465EF21F067EF21F07AEF21F04928AB
:1042D000D8A46DEF21F06FEF21F077EF21F0000E01
:1042E0003C6E000E3D6E000E3E6E000E3F6E3E8E2A
:1042F00082EF21F0000E3C6E000E3D6E000E3E6E11
:10430000000E3F6E4950D8B488EF21F08AEF21F0BB
:1043100092EF21F04A50D8A490EF21F092EF21F0D3
:104320009CEF21F0000E386E000E396E000E3A6ED2
:10433000000E3B6E64EF23F03E5038026F00CCFF5E
:104340004FF06F00D0FF50F04F50456E466A476AFD
:10435000486A50504B6E4C6A4D6A4E6A3D50390265
:104360006F00CCFF4FF06F00D0FF50F04F5045264C
:10437000000E46224722482250504B26000E4C2267
:104380004D224E223C503A026F00CCFF4FF06F009E
:10439000D0FF50F04F504526000E462247224822BB
:1043A00050504B26000E4C224D224E2260001CF134
:1043B00048F0600018F147F0600014F146F0456ADB
:1043C0003C5039026F00CCFF4FF06F00D0FF50F02F
:1043D0004F50452650504622000E4722000E4822DC
:1043E0003D5038026F00CCFF4FF06F00D0FF50F00F
:1043F0004F50452650504622000E4722000E4822BC
:1044000060001CF148F0600018F147F0600014F102
:1044100046F0456A3C5038026F00CCFF4FF06F0009
:10442000D0FF50F04F50452650504622000E4722F4
:10443000000E48223E5039026F00CCFF4FF06F0053
:10444000D0FF50F04F504B2650504C22000E4D22C2
:10445000000E4E223D503A026F00CCFF4FF06F002D
:10446000D0FF50F04F504B2650504C22000E4D22A2
:10447000000E4E223E503A026F00CCFF4FF06F000C
:10448000D0FF50F04F50406E5050416E426A436A28
:10449000600008F143F0600004F142F0600000F1B8
:1044A00041F0406A40504B2641504C2242504D2230
:1044B00043504E22600014F140F0600018F141F0CA
:1044C00060001CF142F0600020F143F0190E6EEF25
:1044D00022F0D8904332423241324032E82E69EF26
:1044E00022F040504B2641504C2242504D22435026
:1044F0004E2260001CF148F0600018F147F06000A7
:1045000014F146F0456A4950600028F140F0416AD4
:104510004026000E4122820E40244F6EFF0E4120A5
:10452000506EA8EF22F0D8904B364C364D364E36B2
:1045300048AE9DEF22F09FEF22F0A0EF22F04B80DB
:10454000D89045364636473648364F06D8A05006EE
:104550004DAEADEF22F0AFEF22F093EF22F0000E60
:10456000496E48AEB6EF22F0B8EF22F0DCEF22F051
:10457000FF0E4514406EFF0E4614416EFF0E4714A9
:10458000426E7F0E4814436E40504110421043105B
:10459000D8B4CDEF22F0CFEF22F0D3EF22F0010E0E
:1045A000496EDCEF22F04BA0D8EF22F0DAEF22F0D8
:1045B000DCEF22F0CFEF22F04950D8B4E2EF22F046
:1045C000E4EF22F010EF23F0010E4B26000E4C22F8
:1045D0004D224E224EA0EFEF22F0F1EF22F010EF2D
:1045E00023F060002CF140F0600030F141F06000F9
:1045F00034F142F0600038F143F043344332423248
:1046000041324032600000F14BF0600004F14CF0A8
:10461000600008F14DF060000CF14EF04F4A502A56
:1046200050BE1BEF23F0505008E14F28D8A01BEFDD
:1046300023F01DEF23F027EF23F0000E4B6E000E4A
:104640004C6E800E4D6E7F0E4E6E56EF23F050BEB8
:1046500034EF23F0505006E14F04D8B032EF23F08E
:1046600034EF23F040EF23F0000E4B6E000E4C6E43
:10467000000E4D6E000E4E6E000E446E56EF23F08F
:1046800060003CF14AF0FF0E4B16FF0E4C167F0EF9
:104690004D16000E4E164AA050EF23F052EF23F0B5
:1046A00053EF23F04D8ED8904A304E6E44504E1248
:1046B00060002CF138F0600030F139F0600034F126
:1046C0003AF0600038F13BF012002250800B2F6E60
:1046D00022502224366E21AE70EF23F072EF23F0C9
:1046E00073EF23F036803650D8B479EF23F07BEFA8
:1046F00023F090EF23F03628D8A481EF23F083EF46
:1047000023F08BEF23F0000E1F6E000E206E000EC4
:10471000216E000E226E218E000E226E98EF23F085
:10472000000E1F6E000E206E000E216E000E226E17
:104730002650800B2F1A26502624376E25AEA3EF65
:1047400023F0A5EF23F0A6EF23F037803750D8B43D
:10475000ACEF23F0AEEF23F0C3EF23F03728D8A45B
:10476000B4EF23F0B6EF23F0BEEF23F0000E236E7C
:10477000000E246E000E256E000E266E258E000E95
:10478000266ECBEF23F0000E236E000E246E000E7B
:10479000256E000E266E2350241025102610D8A456
:1047A000D4EF23F0D6EF23F0F2EF23F0000E1F6ECC
:1047B000000E206E000E216E000E226E800E211261
:1047C0007F0E22122F50221260007CF01FF060003A
:1047D00080F020F0600084F021F0600088F022F08A
:1047E00043EF25F03650D8A4F8EF23F0FAEF23F08A
:1047F00004EF24F0000E1F6E000E206E000E216EDE
:10480000000E226E43EF25F037506000D8F027F0FD
:10481000286A275E000E285A7F0E2724306E000E6D
:104820002820316E60007CF02BF0600080F02CF0CE
:10483000600084F02DF0600088F02EF0000E1F6EF6
:10484000000E206E000E216E000E226E000E326EE3
:10485000000E336E000E346E000E356E000E376E95
:104860006AEF24F03750D8B438EF24F03AEF24F050
:1048700051EF24F0D8902B362C362D362E36D8908A
:104880001F3620362136223635AE49EF24F04BEF65
:1048900024F04CEF24F01F80D89032363336343673
:1048A000353623502B5C24502C5825502D5826503B
:1048B0002E58D8A05EEF24F060EF24F069EF24F0CA
:1048C000358C23502B5E24502C5A25502D5A2650BF
:1048D0002E5A372A190E376470EF24F072EF24F045
:1048E00032EF24F02B502C102D102E10D8B47BEF6B
:1048F00024F07DEF24F095EF24F0328095EF24F042
:10490000D8901F3620362136223635AE8AEF24F075
:104910008CEF24F08DEF24F01F80D89032363336A0
:10492000343635363006D8A0310621AE9AEF24F061
:104930009CEF24F080EF24F0000E376E35AEA3EF2D
:1049400024F0A5EF24F0C9EF24F0FF0E3214276EF7
:10495000FF0E3314286EFF0E3414296E7F0E3514AB
:104960002A6E2750281029102A10D8B4BAEF24F044
:10497000BCEF24F0C0EF24F0010E376EC9EF24F035
:104980001FA0C5EF24F0C7EF24F0C9EF24F0BCEF5F
:1049900024F03750D8B4CFEF24F0D1EF24F0FDEF5E
:1049A00024F0010E1F26000E20222122222222A006
:1049B000DCEF24F0DEEF24F0FDEF24F060007CF06B
:1049C00027F0600080F028F0600084F029F060009B
:1049D00088F02AF02A342A3229322832273260001D
:1049E0009CF01FF06000A0F020F06000A4F021F027
:1049F0006000A8F022F0304A312A31BE08EF25F0DD
:104A0000315008E13028D8A008EF25F00AEF25F052
:104A100015EF25F0000E316E3068000E1F6E000E8F
:104A2000206E000E216E000E226E31BE22EF25F0A8
:104A3000315006E13004D8B020EF25F022EF25F008
:104A400030EF25F0000E316E000E306E000E1F6E3E
:104A5000000E206E000E216E000E226E000E2F6ED4
:104A60006000C0F036F036A038EF25F03AEF25F0C0
:104A70003DEF25F0218E3EEF25F0219ED890363077
:104A8000226EE2EF23F012005F50016E026A036AA9
:104A9000046A600068F005F060006CF006F06000E9
:104AA00070F007F0600074F008F0EFEC2FF0600099
:104AB00004F00DF0600008F00EF060000CF00FF054
:104AC000600010F010F0FF0E116E000E126E000E5E
:104AD000136E000E146E34EC2EF0600034F03EF0D5
:104AE000600038F03FF060003CF040F0600040F0C3
:104AF00041F05F50016E026A036A046A600078F058
:104B000005F060007CF006F0600080F007F06000C7
:104B100084F008F0EFEC2FF0600004F00DF060007E
:104B200008F00EF060000CF00FF0600010F010F0D4
:104B3000FF0E116E000E126E000E136E000E146E3C
:104B400034EC2EF0600034F042F0600038F043F0B6
:104B500060003CF044F0600040F045F05F50016EB2
:104B6000026A036A046A600088F005F060008CF055
:104B700006F0600090F007F0600094F008F0EFECB1
:104B80002FF0600004F00DF0600008F00EF06000FF
:104B90000CF00FF0600010F010F0FF0E116E000E20
:104BA000126E000E136E000E146E34EC2EF06000C8
:104BB00034F046F0600038F047F060003CF048F018
:104BC000600040F049F0415040100AE13E280F0ECD
:104BD0003F58D8A0EEEF25F0F0EF25F0FAEF25F0E2
:104BE000FF0E266E0F0E276E000E286E000E296E29
:104BF00006EF26F06000F8F026F06000FCF027F0E9
:104C0000600000F128F0600004F129F060009FF0DE
:104C100075FF415040100AE13E280F0E3F58D8A0C2
:104C200014EF26F016EF26F020EF26F0FF0E2A6E86
:104C30000F0E2B6E000E2C6E000E2D6E2CEF26F03C
:104C40006000F8F02AF06000FCF02BF0600000F14A
:104C50002CF0600004F12DF06000ABF074FF4550C3
:104C600044100AE142280F0E4358D8A03AEF26F02C
:104C70003CEF26F046EF26F0FF0E2E6E0F0E2F6E45
:104C8000000E306E000E316E52EF26F0600008F11B
:104C90002EF060000CF12FF0600010F130F0600099
:104CA00014F131F06000BFF079FF455044100AE183
:104CB00042280F0E4358D8A060EF26F062EF26F08E
:104CC0006CEF26F0FF0E326E0F0E336E000E346E58
:104CD000000E356E78EF26F0600008F132F06000CB
:104CE0000CF133F0600010F134F0600014F135F095
:104CF0006000CBF078FF495048100AE146280F0EBB
:104D00004758D8A086EF26F088EF26F092EF26F0DD
:104D1000FF0E366E0F0E376E000E386E000E396EB7
:104D20009EEF26F0600018F136F060001CF137F0BD
:104D3000600020F138F0600024F139F06000DFF00D
:104D400071FF495048100AE146280F0E4758D8A075
:104D5000ACEF26F0AEEF26F0B8EF26F0FF0E3A6E7D
:104D60000F0E3B6E000E3C6E000E3D6EC4EF26F043
:104D7000600018F13AF060001CF13BF0600020F197
:104D80003CF0600024F13DF06000EBF070FF120099
:104D900060007CF348F0600080F349F0600084F329
:104DA0004AF0600088F34BF06000E0F048F06000EB
:104DB000E4F049F06000E8F04AF06000ECF04BF0FD
:104DC000810E3C6EFF0E3D6E600020F13EF06000F3
:104DD00024F13FF0600028F140F060002CF141F038
:104DE000180EF8EF26F0D890413240323F323E3272
:104DF000E82EF3EF26F03E503C24466E000E3D2098
:104E0000476E47BE0DEF27F0475009E1170E465C8D
:104E1000D8A00DEF27F00FEF27F01DEF27F060006F
:104E2000E0F038F06000E4F039F06000E8F03AF0CB
:104E30006000ECF03BF0F1EF27F047BE22EF27F0E7
:104E400024EF27F09DEF27F0600018F13CF0FF0EF3
:104E50003D6EFF0E3E6E7F0E3F6E000E406E3C6656
:104E600034EF27F03CEF27F0403440323F323E32FF
:104E70003D323C2E2FEF27F06000F4F042F060004E
:104E8000F8F043F06000FCF044F0600000F145F001
:104E9000425048143C6E435049143D6E44504A14ED
:104EA0003E6E45504B143F6E3C503D103E103F103F
:104EB000D8A45DEF27F05FEF27F061EF27F00FEF49
:104EC00027F0600020F13CF0600024F13DF060002C
:104ED00028F13EF060002CF13FF0200E75EF27F036
:104EE000D8903F323E323D323C32E82E70EF27F010
:104EF0003C503D103E103F10D8B481EF27F083EFB7
:104F000027F08BEF27F04250482643504922445067
:104F10004A2245504B22421C3C6E431C3D6E441CB1
:104F20003E6E451C3F6E3C5048163D5049163E5063
:104F30004A163F504B16E5EF27F0600020F13CF099
:104F4000600024F13DF0600028F13EF060002CF19B
:104F50003FF0200EB1EF27F0D8903F323E323D3285
:104F60003C32E82EACEF27F03C503D103E103F1095
:104F7000D8A4BDEF27F0BFEF27F0C9EF27F0000E50
:104F8000486E000E496E000E4A6E000E4B6EE5EF45
:104F900027F0D89048343C6E49343D6E4A343E6E1A
:104FA0004B343F6E3C503D103E103F10D8B4DBEF09
:104FB00027F0DDEF27F0E5EF27F0000E486E000E3A
:104FC000496E800E4A6EBF0E4B6E600020F138F0C5
:104FD000600024F139F0600028F13AF060002CF113
:104FE0003BF01200096E0950D8B4F9EF27F0FBEF3F
:104FF00027F025EF28F004BE02EF28F000EF28F09C
:1050000025EF28F0600004F005F0600008F006F0DD
:1050100060000CF007F0600010F008F0051E061E9E
:10502000071E081E052A000E06220722082260001D
:1050300014F00BF0600018F00CF060001CF00DF0A4
:10504000600020F00EF031EF28F0600004F00BF06B
:10505000600008F00CF060000CF00DF0600010F043
:105060000EF00150021003100410D8A43AEF28F0FB
:105070003CEF28F046EF28F0000E016E000E026EA5
:10508000000E036E000E046EDDEF28F0960E0A6E21
:1050900050EF28F00A2AD8900E320D320C320B3223
:1050A000000E0B14056E000E0C14066E000E0D148F
:1050B000076EFE0E0E14086E05500610071008103D
:1050C000D8A465EF28F067EF28F04AEF28F075EFD5
:1050D00028F00A2A010E0B26000E0C220D220E22A9
:1050E000D8900E320D320C320B32000E0B14056EBE
:1050F000000E0C14066E000E0D14076EFF0E0E143B
:10510000086E0550061007100810D8A48AEF28F082
:105110008CEF28F069EF28F094EF28F00A06D89079
:105120000B360C360D360E360DBE99EF28F09BEF80
:1051300028F0A3EF28F0020E0A60A1EF28F0A3EFF9
:1051400028F08EEF28F00AB0A8EF28F0AAEF28F098
:10515000ABEF28F00D9ED8900A32600028F005F0E1
:10516000066A076A086A600014F008F0076A066AAF
:10517000056A05500B1206500C1207500D1208500C
:105180000E120950D8B4C7EF28F0C9EF28F0D1EFBC
:1051900028F004BED0EF28F0CEEF28F0D1EF28F0B1
:1051A0000E8E60002CF001F0600030F002F0600024
:1051B00034F003F0600038F004F01200000E166EB8
:1051C000000E156E000E0F6E000E0E6EEAEF28F048
:1051D000084A092A010E146E600023F0F6FF6000F1
:1051E00027F0F7FF000EF86E0800F550200AD8B43B
:1051F000FCEF28F0FEEF28F01FEF29F0F70E0A6E03
:10520000FF0E0B6E600023F0F6FF600027F0F7FF43
:10521000000EF86E0800F5500C6E0D6A0A500C2650
:105220000B500D220D5009E1050E0C5CD8A01BEFB0
:1052300029F01DEF29F01FEF29F0000E146E600019
:1052400050F010F0116A10501110D8A42AEF29F074
:105250002CEF29F0E8EF28F036EF29F0000E0F6E62
:10526000010E0E6E084A092A75EF29F0600023F03E
:10527000F6FF600027F0F7FF000EF86E0800F5500B
:105280000A6E0B6A0B50000AD8B449EF29F075EF8B
:1052900029F00A502B0AD8B432EF29F0060AD8B404
:1052A0002EEF29F075EF29F0600054F001F0600056
:1052B00058F002F0000E046E0A0E036E03EC32F09A
:1052C000600023F0F6FF600027F0F7FF000EF86E95
:1052D0000800F550015E000E025A300E0124156ED2
:1052E000000E0220166E32EF29F0D00E0A6EFF0E6D
:1052F0000B6E600023F0F6FF600027F0F7FF000E52
:10530000F86E0800F5500C6E0D6A0A500C260B5012
:105310000D220D500AE10A0E0C5CD8A092EF29F084
:1053200095EF29F0010E96EF29F0000E126E136A28
:1053300012501310D8A49FEF29F0A1EF29F054EFD9
:1053400029F00E500F10D8A4A8EF29F0AAEF29F0E9
:10535000BCEF29F0600054F00AF0600058F00BF048
:105360000A1E0B1E0A4A0B2A600028F008F0600093
:105370002CF009F0C2EF29F0600054F008F0600052
:1053800058F009F01200000EC26E000ECA6E000E38
:105390003A01406F000E416F44694369000E426F4D
:1053A000CC0EC36E100ECB6E000E506FC00E516F40
:1053B00054695369000E526F6E0EC46E000ECC6EAF
:1053C000600E606F0E0E616F64696369000E626F3C
:1053D0000F0EC56E000ECD6E080E706F070E716F4A
:1053E00074697369000E726FF80EC66E040ECE6E8D
:1053F000F00E806F080E816F84698369000E826FE2
:105400007F0E3901C06FFB0EC16F470EC26F510E88
:10541000C36FE00EC46F370EC56F3F0EC66F030E2D
:10542000C76F840E3E01F86F000EF96F000EFA6F21
:10543000000EFB6F1F0EFF6F000EFD6F0A0E3A018C
:10544000176F0B0E1C6F0C0E1D6F0E0E1E6F100EC5
:105450001F6F550E3F015E6F8F0E7A6E8F0E766E48
:105460008F0E726E800E6A6E800E626EAB68010ED9
:10547000AE6E900EAC6E000E786E000E796E000E61
:10548000746E000E756E000E706E000E716E69689F
:10549000686861686068CB98050E0001DE6F0F0ECA
:1054A000DD6FF10EE82EFED7DD2FFCD7DE2FFAD709
:1054B000CB88050E0001DE6F0F0EDD6FF10EE82EBA
:1054C000FED7DD2FFCD7DE2FFAD7000E056E000EBB
:1054D000066E000E076E010E086E010E28EC30F00D
:1054E000490E056E200E066EDFEC2EF0F8EC16F07D
:1054F00076EF2AF0FEEFFFF060008CF30BF0600017
:1055000090F30CF0600094F30DF0600098F30EF04F
:10551000600004F00BF0600008F00CF060000CF08C
:105520000DF0600010F00EF060002CF005F060004F
:1055300030F006F0600034F007F0600038F008F05A
:10554000180EA8EF2AF0D89008320732063205323A
:10555000E82EA3EF2AF00550096E0A6A09500A10D6
:10556000D8A4B5EF2AF0B7EF2AF0D7EF2AF0D890F9
:105570000B34056E0C34066E0D34076E0E34086E57
:105580000550061007100810D8A4C9EF2AF0CBEF79
:105590002AF0D1EF2AF0000E026E020E016E0AEF21
:1055A0002BF0000E026E030E016E0AEF2BF009289D
:1055B0000A10D8A4DEEF2AF0E0EF2AF006EF2BF075
:1055C00060002CF005F0600030F006F0600034F070
:1055D00007F0600038F008F0090ED890053606365E
:1055E00007360836E82EEDEF2AF0055006100710B2
:1055F0000810D8B4FEEF2AF001EF2BF0010E02EFF5
:105600002BF0000E016E026A0AEF2BF0000E026E04
:10561000040E016E1200033404340A6E0A50D8A43A
:1056200014EF2BF016EF2BF020EF2BF0000E016E95
:10563000000E026E000E036E000E046E95EF2BF04E
:10564000600004F005F0600008F006F060000CF067
:1056500007F0600010F008F0200E34EF2BF0D89027
:105660000832073206320532E82E2FEF2BF00550B4
:10567000096E038EFF0E0116FF0E0216FF0E0316B3
:10568000000E0416960E0A5E0ABE4BEF2BF049EF91
:105690002BF061EF2BF00A50800A970FD8B053EF30
:1056A0002BF055EF2BF057EF2BF016EF2BF0D89097
:1056B00004320332023201320A3E57EF2BF079EF07
:1056C0002BF01F0E0A6467EF2BF069EF2BF071EFE0
:1056D0002BF016EF2BF0D890013602360336043645
:1056E0000A060A50D8A477EF2BF079EF2BF06BEF76
:1056F0002BF00950D8B47FEF2BF081EF2BF089EF1E
:105700002BF0041E031E021E016C000E0222032257
:105710000422600004F001F0600008F002F0600074
:105720000CF003F0600010F004F01200000E5114B1
:10573000596E000E52145A6E800E53145B6E7F0E1B
:1057400054145C6E59505A105B105C10D8A4ABEF27
:105750002BF0ADEF2BF0B5EF2BF0000E516E000EDD
:10576000526E000E536E000E546E000E5514596E9C
:10577000000E56145A6E800E57145B6E7F0E58142E
:105780005C6E59505A105B105C10D8A4CAEF2BF015
:10579000CCEF2BF0D4EF2BF0000E556E000E566EB2
:1057A000000E576E000E586E54AED9EF2BF0DBEFA3
:1057B0002BF0E4EF2BF0516C521ED8B0522A531E3E
:1057C000D8B0532A800E545658AEE9EF2BF0EBEFC9
:1057D0002BF0F4EF2BF0556C561ED8B0562A571EFE
:1057E000D8B0572A800E5856000E511A000E521A81
:1057F000000E531A800E541A000E551A000E561A37
:10580000000E571A800E581A5550515C5650525877
:105810005750535858505458D8B011EF2CF013EF3C
:105820002CF016EF2CF0D89017EF2CF0D880120047
:10583000600004F008F0600008F009F060000CF06F
:105840000AF0600010F00BF00506D8A00606052847
:1058500006E10628D8A42FEF2CF031EF2CF03EEF14
:105860002CF0000E026E000E016E98EF2CF0084A2C
:10587000092A0A4A0B2A0506D8A00606600023F06A
:10588000D9FF600027F0DAFFDF50D8B44AEF2CF0E0
:105890004CEF2CF081EF2CF060002BF0F6FF600055
:1058A0002FF0F7FF000EF86E0800F5500009D8B48D
:1058B0005CEF2CF05EEF2CF081EF2CF00550061021
:1058C000D8B465EF2CF067EF2CF081EF2CF060007E
:1058D00023F0D9FF600027F0DAFFDF50076E600089
:1058E0002BF0F6FF60002FF0F7FF000EF86E0800B7
:1058F000F5500718D8B47FEF2CF081EF2CF037EF7C
:105900002CF0600023F0D9FF600027F0DAFFDF50B1
:10591000076E60002BF0F6FF60002FF0F7FF000E1F
:10592000F86E0800F550075C016E026AD8A0020606
:1059300012000001EDA19FEF2CF0A1EF2CF0AFEFD2
:105940002CF060004CF00AF0600050F00BF06000AA
:1059500044F00CF0600048F00DF04AEC31F016BE57
:10596000B4EF2CF0B6EF2CF0BEEF2CF0600054F04A
:105970001AF0600058F01BF0C2EF2CF0000E1B6E06
:10598000000E1A6E000E196E000E186ED6EF2CF077
:10599000000E026E200E016E600044F003F0600005
:1059A00048F004F00AEC2DF0184A192A1A50185C35
:1059B0001950800A176E1B50800A1758D8A0E3EFC1
:1059C0002CF0E5EF2CF0C8EF2CF00001EDB1EBEF7F
:1059D0002CF0EDEF2CF0FBEF2CF060004CF00AF017
:1059E000600050F00BF0600044F00CF0600048F0F4
:1059F0000DF04AEC31F060004CF001F0600050F026
:105A000002F08FEC31F01A500124116E1B5002206D
:105A1000126E120003500410D8B411EF2DF013EFE2
:105A20002DF01CEF2DF003500410D8A41AEF2DF028
:105A30001CEF2DF021EF2DF0015025EC32F075EF29
:105A40002DF020EE04F00350D9260450DA22DE5067
:105A5000DE10D8B42EEF2DF030EF2DF04BEF2DF0FF
:105A600020EE04F00350D9260450DA2210EE02F0A2
:105A70000350E1260450E222DE50E65CE650800A44
:105A8000096EDE50800A0958D8B049EF2DF04BEF6F
:105A90002DF075EF2DF020EE02F00350D9260450C2
:105AA000DA226F0078FF05F06F0074FF06F06000E7
:105AB0000FF0D9FF600013F0DAFF6F0078FF07F0F6
:105AC0006F0074FF08F005500724D96E06500820B7
:105AD000DA6E600007F0DFFF20EE02F00350D926F7
:105AE0000450DA22DE2A000EDD221200000E066EBD
:105AF00004BE7FEF2DF07DEF2DF085EF2DF0036CD0
:105B0000041ED8B0042A010E066E02BE8CEF2DF0E2
:105B10008AEF2DF092EF2DF0016C021ED8B0022A10
:105B2000010E061A000E086E000E076E03500410D8
:105B3000D8B49DEF2DF09FEF2DF0C7EF2DF0010EA3
:105B4000056EA7EF2DF0D89003360436052A04AE73
:105B5000ACEF2DF0AEEF2DF0A3EF2DF0D89007367F
:105B600008360350015C04500258D8A0BAEF2DF05B
:105B7000BCEF2DF0C1EF2DF00350015E0450025A2E
:105B80000780D89004320332052EAEEF2DF0065078
:105B9000D8B4CDEF2DF0CFEF2DF0D3EF2DF0076C73
:105BA000081ED8B0082A60001CF001F0600020F048
:105BB00002F01200000E066E02BEE3EF2DF0E1EFE0
:105BC0002DF0E9EF2DF0016C021ED8B0022A010E73
:105BD000066E04BEF0EF2DF0EEEF2DF0F4EF2DF099
:105BE000036C041ED8B0042A03500410D8B4FBEF91
:105BF0002DF0FDEF2DF021EF2EF0010E056E05EFDB
:105C00002EF0D89003360436052A04AE0AEF2EF0A3
:105C10000CEF2EF001EF2EF00350015C04500258FF
:105C2000D8A015EF2EF017EF2EF01BEF2EF003503B
:105C3000015E0450025AD89004320332052E0CEF54
:105C40002EF00650D8B427EF2EF029EF2EF02DEFCE
:105C50002EF0016C021ED8B0022A600004F001F0A0
:105C6000600008F002F01200000E156E000E166EB5
:105C7000000E176E000E186E115012101310141033
:105C8000D8B445EF2EF047EF2EF07DEF2EF0010E49
:105C9000196E51EF2EF0D890113612361336143695
:105CA000192A14AE56EF2EF058EF2EF04BEF2EF0CF
:105CB000D890153616361736183611500D5C12501E
:105CC0000E5813500F5814501058D8A06AEF2EF0E9
:105CD0006CEF2EF075EF2EF011500D5E12500E5A33
:105CE00013500F5A1450105A1580D8901432133292
:105CF00012321132192E58EF2EF0600054F00DF0D0
:105D0000600058F00EF060005CF00FF0600060F092
:105D100010F01200000E0114096E000E02140A6E3B
:105D2000800E03140B6E7F0E04140C6E09500A10C3
:105D30000B100C10D8A49FEF2EF0A1EF2EF0A9EFBE
:105D40002EF0000E016E000E026E000E036E000EAD
:105D5000046E000E0514096E000E06140A6E800E05
:105D600007140B6E7F0E08140C6E09500A100B10EE
:105D70000C10D8A4BEEF2EF0C0EF2EF0C8EF2EF01E
:105D8000000E056E000E066E000E076E000E086E09
:105D9000055001180FE1065002180CE107500318D6
:105DA00009E108500418D8B4D8EF2EF0DAEF2EF03D
:105DB000DDEF2EF0D890DEEF2EF0D8801200000E2E
:105DC000096E05EF2FF009500524076E000E06201E
:105DD000086E60001FF0F6FF600023F0F7FF000E72
:105DE000F86E1F0EF76403D00800F55007D06F005F
:105DF000DBFFE1FF6F00DFFFE2FFE750016E000E07
:105E0000026E010EC2EC30F0092A09500524076E1B
:105E1000000E0620086E60001FF0F6FF600023F001
:105E2000F7FF000EF86E1F0EF76403D00800F55060
:105E300007D06F00DBFFE1FF6F00DFFFE2FFE750FD
:105E40000009D8B426EF2FF028EF2FF030EF2FF015
:105E50000928D8A42EEF2FF030EF2FF0E3EF2EF02B
:105E600012001E501F1020102110D8B43AEF2FF04E
:105E70003CEF2FF06CEF2FF0010E226E46EF2FF06B
:105E8000D8901E361F3620362136222A21AE4BEFFF
:105E90002FF04DEF2FF040EF2FF01E501A5C1F50E7
:105EA0001B5820501C5821501D58D8A05AEF2FF0D5
:105EB0005CEF2FF064EF2FF01E501A5E1F501B5A3C
:105EC00020501C5A21501D5AD890213220321F32A6
:105ED0001E32222E4DEF2FF0600068F01AF06000A5
:105EE0006CF01BF0600070F01CF0600074F01DF0AE
:105EF00012006000F8F25DF06000FCF25EF0000E4F
:105F00000001E86F000EE76F9DEF2FF06000F0F2E8
:105F1000A4F06000F4F2A5F05D0EA66F000EA76F6E
:105F2000600000F3A8F0600004F3A9F033EC1BF06C
:105F30000001A451E727A551E823600077F1F6FF9F
:105F400060007BF1F7FF000EF86E0800F5500009C5
:105F5000D8A4ADEF2FF0AFEF2FF086EF2FF0600059
:105F60009CF3BCF06000A0F3BDF0120060000CF0E8
:105F700007F0600010F008F0600004F009F0600025
:105F800008F00AF00750056E0850066E074A082A06
:105F9000600017F0F6FF60001BF0F7FF000EF86ED0
:105FA000600027F0D9FF60002BF0DAFF094A0A2AC7
:105FB0001F0EF76403D00800F55007D06F00DBFF19
:105FC000E1FF6F00DFFFE2FFE750DF6EDF50D8A494
:105FD000ECEF2FF0EEEF2FF0C2EF2FF01200000EDB
:105FE000096E000E0A6E000E0B6E000E0C6E01A004
:105FF000FCEF2FF0FEEF2FF006EF30F005500926F2
:1060000006500A2207500B2208500C22D890053661
:10601000063607360836D89004320332023201328F
:106020000150021003100410D8A419EF30F01BEF38
:1060300030F0F7EF2FF0600024F001F0600028F05E
:1060400002F060002CF003F0600030F004F0120069
:106050000A6E330E016E000E026E000EC2EC30F0BE
:10606000330E016E000E026E000EC2EC30F0330EE5
:10607000016E000E026E000EC2EC30F00A500A24CF
:1060800005100409016E000E026E000EC2EC30F025
:10609000D8900634096E0844E846FC0B0910071036
:1060A0000809016E000E026E000EC2EC30F0010E07
:1060B000016E010E026E000EC2EC30F01200BF0E37
:1060C000096EFF0E0A6E60001CF00BF0600020F0FD
:1060D0000CF009500B260A500C220C500AE11A0E43
:1060E0000B5CD8A076EF30F079EF30F0010E7AEF4C
:1060F00030F0000E0D6E0E6A0D500E10D8B483EF06
:1061000030F085EF30F08CEF30F0200E0710076E86
:106110000850086E92EF30F060001CF007F060004D
:1061200020F008F01200000E551A000E561A000E4C
:10613000571A800E581A600044F10FF0600048F1C1
:1061400010F060004CF111F0600050F112F06000AE
:1061500054F113F0600058F114F060005CF115F098
:10616000600060F116F0A2EC1EF060003CF051F00F
:10617000600040F052F0600044F053F0600048F0DE
:1061800054F01200046ECE84CE9204B002D0CE90B1
:1061900001D0CE80350EE82EFED700F0600007F06B
:1061A000CAFF350EE82EFED700F0CE94350EE82E4D
:1061B000FED700F0CE840250D8B4E1EF30F0E3EF28
:1061C00030F0ECEF30F02A0E036E8E0EE82EFED784
:1061D000032EFCD7F0EF30F0A00E00D0E82EFDD754
:1061E0001200C60E0001CC6F000ECD6F600008F3E8
:1061F000CEF060000CF3CFF0000ED16F000ED06F28
:10620000000ED36F000ED26FCE0EBC6F000EBD6FAE
:10621000600010F3BEF0600014F3BFF0CC0EC06F4E
:10622000000EC16F79EC2FF00001D051C225D96E5C
:10623000D151C321DA6E000EDF6E1200010E076E1F
:10624000200E01180210D8B428EF31F02AEF31F0F7
:1062500045EF31F0F70E036EFF0E046E600004F0A0
:1062600005F0600008F006F00350052604500622F1
:10627000065009E1050E055CD8A041EF31F043EF6F
:1062800031F045EF31F0000E076E60001CF001F0B8
:10629000026A1200000E106E000E0F6E5EEF31F0FB
:1062A000600038F001F0026A600030F003F0600036
:1062B00034F004F00AEC2DF00F4A102A0F500A2493
:1062C000D96E10500B20DA6EDF500E6E0E50D8A42F
:1062D0006CEF31F06EEF31F050EF31F01200015001
:1062E000021003100410D8B478EF31F07AEF31F0D7
:1062F00082EF31F0000E011A000E021A000E031A8E
:10630000800E041A600004F001F0600008F002F052
:1063100060000CF003F0600010F004F01200600068
:1063200004F003F0600008F004F099EF31F0014A46
:10633000022A600007F0D9FF60000BF0DAFFDF509F
:10634000D8A4A5EF31F0A7EF31F097EF31F003506B
:10635000015C016E04500258026E1200BF0E036E03
:10636000FF0E046E600004F005F0600008F006F017
:10637000035005260450062206500AE11A0E055C59
:10638000D8A0C5EF31F0C8EF31F0010EC9EF31F000
:10639000000E016E026A1200D00E036EFF0E046E34
:1063A000600004F005F0600008F006F003500526D8
:1063B0000450062206500AE10A0E055CD8A0E3EF5D
:1063C00031F0E6EF31F0010EE7EF31F0000E016E33
:1063D000026A12004C0EF66E640EF76E000EF86E36
:1063E00009006F00D4FF5FF000EE00F1720EEE6A5C
:1063F000E806FDE100EEDFF0100EEE6AE806FDE1D2
:106400000001C3EF29F0015003026F00CCFF05F03B
:106410006F00D0FF06F001500402F3500626025030
:106420000302F3500626600014F001F0600018F03B
:1064300002F01200056E05507F0B8009016E000E00
:0D644000026E000EC2EC30F012001200FFE0
:020000040001F9
:04FFFC00EAEF31F007
:020000040020DA
:10000000FF0FFF0FFF0FFF0FFF0FFF0FFF0FFF0F80
:020000040030CA
:0A0000008CFDEFF79FFFFFFFFFFFED
:00000001FF
