:020000040000FA
:04000000FEEFFFF020
:1020000000000000000000BC022602C2012C01C832
:102010000078004B003200230019000F000A00076F
:10202000001600040D00426174746572793A20252F
:10203000332E306625252020200046756C6C204309
:1020400068673A2025332E3066252520200046611A
:102050007374204368673A2025332E306625252087
:102060002000436867206661756C743A2025332E22
:102070003066252520004F66662020202020202065
:102080002020202020200050616972696E67202086
:102090002020202020202000436F6E6E6563746531
:1020A0006420202020202020004E6F204261747484
:1020B000657279202020202020004E6F7420636FED
:1020C0006E6E65637465642020200048656C6C6FDB
:1020D00020576F726C642100494E46004E414E00FD
:1020E000696E66006E616E006C660000000E000195
:1020F000866F000E856F600084F197F0600088F1B4
:1021000098F060008CF199F0600090F19AF09AAF2D
:102110001ED0000E866F010E856F60005CF201F02C
:10212000600060F202F0600064F203F0600068F2A8
:1021300004F030EC31F0600004F097F0600008F03B
:1021400098F060000CF099F0600010F09AF0000E2A
:102150009E6F000E9D6F6100F8F08AF06100FCF048
:102160008BF085518611D8A403D0040142A515D067
:10217000000185518611D8A404D0000E706F2B0E7B
:1021800003D0000E706F2D0E6F6F6000BCF14CF429
:102190009D4B9E2B8A07D8A08B0760005CF201F054
:1021A000600060F202F0600064F203F0600068F228
:1021B00004F0DEEC29F001040210D8A453D0BF0EC5
:1021C0000001666FFF0E676F6551686F696B66513E
:1021D000682767516923695106E11A0E685DD8B016
:1021E00002D0010E01D0000E716F726B715172112D
:1021F000D8B40FD04C0E9D25016E040E9E21026EA8
:10220000D80E036E0350D8A4200E046EC4EC2FF039
:102210000ED04C0E9D25016E040E9E21026EE00E26
:10222000036E0350D8A4200E046EC4EC2FF00001FE
:10223000FD0E8A27FF0E8B23600080F10FF04C0EFD
:10224000106E040E116E600028F212F060002CF285
:1022500013F0ABEC2CF060003CF060F0600040F05C
:1022600061F0120060005CF201F0600060F202F0C8
:10227000600064F203F0600068F204F0DEEC29F024
:1022800001500210D8A439D0BF0E0001666FFF0EB6
:10229000676F6551686F696B66516827675169237D
:1022A000695106E11A0E685DD8B002D0010E01D066
:1022B000000E736F746B73517411D8B40FD04C0E41
:1022C0009D25016E040E9E21026EDC0E036E0350EE
:1022D000D8A4200E046EC4EC2FF0A9D74C0E9D2577
:1022E000016E040E9E21026EE40E036E0350D8A40C
:1022F000200E046EC4EC2FF09AD7000E00019F6FE1
:10230000000EA06F800EA16F3F0EA26F000E9C6F9B
:10231000000E9B6F60005CF201F0600060F202F062
:10232000600064F203F0600068F204F0000E056ED5
:10233000000E066E000E076E000E086E92EC2DF079
:10234000D8A026D09AD060007CF238F0600080F2ED
:1023500039F0600084F23AF0600088F23BF0000E41
:102360003C6E000E3D6E200E3E6E410E3F6ED4EC74
:1023700020F06000E0F09FF06000E4F0A0F060006A
:10238000E8F0A1F06000ECF0A2F000019B4B9C2B68
:1023900060005CF251F0600060F252F0600064F2A4
:1023A00053F0600068F254F0000E3C6E000E3D6E7B
:1023B000200E3E6E410E3F6E60007CF238F06000F1
:1023C00080F239F0600084F23AF0600088F23BF06D
:1023D000D4EC20F06000E0F055F06000E4F056F03E
:1023E0006000E8F057F06000ECF058F031EC2BF0B2
:1023F000D8A027D0A8D760007CF21FF0600080F240
:1024000020F0600084F221F0600088F222F0000EDB
:10241000236E000E246E200E256E410E266E3AECC1
:1024200024F060007CF09FF0600080F0A0F060007D
:1024300084F0A1F0600088F0A2F000019B07D8A012
:102440009C0760005CF251F0600060F252F06000A6
:1024500064F253F0600068F254F060007CF255F0D2
:10246000600080F256F0600084F257F0600088F25D
:1024700058F031EC2BF0D8A0BED7600094F107F0F3
:10248000086A81EC30F0075000018C6F600030F278
:1024900089F0670E8C19D8A41DD004014051411158
:1024A000D8A404D0000E416F010E406F41BF05D08B
:1024B000415109E14005D8B006D0000E0001886FF7
:1024C000060E876F0BD0610000F187F0610004F108
:1024D00088F004D0040141AFF6D7EFD7670E0001B2
:1024E0008C19D8A424D09CAF06D0FC0E9B5DFF0EA7
:1024F0009C59D8A01AD0FF0E666FFF0E676F600060
:102500001CF268F0600020F269F06651682767519C
:1025100069239B51685D6951800A6A6F9C51800AEA
:102520006A59D8A002D0660E01D0650E896F60008E
:102530001CF27FF0600020F280F0670E8C19D8A4A6
:1025400005D0660E8919D8B49CAF02D07F4B802B82
:10255000660E8919D8A416D09CAF0CD0000E9F6FC0
:10256000000EA06F800EA16F3F0EA26F000E9C6F39
:10257000000E9B6F670E8C19D8B404D09B517F2737
:102580009C518023000E966F000E956F60005CF2E8
:102590008DF0600060F28EF0600064F28FF06000F9
:1025A00068F290F060007CF26BF0600080F26CF0FA
:1025B000600084F26DF0600088F26EF0ADD06000D3
:1025C00034F21FF0600038F220F060003CF221F09D
:1025D000600040F222F060007CF223F0600080F2A4
:1025E00024F0600084F225F0600088F226F03AECD6
:1025F00024F060007CF038F0600080F039F060007A
:1026000084F03AF0600088F03BF090EC25F0600038
:10261000E0F091F06000E4F092F06000E8F093F0F8
:102620006000ECF094F0600044F201F0600048F2C9
:1026300002F060004CF203F0600050F204F099ECFC
:102640002BF0600004F083F0600008F084F060007C
:1026500034F251F0600038F252F060003CF253F076
:10266000600040F254F060007CF23CF0600080F2C8
:102670003DF0600084F23EF0600088F23FF06000C0
:1026800044F238F0600048F239F060004CF23AF061
:10269000600050F23BF0D4EC20F06000E0F055F028
:1026A0006000E4F056F06000E8F057F06000ECF0F5
:1026B00058F0F8EC2FF0600044F18DF0600048F124
:1026C0008EF060004CF18FF0600050F190F06000EF
:1026D0007CF21FF0600080F220F0600084F221F0B4
:1026E000600088F222F0000E236E000E246E200E91
:1026F000256E410E266E3AEC24F060007CF09FF0CF
:10270000600080F0A0F0600084F0A1F0600088F02C
:10271000A2F00001954B962B7F51955D9651800A52
:10272000666F8051800A6659D8A049D760007CF254
:1027300038F0600080F239F0600084F23AF0600016
:1027400088F23BF0000E3C6E000E3D6EA00E3E6E19
:10275000400E3F6ED4EC20F06000E0F091F060009D
:10276000E4F092F06000E8F093F06000ECF094F098
:10277000600034F251F0600038F252F060003CF238
:1027800053F0600040F254F0600044F255F06000F5
:1027900048F256F060004CF257F0600050F258F0EA
:1027A00031EC2BF0D8B003D0000E000120D0600037
:1027B00034F201F0600038F202F060003CF203F005
:1027C000600040F204F0600044F205F0600048F25E
:1027D00006F060004CF207F0600050F208F092EC56
:1027E0002DF0D8A00BD0000183B108D0000E916F5E
:1027F000000E926F000E936F000E946F60005CF2FB
:102800000FF0600060F210F0600064F211F0600000
:1028100068F212F0600044F213F0600048F214F025
:1028200060004CF215F0600050F216F096EC22F0C9
:1028300060003CF08DF0600040F08EF0600044F0ED
:102840008FF0600048F090F06000ACF19FF0600005
:10285000B0F1A0F06000B4F1A1F06000B8F1A2F016
:10286000650E00018919D8B407D060006CF281F0C0
:10287000600070F282F004D0000E826F000E816F53
:10288000000E7E6F000E7D6F000E7C6F000E7B6F62
:10289000000E966F000E956FFAD0600034F21FF0B4
:1028A000600038F220F060003CF221F0600040F25D
:1028B00022F060007CF223F0600080F224F06000DF
:1028C00084F225F0600088F226F03AEC24F06000F3
:1028D0007CF038F0600080F039F0600084F03AF06D
:1028E000600088F03BF090EC25F06000E0F091F0A3
:1028F0006000E4F092F06000E8F093F06000ECF02B
:1029000094F0600044F201F0600048F202F06000D0
:102910004CF203F0600050F204F099EC2BF06000F0
:1029200004F083F0600008F084F0040142B90DD097
:10293000000183518411D8A408D0670E8C19D8B433
:1029400082AF03D07B4B7C2B3AD000017D517E11AE
:10295000D8B482AF22D04C0E9D25D96E040E9E2194
:10296000DA6E2E0EDF6E9D4B9E2B8A07D8A08B074A
:10297000000E7E6F010E7D6F10D04C0E9D25D96E1E
:10298000040E9E21DA6E300EDF6E9D4B9E2B8A0761
:10299000D8A08B077B07D8A07C077B517C11D8A4DB
:1029A000ECD74C0E9D25D96E040E9E21DA6E835114
:1029B000300FDF6E9D4B9E2B8A07D8A08B076000DF
:1029C00034F251F0600038F252F060003CF253F003
:1029D000600040F254F060007CF23CF0600080F255
:1029E0003DF0600084F23EF0600088F23FF060004D
:1029F00044F238F0600048F239F060004CF23AF0EE
:102A0000600050F23BF0D4EC20F06000E0F055F0B4
:102A10006000E4F056F06000E8F057F06000ECF081
:102A200058F0F8EC2FF0600044F18DF0600048F1B0
:102A30008EF060004CF18FF0600050F190F060007B
:102A40007CF21FF0600080F220F0600084F221F040
:102A5000600088F222F0000E236E000E246E200E1D
:102A6000256E410E266E3AEC24F060007CF09FF05B
:102A7000600080F0A0F0600084F0A1F0600088F0B9
:102A8000A2F000018107D8A08207954B962B7F51B9
:102A9000955D9651800A666F8051800A6659D8B05C
:102AA00008D09EBFFAD69E5104E14B0E9D5DD8A082
:102AB000F4D67D517E11D8A40ED0040142A90BD0CA
:102AC0004C0E00019D25D96E040E9E21DA6E2E0E4D
:102AD000DF6E9D4B9E2B4C0E00019D25D96E040E82
:102AE0009E21DA6E000EDF6E650E8919D8A41CEFE8
:102AF00011F0000E966F4F0E956F4C0E9525D96E06
:102B0000040E9621DA6E000EDF6E000E866F000E48
:102B1000856F9CAF08D0000E866F010E856F9B6D90
:102B20009C1FD8B09C2B000E886F020E876F30D090
:102B30009507D8A096074C0E9525D96E040E9621C0
:102B4000DA6E60006CF201F0600070F202F0000ECC
:102B5000046E0A0E036E1AEC2FF00150300FDF6E78
:102B600060006CF201F0600070F202F0000E046E82
:102B70000A0E036E1CEC2EF0600004F09BF0600067
:102B800008F09CF08707D8A088078A07D8A08B0791
:102B90009B519C11D8A4CCD788BF05D08851C8E1DF
:102BA0008705D8B0C5D79507D8A096078551861157
:102BB000D8A404D0000E766F2B0E03D0000E766FD3
:102BC0002D0E756F4C0E9525D96E040E9621DA6E7A
:102BD0006000D7F1DFFF8A07D8A08B079507D8A040
:102BE0009607BF0E666FFF0E676F6551686F696B62
:102BF0006651682767516923695106E11A0E685DBD
:102C0000D8B002D0010E01D0000E796F7A6B7951E5
:102C10007A11D8A404D0000E786F650E03D0000E90
:102C2000786F450E776F4C0E9525D96E040E962160
:102C3000DA6E6000DFF1DFFF8A07D8A08B074C0E49
:102C40009D25016E040E9E21026E4C0E9525036E8D
:102C5000040E9621046EC4EC2FF01CEF11F0150E3B
:102C60003E01F16FF88104D0050EE82EFED700F08A
:102C70003E01F8B1F9D7EF516F00C0FBC7F000017A
:102C8000C86B60001CF3C8F0C76BC713000EC813F5
:102C9000F70EC725F66FF90EC821F76FF7BF07D0FB
:102CA0006000D8F3F2F06000DCF3F3F010D06000C5
:102CB000D8F3C7F06000DCF3C8F0C71FC81FC74BCC
:102CC000C82B60001CF3F2F0600020F3F3F060000A
:102CD000C8F3C7F06000CCF3C8F0000EC8BFFF0E09
:102CE000C96FCA6FC751040134270001C8510401DC
:102CF00035230001C951040136230001CA510401E2
:102D000037236100E0F00EF06100E4F00FF06100A5
:102D1000E8F010F06100ECF011F0320E126E000ECF
:102D2000136E000E146E000E156E8DEC2FF0310E2A
:102D30000E180F1010101110D8A448D2D89004010A
:102D40003435016E3535026E3635036E3735046E17
:102D5000320E056E000E066E000E076E000E086E37
:102D6000D7EC2DF0600004F0F8F0600008F0F9F006
:102D700060000CF0FAF0600010F0FBF0F70E0001BC
:102D8000F827FF0EF923FF0EFA23FF0EFB23FBAFFC
:102D900008D0000EF86F000EF96F000EFA6F000EEB
:102DA000FB6F6100C0F001F06100C4F002F061004F
:102DB000C8F003F06100CCF004F0140E056E000EB4
:102DC000066E000E076E000E086ED7EC2DF0600048
:102DD00004F0DEF0600008F0DFF060000CF0E0F0DE
:102DE000600010F0E1F00001DE51F85D016EDF518E
:102DF000F959026EE051FA59036EE151FB59046E24
:102E000004014B51020DF350010F0001C76F600028
:102E10001FF3F6FF200EF76E000EF86E09006F002C
:102E2000D4FFC8F009006F00D4FFC9F0600020F3A0
:102E300005F0600024F306F0076A086A27EC30F01A
:102E4000600004F0FCF0600008F0FDF060000CF0A1
:102E5000FEF0600010F0FFF004014951D8B49FD09B
:102E6000040E4B610AD09FBF08D09F519E119D1147
:102E700003E1190E9C5DD8B092D00001FFBF8FD046
:102E8000FF51FE1106E1D10EFC5D070EFD59D8A0E1
:102E900086D0610010F1C7F0610014F1C8F0000E97
:102EA000C8BFFF0EC96FCA6FC751FC5DC851FD593D
:102EB000C951FE59FF51800ACB6FCA51800ACB59C4
:102EC000D8A00DD06000F0F3E6F06000F4F3E7F076
:102ED0006000F8F3E8F06000FCF3E9F00BD061006B
:102EE00010F1E6F0610014F1E7F0000EE7BFFF0E0D
:102EF000E86FE96FE9BF07D0E951E81142E1100E30
:102F0000E75DD8B03ED0610010F1C7F0610014F168
:102F1000C8F0000EC8BFFF0EC96FCA6FC751FC5D75
:102F2000C851FD59C951FE59FF51800ACB6FCA5192
:102F3000800ACB59D8A00DD06000F0F3EAF0600011
:102F4000F4F3EBF06000F8F3ECF06000FCF3EDF06C
:102F50000BD0610010F1EAF0610014F1EBF0000E0B
:102F6000EBBFFF0EEC6FED6F6000A8F3E2F06000C6
:102F7000ACF3E3F06000B0F3E4F06000B4F3E5F02C
:102F800008D0FF0EE26F0F0EE36F000EE46F000E2D
:102F9000E56F600088F344F460008CF345F4610051
:102FA00010F160F0610014F161F00001000E61BFEA
:102FB000FF0E626F636F6100E0F064F06100E4F0A7
:102FC00065F06100E8F066F06100ECF067F022EC7B
:102FD0001BF0FF0E0001C76FFF0EC86F610010F1FC
:102FE00001F0610014F102F0000E046E640E036E35
:102FF0001CEC2EF0610010F1C9F0610014F1CAF070
:103000000150C95F0250CA5BC751C927C851CA23C2
:10301000CABF05D0CA5109E1C905D8B006D0000E13
:103020000401456F000E446F1FD0610010F101F0E4
:10303000610014F102F0000E046E640E036E1CECCD
:103040002EF0610010F1C7F0610014F1C8F00150DA
:10305000C75F0250C85BFF0EC7250401446FFF0E17
:103060000001C8210401456F000E346F000E356F5A
:10307000000E366F000E376F320E056E000E066EB4
:10308000000E076E000E086E6100E0F001F06100B6
:10309000E4F002F06100E8F003F06100ECF004F00D
:1030A000D7EC2DF0600004F00EF0600008F00FF097
:1030B00060000CF010F0600010F011F0140E126EB1
:1030C000000E136E000E146E000E156E8DEC2FF0B8
:1030D000D8900E360F36000E0E24D96E040E0F2037
:1030E000DA6E6F0078FFC7F06F0074FFC8F0000160
:1030F000C751C96FC851CA6FCB6BCC6BC9510401A2
:10310000305F0001CA510401315B0001CB51040161
:10311000325B0001CC510401335B0001F851040122
:1031200030270001F951040131230001FA51040153
:1031300032230001FB5104013323320E056E000ED1
:10314000066E000E076E000E086E6100E0F001F0E2
:103150006100E4F002F06100E8F003F06100ECF0DF
:1031600004F0D7EC2DF0600004F00EF0600008F0E1
:103170000FF060000CF010F0600010F011F0140E71
:10318000126E000E136E000E146E000E156E8DEC96
:103190002FF0D8900E360F36000E0E24D96E040E86
:1031A0000F20DA6E6000E3F3DEFF6000E7F3DDFF7F
:1031B0006100E0F01BF06100E4F01CF06100E8F059
:1031C0001DF06100ECF01EF054EC2AF06100E0F01C
:1031D0000EF06100E4F00FF06100E8F010F0610023
:1031E000ECF011F0E80E126E030E136E000E146E6A
:1031F000000E156E8DEC2FF0E70E0E1834E1030E65
:103200000F1810101110D8A42ED0CCB204D0000189
:10321000C76BC72B02D00001C76BCC50C719FE0B80
:10322000C719CC6E160E3E01F16FF30EF817F88138
:1032300004D0050EE82EFED700F03E01F8B1F9D714
:103240006F00C0FBC7F00001D890C733D890C733D8
:10325000C75104019C6F9D6B9E6B9F6B3E01F851A3
:10326000F30B0409F86F6100E0F00EF06100E4F088
:103270000FF06100E8F010F06100ECF011F0100EBA
:10328000126E270E136E000E146E000E156E8DEC6E
:103290002FF00F0E0E1841E1270E0F18101011100D
:1032A000D8A43BD0210E0C6E0C50D8A4200E0D6E6D
:1032B000030E0E6EDFEC2EF0400EC9EC31F004016F
:1032C0004A51D8B409D0870E056E0550D8A4200EF7
:1032D000066E4BEC2DF04AD04851D8B409D0980E68
:1032E000056E0550D8A4200E066E4BEC2DF03ED096
:1032F0004751D8B409D0BA0E056E0550D8A4200E97
:10330000066E4BEC2DF032D0760E056E0550D8A42B
:10331000200E066E4BEC2DF029D06100E0F00EF08F
:103320006100E4F00FF06100E8F010F06100ECF0F3
:1033300011F0100E126E270E136E000E146E000E9A
:10334000156E8DEC2FF0870E0E1810E1130E0F186E
:1033500010101110D8A40AD0240E0C6E0C50D8A452
:10336000200E0D6E020E0E6EDFEC2EF0010E04012B
:103370003827000E39233A233B233B5108E1A00EA6
:10338000385D860E3959010E3A59D8A053D11B0E1B
:103390003E01F16FF88104D0050EE82EFED700F053
:1033A0003E01F8B1F9D7EF516F00C0FBC7F0000143
:1033B000C86B60001CF3C8F0C76BC711F46FC8512D
:1033C000F56F6000D0F301F06000D4F302F0036AFF
:1033D000046A000EA9EC28F0600004F051F06000CF
:1033E00008F052F060000CF053F0600010F054F060
:1033F000000E556EC00E566EF80E576E440E586E87
:1034000031EC2BF0D8B011D0000E0401A06F000EEB
:10341000A16FC80EA26F420EA36FCD0E0001B96F4F
:10342000A90EBA6FF6EC30F0F4D0000E236E800EC9
:10343000246E620E256E440E266E000E136EA00ED4
:10344000146E020E156EC50E166E6000D0F301F0FC
:103450006000D4F302F0036A046A000EA9EC28F0BD
:10346000600004F00FF0600008F010F060000CF055
:1034700011F0600010F012F096EC22F060003CF0C9
:103480001FF0600040F020F0600044F021F0600088
:1034900048F022F03AEC24F060007CF038F0600054
:1034A00080F039F0600084F03AF0600088F03BF082
:1034B000000E3C6E000E3D6EC80E3E6E420E3F6E1C
:1034C000D4EC20F06000E0F0A0F46000E4F0A1F49F
:1034D0006000E8F0A2F46000ECF0A3F40401A3BFE4
:1034E0003BD0000E516E000E526EC80E536E420E4F
:1034F000546E610080F255F0610084F256F0610074
:1035000088F257F061008CF258F031EC2BF0D8A023
:103510000DD0610080F2EEF0610084F2EFF0610006
:1035200088F2F0F061008CF2F1F009D0000E000199
:10353000EE6F000EEF6FC80EF06F420EF16F60007D
:10354000B8F3A0F46000BCF3A1F46000C0F3A2F4EF
:103550006000C4F3A3F408D0000EA06F000EA16FAA
:10356000000EA26F000EA36FCDB414D0CD0E0001DB
:10357000B96F620EBA6F610080F2BBF0610084F235
:10358000BCF0610088F2BDF061008CF2BEF0F6EC98
:1035900030F03FD0CDB214D0CD0E0001B96F3A0E4D
:1035A000BA6F610080F2BBF0610084F2BCF0610090
:1035B00088F2BDF061008CF2BEF0F6EC30F029D05C
:1035C000CDB014D0CD0E0001B96F4E0EBA6F6100B0
:1035D00080F2BBF0610084F2BCF0610088F2BDF0C3
:1035E00061008CF2BEF0F6EC30F013D0CD0E00018D
:1035F000B96F260EBA6F610080F2BBF0610084F2F1
:10360000BCF0610088F2BDF061008CF2BEF0F6EC17
:1036100030F0000EC9EC31F0CD0E056E066A4BECB1
:103620002DF0000E0401386F000E396F000E3A6F56
:10363000000E3B6FF7EC27F00400350EE82EFED7A6
:1036400000F0120063BF2BD063BF07D0635162113B
:1036500011E1100E615DD8B00DD0600080F178F0FE
:10366000600084F179F0600088F17AF060008CF1FC
:103670007BF008D0FF0E786F0F0E796F000E7A6F17
:10368000000E7B6F6000E0F174F06000E4F175F013
:103690006000E8F176F06000ECF177F008D0000E01
:1036A000746F000E756F000E766F000E776F6000FE
:1036B000D0F184F06000D4F185F0600010F270F079
:1036C000600014F271F0726B736BD8908531696F82
:1036D0008431686FFF0E6A6F070E6B6F68516A5F07
:1036E00069516B5B6000A8F186F06000ACF187F077
:1036F000886B896BD8908531696F8431686FFF0E54
:103700006A6F070E6B6F68516A5F69516B5B60008F
:10371000A8F18AF06000ACF18BF08C6B8D6B67BF09
:1037200009D0675166111DE1A80E645D610E6559EF
:10373000D8B017D0600090F10DF0600094F10EF059
:10374000600098F10FF060009CF110F0320E116EE5
:10375000000E126E000E136E000E146EC7EC2AF0EF
:1037600039D067BF0AD067511FE1F80E645D240E9F
:103770006559010E6659D8B017D0645150080D6EC6
:10378000C30E65550E6E000E66550F6E000E675522
:10379000106E320E116E000E126E000E136E000EC1
:1037A000146EC7EC2AF016D0600E64250D6E790EEB
:1037B00065210E6EFE0E66210F6EFF0E6721106EE4
:1037C000320E116E000E126E000E136E000E146E8D
:1037D000C7EC2AF0600034F09AF0600038F09BF0FB
:1037E00060003CF09CF0600040F09DF000019A51B8
:1037F0008625686F9B518721696F9C5188216A6F6C
:103800009D5189216B6F0C0E68256C6FFE0E69212E
:103810006D6FFF0E6A216E6FFF0E6B216F6F6FBFB2
:103820004ED09A518625686F9B518721696F9C51B4
:1038300088216A6F9D5189216B6F0C0E68256C6F12
:10384000FE0E69216D6FFF0E6A216E6FFF0E6B21F8
:103850006F6F6FBF07D06F516E111CE1100E6D5D61
:10386000D8B018D09A518625686F9B518721696F0F
:103870009C5188216A6F9D5189216B6F0C0E6825C0
:103880007C6FFE0E69217D6FFF0E6A217E6FFF0E39
:103890006B2107D0FF0E7C6F0F0E7D6F000E7E6FC9
:1038A000000E7F6F6000F0F186F06000F4F187F0A9
:1038B0006000F8F188F06000FCF189F008D0000E9B
:1038C000866F000E876F000E886F000E896F9A5109
:1038D0008A5D686F9B518B59696F9C518C596A6FD7
:1038E0009D518D596B6F0C0E68256C6FFE0E692112
:1038F0006D6FFF0E6A216E6FFF0E6B216F6F6FBFD2
:103900004ED09A518A5D686F9B518B59696F9C515B
:103910008C596A6F9D518D596B6F0C0E68256C6FB9
:10392000FE0E69216D6FFF0E6A216E6FFF0E6B2117
:103930006F6F6FBF07D06F516E111CE1100E6D5D80
:10394000D8B018D09A518A5D686F9B518B59696FB6
:103950009C518C596A6F9D518D596B6F0C0E682567
:10396000806FFE0E6921816FFF0E6A21826FFF0E4C
:103970006B2107D0FF0E806F0F0E816F000E826FDC
:10398000000E836F600000F28AF0600004F28BF09A
:10399000600008F28CF060000CF28DF008D0000E90
:1039A0008A6F000E8B6F000E8C6F000E8D6F0401FE
:1039B0004751D8B4FED06000C0F101F06000C4F1FE
:1039C00002F06000C8F103F06000CCF104F0610087
:1039D00070F205F0610074F206F0610078F207F011
:1039E00061007CF208F027EC30F0600004F00DF08C
:1039F000600008F00EF060000CF00FF0600010F0B6
:103A000010F02C0E116E010E126E000E136E000ED1
:103A1000146EC7EC2AF0600034F096F0600038F0C5
:103A200097F060003CF098F0600040F099F00001E1
:103A300099AF04D0000E966F000E0CD099BF0FD036
:103A40009951981104E1100E975DD8A008D0FF0E8F
:103A5000966F0F0E976F000E986F000E996F6000B3
:103A600018F201F060001CF202F0600020F203F096
:103A7000600024F204F0610070F205F0610074F25D
:103A800006F0610078F207F061007CF208F027ECA4
:103A900030F0600004F00DF0600008F00EF06000FF
:103AA0000CF00FF0600010F010F02C0E116E010EF3
:103AB000126E000E136E000E146EC7EC2AF060003A
:103AC00034F08EF0600038F08FF060003CF090F041
:103AD000600040F091F0000191AF09D0000E8E6FB0
:103AE000000E8F6F000E906F000E916F11D091BF7E
:103AF0000FD09151901104E1100E8F5DD8A008D025
:103B0000FF0E966F0F0E976F000E986F000E996F55
:103B1000600028F201F060002CF202F0600030F248
:103B200003F0600034F204F0610070F205F061000F
:103B300074F206F0610078F207F061007CF208F0A0
:103B400027EC30F0600004F00DF0600008F00EF09B
:103B500060000CF00FF0600010F010F02C0E116EF1
:103B6000010E126E000E136E000E146EC7EC2AF0DA
:103B7000600034F092F0600038F093F060003CF0A8
:103B800094F0600040F095F0000195BF23D095BF00
:103B900029D09551941104E1100E935DD8A022D044
:103BA000FF0E966F0F0E976F000E986F000E996FB5
:103BB00019D0000E0001966F000E976F000E986FDF
:103BC000000E996F000E8E6F000E8F6F000E906FBB
:103BD000000E916F000E926F000E936F000E946FA7
:103BE000000E956F04014A51D8B436D0600090F1B0
:103BF00001F0600094F102F0600098F103F06000C1
:103C00009CF104F0100E056E270E066E000E076E76
:103C1000000E086EFEEC2BF004BE09D00450031019
:103C20001BE1E80E015C030E0258D8B015D0000E5F
:103C30000001966F000E976F000E986F000E996F3F
:103C4000000E8E6F000E8F6F000E906F000E916F42
:103C5000FF0E926F0F0E6ED0610080F251F0610086
:103C600084F252F0610088F253F061008CF254F05B
:103C7000000E556E000E566EA00E576E400E586E1A
:103C800031EC2BF0D8B05BD0600090F101F0600017
:103C900094F102F0600098F103F060009CF104F0F0
:103CA000100E056E270E066E000E076E000E086ED3
:103CB000FEEC2BF004BE43D00450031006E1880E46
:103CC000015C130E0258D8A03AD0600090F101F0C8
:103CD000600094F102F0600098F103F060009CF144
:103CE00004F0100E056E270E066E000E076E000E15
:103CF000086EFEEC2BF004BE09D0045003101FE147
:103D0000700E015C170E0258D8B019D0FF0E0001DA
:103D1000966F0F0E976F000E986F000E996F000E42
:103D20008E6F000E8F6F000E906F000E916F000E61
:103D3000926F000E936F000E946F000E956F6000EF
:103D40005FF275FF60005BF274FF60003FF279FF85
:103D500060003BF278FF60004FF271FF60004BF2B1
:103D600070FF12005E50D96EDA6A6F007FFFF6FFB7
:103D7000200EF76E000EF86E0800F550250AD8A444
:103D8000FBD15E50D96EDA6ADF2A000E04013F6F64
:103D9000000E3E6F3EC442F43FC443F440694169A3
:103DA0005E50D96EDA6A6F007FFFF6FF200EF76E65
:103DB000000EF86E0800F5502A0AD8A41AD05E50FA
:103DC000D96EDA6ADF2A5F50D96EDA6A020EDF2610
:103DD000DF5CD96EDA6A6F0078FF3EF46F0078FF1F
:103DE0003FF43FAF3ED042813E6D3F1FD8B03F2BE6
:103DF00038D05E50D96EDA6ADF50086E41EC27F099
:103E0000600020F03EF4600024F03FF404D05E50E7
:103E1000D96EDA6ADF2AD00E0001A36FFF0EA46FFD
:103E20005E50D96EDA6A6F007FFFF6FF200EF76EE4
:103E3000000EF86E0800F550A56FA66BA351A527DC
:103E4000A451A623A65106E10A0EA55DD8B002D062
:103E5000010E01D0000EA76FA86BA751A811D8A41E
:103E6000D6D75E50D96EDA6A6F007FFFF6FF200E5C
:103E7000F76E000EF86E0800F5502E0AD8A463D035
:103E8000000E0401416F000E406F5E50D96EDA6A79
:103E9000DF2A5E50D96EDA6A6F007FFFF6FF200ED0
:103EA000F76E000EF86E0800F5502A0AD8A413D059
:103EB0005E50D96EDA6ADF2A5F50D96EDA6A020E76
:103EC000DF26DF5CD96EDA6A6F0078FF40F46F009E
:103ED00078FF41F438D05E50D96EDA6ADF50086E50
:103EE00041EC27F0600020F040F4600024F041F441
:103EF00004D05E50D96EDA6ADF2AD00E0001A36FBB
:103F0000FF0EA46F5E50D96EDA6A6F007FFFF6FF76
:103F1000200EF76E000EF86E0800F550A56FA66B28
:103F2000A351A527A451A623A65106E10A0EA55D1B
:103F3000D8B002D0010E01D0000EA96FAA6BA95112
:103F4000AA11D8A4D6D75E50D96EDA6A6F007FFF67
:103F5000F6FF200EF76E000EF86E0800F550076EA3
:103F6000086A81EC30F007500001AD6FAD51D8B454
:103F700031D05E50D96EDA6ADF50A36F010EA327ED
:103F800060008FF2F6FF200EF76E000EF86E08004C
:103F9000F550076E086A81EC30F007500001AE6FF3
:103FA000AE51D8B417D05E50D96EDA6ADF50A36F25
:103FB000020EA32760008FF2F6FF200EF76E000EB0
:103FC000F86E0800F550076E086A81EC30F0075073
:103FD0000001AF6F660EAD19D8A444D05E50D96E03
:103FE000DA6A6F007FFFF6FF200EF76E000EF86EA4
:103FF00008006F00D4FFB4F05E50D96EDA6ADF2A91
:104000005F50D96EDA6A6F007CFFA3F0040EDF26E2
:10401000A351D96EDA6A6F0078FFB0F06F0078FFB5
:10402000B1F06F0078FFB2F06F0078FFB3F060007E
:1040300074F160F06000C0F261F06000C4F262F000
:104040006000C8F263F06000CCF264F06000D0F26F
:1040500065F076EC10F0600080F15DF0600084F1B6
:104060005EF01200AD0E016EE80E026E000E046EE0
:10407000020E036E58EC2CF001500210D8A452D05E
:104080005E50D96EDA6ADF50A36F010EA32760007D
:104090008FF2F6FF200EF76E000EF86E08006F002C
:1040A000D4FFB4F0BF0EA36FFF0EA46F5E50D96EA5
:1040B000DA6A6F007FFFF6FF200EF76E000EF86ED3
:1040C0000800F550A56FA66BA351A527A451A62300
:1040D000A65106E11A0EA55DD8B002D0010E01D09E
:1040E000000EAB6FAC6BAB51AC115F50D96EDA6A9E
:1040F0006F007CFFA3F0040EDF26A351D96EDA6AAD
:104100006F0078FFB0F06F0078FFB1F06F0078FFBC
:10411000B2F06F0078FFB3F05E50D96EDA6A020E2B
:10412000DF2685D75E50D96EDA6A6F007FFFF6FF13
:10413000200EF76E000EF86E0800F550250AD8A480
:1041400012D05E50D96EDA6ADF2A000E026E250E9A
:10415000016E600074F103F060EC2EF0000E5E6EF4
:10416000010E5D6E12005E50D96EDA6ADF2A000E13
:104170005E6E000E5D6E12005E50D96EDA6A6F00E0
:104180007FFFF6FF200EF76E000EF86E0800F55068
:10419000016E026A600074F103F060EC2EF05E5074
:1041A000D96EDA6ADF2ADAD73B50800B446E3B5077
:1041B0003B244A6E3ABE4A804A50D8B40DD04A28B1
:1041C000D8A408D0000E386E000E396E000E3A6E7C
:1041D000000E3B6E3A8E08D0000E386E000E396E1F
:1041E000000E3A6E000E3B6E3F50800B441A3F505B
:1041F0003F24456E3EBE45804550D8B40DD045287D
:10420000D8A408D0000E3C6E000E3D6E000E3E6E2F
:10421000000E3F6E3E8E08D0000E3C6E000E3D6ECE
:10422000000E3E6E000E3F6E4550D8B403D04A508B
:10423000D8A409D0000E386E000E396E000E3A6E0A
:10424000000E3B6E12003E5038026F00CCFF4FF064
:104250006F00D0FF50F04F50466E476A486A496A77
:1042600050504B6E4C6A4D6A4E6A3D5039026F0099
:10427000CCFF4FF06F00D0FF50F04F504626000E9D
:1042800047224822492250504B26000E4C224D22F4
:104290004E223C503A026F00CCFF4FF06F00D0FF2F
:1042A00050F04F504626000E4722482249225050D7
:1042B0004B26000E4C224D224E22600020F149F088
:1042C00060001CF148F0600018F147F0466A3C506D
:1042D00039026F00CCFF4FF06F00D0FF50F04F500D
:1042E000462650504722000E4822000E49223D50DB
:1042F00038026F00CCFF4FF06F00D0FF50F04F50EE
:10430000462650504722000E4822000E49226000E7
:1043100020F149F060001CF148F0600018F147F00E
:10432000466A3C5038026F00CCFF4FF06F00D0FF60
:1043300050F04F50462650504722000E4822000EA3
:1043400049223E5039026F00CCFF4FF06F00D0FF82
:1043500050F04F504B2650504C22000E4D22000E74
:104360004E223D503A026F00CCFF4FF06F00D0FF5D
:1043700050F04F504B2650504C22000E4D22000E54
:104380004E223E503A026F00CCFF4FF06F00D0FF3C
:1043900050F04F50406E5050416E426A436A600088
:1043A00008F143F0600004F142F0600000F141F0D8
:1043B000406A40504B2641504C2242504D224350BF
:1043C0004E2249504B26000E4C224D224E226000B8
:1043D00020F149F060001CF148F0600018F147F04E
:1043E000466A4550600028F140F0416A4026000EC0
:1043F0004122820E40244F6EFF0E4120506E0FD09E
:10440000D8904B364C364D364E3649BE4B80D89000
:1044100046364736483649364F06D8A050064DAE88
:10442000EFD7000E456E49AE17D0FF0E4614406E12
:10443000FF0E4714416EFF0E4814426E7F0E491462
:10444000436E4050411042104310D8B403D0010EC7
:10445000456E02D04BB0FBD74550D8B427D0010EE3
:104460004B26000E4C224D224E224EA01FD0600043
:104470002CF140F0600030F141F0600034F142F086
:10448000600038F143F0433443324232413240322B
:10449000600000F14BF0600004F14CF0600008F1A6
:1044A0004DF060000CF14EF04F4A502A50BE0DD036
:1044B000505003E14F28D8A008D0000E4B6E000EDC
:1044C0004C6E800E4D6E7F0E21D050BE05D05050E8
:1044D0000EE14F04D8B00BD0000E4B6E000E4C6EA8
:1044E000000E4D6E000E4E6E000E446E10D0600039
:1044F0003CF14AF0FF0E4B16FF0E4C167F0E4D1688
:10450000000E4E164AB04D8ED8904A304E6E445032
:104510004E1260002CF138F0600030F139F060008C
:1045200034F13AF0600038F13BF012001250800B89
:104530001B6E125012241D6E11BE1D801D50D8B46A
:104540000DD01D28D8A408D0000E0F6E000E106EDE
:10455000000E116E000E126E118E06D0000E0F6E40
:10456000000E106E000E116E000E126E1650800BB3
:104570001C6E1B501C18D8A41B8C165016241C6EC5
:1045800015BE1C801C50D8B40DD01C28D8A408D04F
:10459000000E136E000E146E000E156E000E166ED9
:1045A000158E06D0000E136E000E146E000E156EE2
:1045B000000E166E1D501C5CD8B031D01BAC02D062
:1045C000800E1B1A600074F01EF0600070F01DF089
:1045D000600078F01CF060003CF01EF060004CF0D1
:1045E0000FF0600078F013F0600040F01EF0600003
:1045F00050F010F0600078F014F0600044F01EF00D
:10460000600054F011F0600078F015F0600048F0A0
:104610001EF0600058F012F0600078F016F0000E06
:104620001E6E1D50600070F017F0186A175E000EC5
:10463000185A18BE2DD0185004E11A0E175CD8A0D5
:1046400027D00F50101011101210D8B402D0010E44
:1046500001D0000E1E6E000E0F6E000E106E000ECA
:10466000116E000E126E600070F01DF015D01EA0CD
:1046700005D0D8901E3001091E6E02D0D8901E328F
:104680000FB01E8E12341232113210320F321D2A28
:104690001C501D5CD8A0EBD71BBC28D01D50D8A443
:1046A00009D0000E0F6E000E106E000E116E000E7F
:1046B000126E120013500F261450102215501122A2
:1046C0001650122212A071D01EA005D0D8901E3014
:1046D00001091E6E02D0D8901E320FB01E8E123409
:1046E0001232113210320F321D2A5FD013500F5C7C
:1046F00014501058155011581250800A176E165049
:10470000800A1758D8B025D00F50135C176E105080
:104710001458186E11501558196E125016581A6EFA
:10472000FF0E17240F6EFF0E1820106EFF0E1920BB
:10473000116EFF0E1A20126E800E1B1A1E6C1E5078
:10474000D8A40FD0010E0F26000E10221122122223
:1047500008D013500F5E1450105A1550115A1650AD
:10476000125A0F50101011101210D8A41CD01E5045
:10477000D8A419D0000E0F6E000E106E000E116E30
:10478000000E126E1200D8900F3610361136123607
:104790001EBE0F801EA002D0D88001D0D8901E3639
:1047A0001D50D8A41D0611AEEED7000E1C6E1EAE15
:1047B0000CD0600078F017F07F0E1716D8B403D035
:1047C000010E1C6E02D00FB0FBD71C50D8B428D0FD
:1047D000010E0F26000E10221122122212A020D04C
:1047E00060003CF017F0600040F018F0600044F00A
:1047F00019F0600048F01AF01A341A3219321832DF
:10480000173260005CF00FF0600060F010F06000A4
:1048100064F011F0600068F012F01D28D8A41D2A81
:104820001D28D8B403D01D50D8A40DD0000E0F6E93
:10483000000E106E000E116E000E126E1D50D8A4E8
:1048400002D0000E1B6E1DA002D0118E01D0119E51
:10485000D8901D30126E1BBE128E60003CF00FF01F
:10486000600040F010F0600044F011F0600048F08B
:1048700012F012002250800B2F6E22502224366E2E
:1048800021BE36803650D8B40DD03628D8A408D0F2
:10489000000E1F6E000E206E000E216E000E226EA6
:1048A000218E06D0000E1F6E000E206E000E216EAF
:1048B000000E226E2650800B2F1A26502624376EAB
:1048C00025BE37803750D8B40DD03728D8A408D0AB
:1048D000000E236E000E246E000E256E000E266E56
:1048E000258E06D0000E236E000E246E000E256E5F
:1048F000000E266E2350241025102610D8A41BD09D
:10490000000E1F6E000E206E000E216E000E226E35
:10491000800E21127F0E22122F50221260007CF096
:104920001FF0600080F020F0600084F021F0600053
:1049300088F022F012003650D8A409D0000E1F6E65
:10494000000E206E000E216E000E226E12003750F7
:104950006000D8F027F0286A275E000E285A7F0EE4
:104960002724306E000E2820316E60007CF02BF082
:10497000600080F02CF0600084F02DF0600088F082
:104980002EF0000E1F6E000E206E000E216E000E27
:10499000226E000E326E000E336E000E346E000E6C
:1049A000356E000E376E28D03750D8B411D0D8905D
:1049B0002B362C362D362E36D8901F362036213603
:1049C000223635BE1F80D8903236333634363536EF
:1049D00023502B5C24502C5825502D5826502E58EF
:1049E000D8A009D0358C23502B5E24502C5A25504A
:1049F0002D5A26502E5A372A190E3764D5D72B50E8
:104A00002C102D102E10D8B411D032800FD0D89089
:104A10001F3620362136223635BE1F80D8903236DA
:104A20003336343635363006D8A0310621AEEFD7CE
:104A3000000E376E35AE17D0FF0E3214276EFF0E04
:104A40003314286EFF0E3414296E7F0E35142A6E2F
:104A50002750281029102A10D8B403D0010E376E21
:104A600002D01FB0FBD73750D8B427D0010E1F2675
:104A7000000E20222122222222A01FD060007CF0E2
:104A800027F0600080F028F0600084F029F06000DA
:104A900088F02AF02A342A3229322832273260005C
:104AA0009CF01FF06000A0F020F06000A4F021F066
:104AB0006000A8F022F0304A312A31BE10D03150C7
:104AC00003E13028D8A00BD0000E316E3068000E04
:104AD0001F6E000E206E000E216E000E226E31BE83
:104AE00005D0315011E13004D8B00ED0000E316E37
:104AF000000E306E000E1F6E000E206E000E216E36
:104B0000000E226E000E2F6E6000C0F036F036A050
:104B100002D0218E01D0219ED8903630226EFCD654
:104B20006100A0F048F06100A4F049F06100A8F035
:104B30004AF06100ACF04BF06000E0F048F060003B
:104B4000E4F049F06000E8F04AF06000ECF04BF06F
:104B5000810E3C6EFF0E3D6E600020F13EF0600065
:104B600024F13FF0600028F140F060002CF141F0AA
:104B7000180E05D0D890413240323F323E32E82EF6
:104B8000F9D73E503C24466E000E3D20476E47BE8E
:104B900013D0475004E1170E465CD8A00DD060003A
:104BA000E0F038F06000E4F039F06000E8F03AF04E
:104BB0006000ECF03BF0120047BE64D0600018F1DA
:104BC0003CF0FF0E3D6EFF0E3E6E7F0E3F6E000E00
:104BD000406E3C6601D007D0403440323F323E3216
:104BE0003D323C2EF6D76000F4F042F06000F8F061
:104BF00043F06000FCF044F0600000F145F04250EA
:104C000048143C6E435049143D6E44504A143E6E65
:104C100045504B143F6E3C503D103E103F10D8B4F1
:104C2000BED7600020F13CF0600024F13DF0600050
:104C300028F13EF060002CF13FF0200E05D0D89016
:104C40003F323E323D323C32E82EF9D73C50D8B4A8
:104C500008D0425048264350492244504A224550E9
:104C60004B22421C3C6E431C3D6E441C3E6E451C58
:104C70003F6E3C5048163D5049163E504A163F5034
:104C80004B1636D0600020F13CF0600024F13DF07E
:104C9000600028F13EF060002CF13FF0200E05D0BE
:104CA000D8903F323E323D323C32E82EF9D73C6656
:104CB00008D0000E486E000E496E000E4A6E000EBF
:104CC00016D0D89048343C6E49343D6E4A343E6E1E
:104CD0004B343F6E3C503D103E103F10D8B408D0CE
:104CE000000E486E000E496E800E4A6EBF0E4B6E6F
:104CF000600020F138F0600024F139F0600028F104
:104D00003AF060002CF13BF01200000EC26E000E73
:104D1000CA6E000E3A01406F000E416F446943694C
:104D2000000E426FCE0EC36E100ECB6E000E506F93
:104D3000C00E516F54695369000E526F6E0EC46EEF
:104D4000000ECC6E600E606F0E0E616F6469636959
:104D5000000E626F0F0EC56E000ECD6E080E706FE6
:104D6000070E716F74697369000E726FF80EC66E6C
:104D7000040ECE6EF00E806F080E816F8469836919
:104D8000000E826F7F0E3901C06FFB0EC16F470EA0
:104D9000C26F510EC36FE00EC46F270EC56F3F0E7A
:104DA000C66F000EC76F840E3E01F86F000EF96FDC
:104DB000000EFA6F000EFB6F1F0EFF6F000EFD6FEF
:104DC0000A0E3A01176F0B0E1C6F0C0E1D6F0E0EA4
:104DD0001E6F100E1F6F550E3F015E6F8F0E7A6EA5
:104DE0008F0E766E8F0E726E800E6A6E800E626E01
:104DF000AB68010EAE6E900EAC6E000E786E000EBB
:104E0000796E000E746E000E756E000E706E000EE0
:104E1000716E000E696E000E686E61686068BB9806
:104E2000050E0401A76F0F0EA66FF10EE82EFED738
:104E3000A62FFCD7A72FFAD7BB88050E0401A76FB2
:104E40000F0EA66FF10EE82EFED7A62FFCD7A72FC8
:104E5000FAD7000E056E000E066E000E076E010EEC
:104E6000086E010EA1EC2EF0CB0E056E0550D8A4F5
:104E7000200E066E4BEC2DF0FDEC2CF02FEC16F016
:104E8000FDD7000E166E000E156E000E0F6E000E92
:104E90000E6E01D0082A010E146E600023F0F6FF9A
:104EA000200EF76E000EF86E0800F550200AD8B4F8
:104EB0001BD0F70E0A6EFF0E0B6E600023F0F6FF9C
:104EC000200EF76E000EF86E0800F5500C6E0D6A9D
:104ED0000A500C260B500D220D5004E1050E0C5CFF
:104EE000D8A002D0000E146E600050F010F0116ACD
:104EF00010501110D8B407D0CDD7000E0F6E010E90
:104F00000E6E082A36D0600023F0F6FF200EF76EF2
:104F1000000EF86E0800F5500A6E0B6A0B50000A7E
:104F2000D8A427D00A502B0AD8B4EBD7060AD8B495
:104F3000E4D71FD0600054F001F0600058F002F098
:104F4000000E046E0A0E036EB2EC31F0600023F026
:104F5000F6FF200EF76E000EF86E0800F550015EA9
:104F6000000E025A300E0124156E000E0220166E3D
:104F7000C8D7D00E0A6EFF0E0B6E600023F0F6FF4E
:104F8000200EF76E000EF86E0800F5500C6E0D6ADC
:104F90000A500C260B500D220D5006E10A0E0C5C37
:104FA000D8B002D0010E01D0000E126E136A12505A
:104FB0001310D8A4BFD70E500F10D8A411D0600082
:104FC00054F00AF0600058F00BF00A1E0B1E0A4A5B
:104FD0000B2A600028F008F060002CF009F01200A5
:104FE000600054F008F0600058F009F01200390138
:104FF000A5B5D4EC31F0040146513B01EC19D8B40D
:105000001200040146513B01EC5D196E000E226E48
:10501000000E216E000E1B6E000E1C6E000E1A6E2E
:10502000000E1E6E8ED01C501E5C1F6E0401465179
:105030001E24206E000E2024D96EDA6A010EDA22B8
:10504000DF50236E22501F5CFD0F1D6E22501F1873
:10505000D8A411D02350D8A405D02250D8A402D06F
:10506000010E07D0AA0E2318D8B46AD020281C6ECF
:10507000000E226E65D01F50156E166A2250176EF4
:10508000186A010E1726000E18221550171807E18E
:1050900016501818D8A403D023501B2651D01F50E7
:1050A000156E166A2250176E186A020E1726000E29
:1050B00018221550171813E116501818D8A40FD03D
:1050C00060008CF021F023501B262150D8A438D04A
:1050D00020281C6E000E226E000E1B6E31D0215057
:1050E0001D5CD8B012D0000E156E030E166E1A504D
:1050F0001526000E16221D501524D96E000E1620FE
:10510000DA6E60008FF0DFFFC7D721501D18D8A4DA
:1051100017D023501B261B50D8A40BD0000E1A24E6
:10512000116E126A030E1222600084F013F05BEC21
:1051300029F020281C6E000E226E21501A26CCD792
:105140001E2A19501E5CD8A06ED7600070F046F47D
:105150001200096E0950D8A404AE22D0600004F0F9
:1051600005F0600008F006F060000CF007F0600049
:1051700010F008F0051E061E071E081E052A000E68
:10518000062207220822600014F00BF0600018F0DD
:105190000CF060001CF00DF0600020F00EF00CD060
:1051A000600004F00BF0600008F00CF060000CF000
:1051B0000DF0600010F00EF001500210031004100A
:1051C000D8A409D0000E016E000E026E000E036E10
:1051D000000E046E1200960E0A6E06D00A2AD890AF
:1051E0000E320D320C320B32000E0B14056E000E17
:1051F0000C14066E000E0D14076EFE0E0E14086ED3
:105200000550061007100810D8B40DD0E7D70A2AA9
:10521000010E0B26000E0C220D220E22D8900E320B
:105220000D320C320B32000E0B14056E000E0C14F6
:10523000066E000E0D14076EFF0E0E14086E05505C
:10524000061007100810D8B407D0E1D70A06D89086
:105250000B360C360D360E360DBE03D0020E0A602C
:10526000F5D70AA00D9ED8900A32600028F005F00C
:10527000066A076A086A600014F008F0076A066A9E
:10528000056A05500B1206500C1207500D120850FB
:105290000E120950D8A404AE01D00E8E60002CF07E
:1052A00001F0600030F002F0600034F003F06000C4
:1052B00038F004F01200600047F0D9FF60004BF0B6
:1052C000DAFF170EDE18D8A418D020EE02F0115025
:1052D000D9261250DA22040EDE18D8A40ED0040EFD
:1052E0001318D8A40AD020EE03F01150D92612507A
:1052F000DA22DF500F0B4B6F50D0600047F0D9FF20
:1053000060004BF0DAFF1E0EDE18D8A439D0080E6C
:105310001318D8A435D020EE01F01150D926125020
:10532000DA22DF50D8B402D0010E01D0000E476F50
:1053300020EE02F01150D9261250DA22DF50D8B4F4
:1053400002D0010E01D0000E486F20EE01F0115086
:10535000D9261250DA22DE04D8A402D0010E01D0E0
:10536000000E4A6F20EE06F01150D9261250DA22B4
:10537000DF50D8B402D0010E01D0000E496F0DD01D
:10538000600047F0D9FF60004BF0DAFFDF50D8A48F
:105390001200030E1318D8A41200600047F0D9FFC2
:1053A00060004BF0DAFFDF50A56FA40E0C6E040E08
:1053B0000D6E020E0E6EDFEC2EF012006100B0F0EA
:1053C0000BF06100B4F00CF06100B8F00DF061007A
:1053D000BCF00EF0600004F00BF0600008F00CF080
:1053E00060000CF00DF0600010F00EF060002CF08A
:1053F00005F0600030F006F0600034F007F0600067
:1054000038F008F0180E05D0D8900832073206326E
:105410000532E82EF9D70550096E0A6A09500A10BC
:10542000D8A419D0D8900B34056E0C34066E0D3408
:10543000076E0E34086E0550061007100810D8A429
:1054400005D0000E026E020E016E1200000E026EFA
:10545000030E016E120009280A10D8A420D06000A3
:105460002CF005F0600030F006F0600034F007F03A
:10547000600038F008F0090ED89005360636073679
:105480000836E82EF9D70550061007100810D8A4E2
:1054900002D0010E01D0000E016E026A1200000E51
:1054A000026E040E016E120004014751D8A407D009
:1054B000000E696E000E686E6168606812004A51E5
:1054C000D8B460D069686868FF0E1B141F6E0F0E99
:1054D0001C14206E000E1D14216E000E1E14226E70
:1054E00022BE07D0225021101BE1080E205CD8B04C
:1054F00017D0FF0E1B140D6E070E1C140E6E000E3F
:105500001D140F6E000E1E14106E080E116E000E8C
:10551000126E000E136E000E146EC7EC2AF022D02D
:10552000FF0E1B141F6E070E1C14206E000E1D14A0
:10553000216E000E1E14226E1F5000080D6E080E04
:1055400020540E6E000E21540F6E000E2254106E69
:10555000080E116E000E126E000E136E000E146E09
:10556000C7EC2AF0600034F023F0600038F024F03B
:1055700060003CF025F0600040F026F060008FF005
:1055800061FF9BD769686868616860681200000EF7
:10559000166E14AE0AD0141E131E121E116C000ECD
:1055A000122213221422010E166E10AE0AD0101E03
:1055B0000F1E0E1E0D6C000E0E220F221022010E69
:1055C000161A000E176E000E186E000E196E000EE1
:1055D0001A6E1150121013101410D8B42AD0010EE4
:1055E000156E06D0D8901136123613361436152A99
:1055F00014AEF8D7D8901736183619361A36115017
:105600000D5C12500E5813500F5814501058D8A05B
:1056100009D011500D5E12500E5A13500F5A1450EB
:10562000105A1780D8901432133212321132152EBC
:10563000E1D71650D8B408D01A1E191E181E176CC0
:10564000000E182219221A2260005CF00DF0600092
:1056500060F00EF0600064F00FF0600068F010F091
:105660001200000E5114596E000E52145A6E800E24
:1056700053145B6E7F0E54145C6E59505A105B10BD
:105680005C10D8A408D0000E516E000E526E000EB1
:10569000536E000E546E000E5514596E000E5614C3
:1056A0005A6E800E57145B6E7F0E58145C6E595004
:1056B0005A105B105C10D8A408D0000E556E000E76
:1056C000566E000E576E000E586E54AE09D0516CD7
:1056D000521ED8B0522A531ED8B0532A800E5456A8
:1056E00058AE09D0556C561ED8B0562A571ED8B0A1
:1056F000572A800E5856000E511A000E521A000EEC
:10570000531A800E541A000E551A000E561A000E27
:10571000571A800E581A5550515C565052585750CF
:10572000535858505458D8B002D0D8901200D8804E
:105730001200033404340A6E0A50D8A409D0000EB3
:10574000016E000E026E000E036E000E046E12005B
:10575000600004F005F0600008F006F060000CF056
:1057600007F0600010F008F0200E05D0D890083245
:10577000073206320532E82EF9D70550096E038E3E
:10578000FF0E0116FF0E0216FF0E0316000E041682
:10579000960E0A5E0AAE0DD00A50800A970FD8A066
:1057A000CED7D89004320332023201320A3EF9D702
:1057B0000DD01F0E0A6407D0C2D7D890013602362A
:1057C000033604360A060A50D8A4F7D70950D8B4CD
:1057D00008D0041E031E021E016C000E02220322CA
:1057E0000422600004F001F0600008F002F06000A4
:1057F0000CF003F0600010F004F01200000E0A6ECE
:1058000004AE0AD0041E031E021E016C000E02220A
:1058100003220422010E0A6E08AE08D0081E071EDD
:10582000061E056C000E06220722082205500610EF
:1058300007100810D8B424D0010E096E06D0D890F5
:105840000536063607360836092A08AEF8D7055059
:10585000015C065002580750035808500458D8A05D
:1058600008D00550015E0650025A0750035A0850EE
:10587000045AD8900832073206320532092EE7D78B
:105880000A50D8B408D0041E031E021E016C000E7C
:10589000022203220422600004F001F0600008F0FC
:1058A00002F060000CF003F0600010F004F0120051
:1058B000600004F006F0600008F007F00306D8A0CE
:1058C000040603280DE10428D8A40AD0000E026EB5
:1058D000000E016E1200062A072A0306D8A004064D
:1058E0000650D96EDA6ADF50D8B421D060001FF0BC
:1058F000F6FF200EF76E000EF86E0800F550000956
:10590000D8B415D003500410D8B411D00650D96EB5
:10591000DA6ADF50056E60001FF0F6FF200EF76EAA
:10592000000EF86E0800F5500518D8B4D4D706500C
:10593000D96EDA6ADF50056E60001FF0F6FF200EA8
:10594000F76E000EF86E0800F550055C016E026AF5
:10595000D8A002061200040142A10BD0600040F062
:1059600009F0600044F00AF060003CF00BF014EC29
:1059700031F013BE07D0600048F017F060004CF023
:1059800018F004D0000E186E000E176E000E166E82
:10599000000E156E0BD0000E026E200E016E600020
:1059A0003CF003F060EC2EF0154A162A1750155CF7
:1059B0001650800A146E1850800A1458D8A0EBD7DD
:1059C000040142B10BD0600040F009F0600044F0E7
:1059D0000AF060003CF00BF014EC31F0600040F095
:1059E00001F0600044F002F099EC31F0175001240E
:1059F0000F6E18500220106E1200400E3B01FD6F1A
:105A0000000EF86F010EF76F000EFB6F3D0EFA6F80
:105A1000E80EF96F010EEF6F000EEE6F010EF16FE1
:105A2000000EF06F1B0EFF6F1D0EFE6FC40EFC6F9D
:105A3000030EDD6F000ED86F010ED76F000EDB6F07
:105A4000020EDA6F000ED96F000ECF6F010ECE6F0F
:105A50003D0ED16FEA0ED06F1C0EDF6F1D0EDE6F94
:105A6000040EDC6F550E3901EF6FAA0EEF6FEF8158
:105A7000000E3D01F66F220EF56F090E3A01E56F3B
:105A8000300E3D01F26F800EF36F080EF46F130EAF
:105A90003A01086F1200000E096E22D00950052449
:105AA000076E000E0620086E60001FF0F6FF600013
:105AB00023F0F7FF000EF86E1F0EF76403D0080006
:105AC000F55007D06F00DBFFE1FF6F00DFFFE2FF63
:105AD000E750016E000E026E010EABEC30F0092AA9
:105AE00009500524076E000E0620086E60001FF0A6
:105AF000F6FF600023F0F7FF000EF86E1F0EF7644C
:105B000003D00800F55007D06F00DBFFE1FF6F0006
:105B1000DFFFE2FFE7500009D8B412000928D8B42B
:105B20001200BCD7000E0114096E000E02140A6E9A
:105B3000800E03140B6E7F0E04140C6E09500A10B5
:105B40000B100C10D8A408D0000E016E000E026ECF
:105B5000000E036E000E046E000E0514096E000E9A
:105B600006140A6E800E07140B6E7F0E08140C6E5E
:105B700009500A100B100C10D8A408D0000E056EA6
:105B8000000E066E000E076E000E086E055001181E
:105B90000AE10650021807E10750031804E1085013
:105BA0000418D8B402D0D8901200D8801200000E89
:105BB000096E000E0A6E000E0B6E000E0C6E055084
:105BC000061007100810D8B42AD0010E0D6E06D0AA
:105BD000D89005360636073608360D2A08AEF8D7AF
:105BE000D89009360A360B360C360550015C065043
:105BF00002580750035808500458D8A009D005503F
:105C0000015E0650025A0750035A0850045A098090
:105C1000D89008320732063205320D2EE1D76000E7
:105C200024F001F0600028F002F060002CF003F096
:105C3000600030F004F01200000E066E04AE06D0D4
:105C4000036C041ED8B0042A010E066E02AE06D004
:105C5000016C021ED8B0022A010E061A000E086E50
:105C6000000E076E03500410D8B41CD0010E056E50
:105C700004D0D89003360436052A04AEFAD7D8905B
:105C8000073608360350015C04500258D8A005D0EE
:105C90000350015E0450025A0780D8900432033248
:105CA000052EEDD70650D8B404D0076C081ED8B026
:105CB000082A60001CF001F0600020F002F01200E1
:105CC0000350D8B403D00350D8A404D00150E3EC5F
:105CD00031F012000350D96EDA6A030ED926DE5075
:105CE000DE10D8B414D00350D96EDA6A030ED92668
:105CF0000350E16EE26A010EE126DE50E65CE650FA
:105D0000800A086EDE50800A0858D8B0120003508E
:105D1000D96EDA6A010ED926DF50046E0350D96EAF
:105D2000DA6ADF500424D96EDA6A600007F0DFFF18
:105D30000350D96EDA6A010ED926DE2A000EDD2262
:105D400012000A6E330E016E000E026E000EABECF6
:105D500030F0330E016E000E026E000EABEC30F030
:105D6000330E016E000E026E000EABEC30F03B0EF7
:105D7000016E000E026E000EABEC30F00A500A24E9
:105D800005100409016E000E026E000EABEC30F03F
:105D9000D8900634096E0844E846FC0B0910071039
:105DA0000809016E000E026E000EABEC30F0010E21
:105DB000016E010E026E000EABEC30F012003B01E2
:105DC000DCBDFDD73901A5B5D4EC31F03B01DC9F3A
:105DD000AA0E0201006F000E016F600038F002F29F
:105DE000030E016E020E026E600030F003F06000E0
:105DF00034F004F0600038F005F0066A54EC2FF03F
:105E00000E500F6E106A030E0F26000E1022600057
:105E100040F00FF0106A0F503B01D86F0E50030F87
:105E2000D76F000E3D01EB6F3901A5953B01DC8F6B
:105E3000DC8D1200000E066E02AE06D0016C021E52
:105E4000D8B0022A010E066E04AE04D0036C041E04
:105E5000D8B0042A03500410D8B418D0010E056E2F
:105E600004D0D89003360436052A04AEFAD703507E
:105E7000015C04500258D8A004D00350015E0450C5
:105E8000025AD89004320332052EF1D70650D8B406
:105E900004D0016C021ED8B0022A600004F001F0A8
:105EA000600008F002F0120060000CF009F06000E1
:105EB00010F00AF0600004F007F0600008F008F04D
:105EC00023D0600027F0F6FF60002BF0F7FF000EF4
:105ED000F86E1F0EF76403D00800F55007D06F006E
:105EE000DBFFE1FF6F00DFFFE2FFE7500B6E094AC7
:105EF0000A2A60001FF0D9FF600023F0DAFF60007B
:105F00002FF0DFFF074A082A0506D8A00606052855
:105F1000D8E10628D8B41200D4D7125013101410A8
:105F20001510D8B424D0010E166E06D0D8901236B3
:105F3000133614361536162A15AEF8D712500E5CE5
:105F400013500F581450105815501158D8A008D09D
:105F500012500E5E13500F5A1450105A1550115A09
:105F6000D8901532143213321232162EE7D7600051
:105F700038F00EF060003CF00FF0600040F010F0E0
:105F8000600044F011F0120060000CF007F06000B7
:105F900010F008F0600004F009F0600008F00AF06A
:105FA0000750056E0850066E074A082A600017F071
:105FB000F6FF60001BF0F7FF000EF86E600027F0A0
:105FC000D9FF60002BF0DAFF094A0A2A1F0EF76496
:105FD00003D00800F55007D06F00DBFFE1FF6F0032
:105FE000DFFFE2FFE750DF6EDF50D8B41200D8D7F2
:105FF000000E551A000E561A000E571A800E581A27
:10600000600044F10FF0600048F110F060004CF1C6
:1060100011F0600050F112F0600054F113F06000D4
:1060200058F114F060005CF115F0600060F116F0BA
:1060300096EC22F060003CF051F0600040F052F02D
:10604000600044F053F0600048F054F01200000E7D
:10605000096E000E0A6E000E0B6E000E0C6E01A093
:1060600008D00550092606500A2207500B22085076
:106070000C22D8900536063607360836D8900432FA
:106080000332023201320150021003100410D8A46E
:10609000E6D7600024F001F0600028F002F0600014
:1060A0002CF003F0600030F004F012006000D8F231
:1060B000B8F0000E04013D6F000E3C6F0FD0600081
:1060C000D4F25DF0B80E5E6E6000DCF25FF0B2EC10
:1060D0001EF05D5004013C275E503D236000E3F25A
:1060E000F6FF200EF76E000EF86E0800F55000095E
:1060F000D8A4E5D76100F0F0B5F06100F4F0B6F097
:106100001200BF0E096EFF0E0A6E60001CF00BF04D
:10611000600020F00CF009500B260A500C220C50A5
:1061200006E11A0E0B5CD8B002D0010E01D0000EB1
:106130000D6E0E6A0D500E10D8B406D0200E07104A
:10614000076E0850086E120060001CF007F0600037
:1061500020F008F01200046EBE84BE9204B002D09B
:10616000BE9001D0BE80350EE82EFED700F0600054
:1061700007F0CAFF350EE82EFED700F0BE94350EAC
:10618000E82EFED700F0BE840250D8B408D02A0E04
:10619000036E8E0EE82EFED7032EFCD71200A00E43
:1061A00000D0E82EFDD71200010E076E200E011858
:1061B0000210D8B416D0F70E036EFF0E046E600006
:1061C00004F005F0600008F006F0035005260450C6
:1061D0000622065004E1050E055CD8A002D0000E90
:1061E000076E60001CF001F0026A1200BB0EC16F66
:1061F0006000E4F2C2F0000EC46F000EC36F000E28
:10620000C66F000EC56FC20EB56F6000E8F2B6F043
:10621000C10EB76F56EC30F00001B951C325D96EED
:10622000DA6A000EDF6E1200000E0E6E000E0D6EAA
:106230000BD0600030F001F0026A60002CF003F037
:1062400060EC2EF00D4A0E2A0D500924D96E0E5026
:106250000A20DA6EDF500C6E0C50D8B41200E9D769
:106260000150021003100410D8B408D0000E011A17
:10627000000E021A000E031A800E041A600004F0C9
:1062800001F0600008F002F060000CF003F0600024
:1062900010F004F01200BC0EF66E630EF76E000EE6
:1062A000F86E01EE9CF010EE0AF009006F00D7FFC7
:1062B000EEFFE550E150F9E101EE00F09C0EEE6AD0
:1062C000E806FDE1000185EF26F0BF0E036EFF0E2C
:1062D000046E600004F005F0600008F006F0035062
:1062E000052604500622065006E11A0E055CD8B0B9
:1062F00002D0010E01D0000E016E026A1200D00E13
:10630000036EFF0E046E600004F005F0600008F0FC
:1063100006F00350052604500622065006E10A0E38
:10632000055CD8B002D0010E01D0000E016E026AE9
:106330001200600004F003F0600008F004F002D0E6
:10634000014A022A600007F0D9FF60000BF0DAFF73
:10635000DF50D8A4F5D70350015C016E04500258F9
:10636000026E1200015003026F00CCFF05F06F00B7
:10637000D0FF06F001500402F3500626025003023B
:10638000F3500626600014F001F0600018F002F0EF
:106390001200056E05507F0B8009016E000E026E23
:1063A000000EABEC30F01200A3A9FED73D01EB517B
:1063B000560F0008EA6F3901A59512004000000051
:0863C0000000C84214001200A5
:020000040001F9
:04FFFC004BEF31F0A6
:020000040020DA
:10000000FF0FFF0FFF0FFF0FFF0FFF0FFF0FFF0F80
:020000040030CA
:0A0000008CFDEFF79FFFFFFFFFFFED
:00000001FF
