:020000040000FA
:04000000FEEFFFF020
:10FEE000000000000000007602E00186010401B479
:10FEF000006400410032002300160010000B0008CF
:10FF0000001600040D00426174746572793A202570
:10FF1000332E306625252020200046756C6C20434A
:10FF200068673A2025332E3066252520200046615B
:10FF30007374204368673A2025332E3066252520C8
:10FF40002000436867206661756C743A2025332E63
:10FF50003066252520004F666620202020202020A6
:10FF60002020202020200050616972696E672020C7
:10FF70002020202020202000436F6E6E6563746572
:10FF80006420202020202020004E6F2042617474C5
:10FF9000657279202020202020004E6F7420636F2E
:10FFA0006E6E656374656420202000414D504C499D
:10FFB00046494552204641554C5421004C6F77200C
:10FFC000426174746572793A204F666600426174CA
:10FFD0007465727920637269746963616C00486545
:10FFE0006C6C6F20576F726C642100494E46004E56
:0FFFF000414E00696E66006E616E006C66000027
:020000040001F9
:10000000150E3E01F16FF88104D0050EE82EFED7E3
:1000100000F03E01F8B1F9D7EF516F00C0FBCCF012
:100020000001CD6B600030F3CDF0CC6BCC13000E33
:10003000CD13F70ECC250401B66FF90E0001CD21CA
:100040000401B76FB7BF07D06100D8F2B3F4610005
:10005000DCF2B4F411D06100D8F2CCF06100DCF233
:10006000CDF00001CC1FCD1FCC4BCD2B600030F369
:10007000B3F4600034F3B4F46100CCF2CCF061006E
:10008000D0F2CDF0000E0001CDBFFF0ECE6FCF6FCE
:10009000CC5104012C270001CD5104012D23000176
:1000A000CE5104012E230001CF5104012F23610002
:1000B000C0F00EF06100C4F00FF06100C8F010F065
:1000C0006100CCF011F0320E126E000E136E000EB5
:1000D000146E000E156ECEEC9FF0310E0E180F1040
:1000E00010101110D8A45FD2D89004012C35016EE5
:1000F0002D35026E2E35036E2F35046E320E056ED1
:10010000000E066E000E076E000E086E59EC9EF093
:10011000600004F0BAF4600008F0BBF460000CF07A
:10012000BCF4600010F0BDF4F70EBA27FF0EBB233D
:10013000FF0EBC23FF0EBD23BDAF08D0000EBA6F6B
:10014000000EBB6F000EBC6F000EBD6F6100A0F013
:1001500001F06100A4F002F06100A8F003F061007A
:10016000ACF004F0140E056E000E066E000E076E65
:10017000000E086E59EC9EF0600004F09EF46000E2
:1001800008F09FF460000CF0A0F4600010F0A1F4FF
:100190009E51BA5D016E9F51BB59026EA051BC5970
:1001A000036EA151BD59046E3C51020DE10EF324C2
:1001B000F66EFE0EF420F76EF86A000EF8220900C3
:1001C0006F00D4FFCCF009006F00D4FFCDF06000C9
:1001D00030F305F0600034F306F0076A086A68EC53
:1001E000A0F0600004F0BEF4600008F0BFF460000E
:1001F0000CF0C0F4600010F0C1F4000E0401B56F03
:100200003805D8A41FD03A51D8B41CD0040E3C6194
:100210000BD00001E9BF08D0E951E811E71112E164
:10022000190EE65DD8B00ED00401C1BF0BD0C1518C
:10023000C01106E1090EBE5D070EBF59D8A002D05D
:10024000010EB56F0401B551D8B402D0010E01D032
:10025000000EB26FB251D8B497D06100D0F0CCF09C
:100260006100D4F0CDF0000E0001CDBFFF0ECE6FC7
:10027000CF6FCC510401BE5D0001CD510401BF59C7
:100280000001CE510401C059C151800A0001D06F54
:10029000CF51800AD059D8A00DD06100F8F2A6F451
:1002A0006100FCF2A7F4610000F3A8F4610004F31C
:1002B000A9F40CD06100D0F0A6F46100D4F0A7F44A
:1002C0000401000EA7BFFF0EA86FA96F0401A9BF0C
:1002D00007D0A951A8114AE1100EA75DD8B046D0A9
:1002E0006100D0F0CCF06100D4F0CDF0000E000140
:1002F000CDBFFF0ECE6FCF6FCC510401BE5D0001AC
:10030000CD510401BF590001CE510401C059C15162
:10031000800A0001D06FCF51800AD059D8A00DD0EB
:100320006100F8F2AAF46100FCF2ABF4610000F3A2
:10033000ACF4610004F3ADF40CD06100D0F0AAF489
:100340006100D4F0ABF40401000EABBFFF0EAC6F44
:10035000AD6F6100A8F2A2F46100ACF2A3F46100F9
:10036000B0F2A4F46100B4F2A5F408D0FF0EA26FBD
:100370000F0EA36F000EA46F000EA56F610088F230
:1003800034F461008CF235F46100D0F060F061006B
:10039000D4F061F00001000E61BFFF0E626F636F69
:1003A0006100C0F064F06100C4F065F06100C8F065
:1003B00066F06100CCF067F067EC8BF0F60E0001A0
:1003C000CC6FFF0ECD6F6100D0F001F06100D4F072
:1003D00002F0000E046E320E036E9EEC9EF0610081
:1003E000D0F0CEF06100D4F0CFF00150CE5F0250DB
:1003F000CF5BCC51CE27CD51CF23CFBF05D0CF512E
:1004000009E1CE05D8B006D0000E0401356F000E0C
:10041000346F1FD06100D0F001F06100D4F002F021
:10042000000E046E320E036E9EEC9EF06100D0F062
:10043000CCF06100D4F0CDF00150CC5F0250CD5B28
:10044000F60ECC250401346FFF0E0001CD2104010E
:10045000356F000E2C6F000E2D6F000E2E6F000EEC
:100460002F6F320E056E000E066E000E076E000E28
:10047000086E6100C0F001F06100C4F002F061009C
:10048000C8F003F06100CCF004F059EC9EF060007D
:1004900004F00EF0600008F00FF060000CF010F0B7
:1004A000600010F011F0140E126E000E136E000EAC
:1004B000146E000E156ECEEC9FF0D8900E360F36EF
:1004C000000E0E24D96E040E0F20DA6E6F0078FF36
:1004D000CCF06F0074FFCDF00001CC51CE6FCD5148
:1004E000CF6FD06BD16BCE510401285F0001CF518B
:1004F0000401295B0001D05104012A5B0001D151A4
:1005000004012B5BBA512827BB512923BC512A2354
:10051000BD512B23320E056E000E066E000E076EC7
:10052000000E086E6100C0F001F06100C4F002F03E
:100530006100C8F003F06100CCF004F059EC9EF0CB
:10054000600004F00EF0600008F00FF060000CF0A6
:1005500010F0600010F011F0140E126E000E136E09
:10056000000E146E000E156ECEEC9FF0D8900E3675
:100570000F36000E0E24D96E040E0F20DA6E6100C5
:10058000EBF2DEFF6100EFF2DDFF6100C0F01BF077
:100590006100C4F01CF06100C8F01DF06100CCF0F7
:1005A0001EF081EC9AF06100C0F00EF06100C4F022
:1005B0000FF06100C8F010F06100CCF011F0E80E0F
:1005C000126E030E136E000E146E000E156ECEEC3E
:1005D0009FF0E70E0E1842E1030E0F1810101110D5
:1005E000D8A43CD0CCB204D00001CC6BCC2B02D030
:1005F0000001CC6BCC50CC19FE0BCC19CC6ECB408F
:10060000E8423F0B030B0401386F160E3E01F16FF9
:10061000F30EF817F88104D0050EE82EFED700F08F
:100620003E01F8B1F9D76F00C0FBCCF00001D890C3
:10063000CC33D890CC33CC51E66FE76BE86BE96BE9
:100640003E01F851F30B0409F86FCCB403D0010E4E
:100650000401376F04013751D8A4BC886100C0F091
:100660000EF06100C4F00FF06100C8F010F06100FE
:10067000CCF011F0100E126E270E136E000E146ED9
:10068000000E156ECEEC9FF00F0E0E184CE1270EEB
:100690000F1810101110D8A446D0010E0C6EFF0ECA
:1006A0000D6E030E0E6E20EC9FF0400E1AECA2F0C1
:1006B00004013751D8B407D0AB0E056EFF0E066E9D
:1006C000CDEC9DF057D03651D8B407D0BC0E056E96
:1006D000FF0E066ECDEC9DF04DD03B51D8B407D047
:1006E000670E056EFF0E066ECDEC9DF043D03951BE
:1006F000D8B407D0780E056EFF0E066ECDEC9DF0D7
:1007000039D00001E551D8B407D09A0E056EFF0E1E
:10071000066ECDEC9DF02ED0560E056EFF0E066EC9
:10072000CDEC9DF027D06100C0F00EF06100C4F068
:100730000FF06100C8F010F06100CCF011F0100E65
:10074000126E270E136E000E146E000E156ECEEC98
:100750009FF0870E0E180EE1130E0F1810101110D7
:10076000D8A408D0040E0C6EFF0E0D6E020E0E6E95
:1007700020EC9FF0010E04013027000E31233223BC
:100780003323335108E1A00E305D860E3159010E3E
:100790003259D8A0F0D11B0E3E01F16FF88104D080
:1007A000050EE82EFED700F03E01F8B1F9D7EF5163
:1007B0006F00C0FBCCF00001CD6B600030F3CDF0DA
:1007C000CC6BCC110401B86F0001CD510401B96F9D
:1007D0006100E0F201F06100E4F202F0036A046AF1
:1007E000000ED4EC98F0600004F051F0600008F0C6
:1007F00052F060000CF053F0600010F054F0000E66
:10080000556E000E566EFA0E576E440E586E5FEC23
:100810009BF0D8B01CD0000E0001EA6F000EEB6F09
:10082000C80EEC6F420EED6F8D0EBB6F040EBC6FE9
:10083000890EBD6FFF0EBE6F18ECA1F0000E040113
:10084000366F37B102D0BC9801D03AD082D1610066
:10085000E0F201F06100E4F202F0036A046A000EC3
:10086000D4EC98F0600004F051F0600008F052F011
:1008700060000CF053F0600010F054F0000E556E64
:10088000200E566E050E576E450E586E5FEC9BF0AF
:10089000D8B018D0000E0001EA6F000EEB6F000E0A
:1008A000EC6F000EED6F8D0EBB6F040EBC6FCD0EA6
:1008B000BD6FFF0EBE6F18ECA1F0010E0401366F84
:1008C000BC8847D104013651D8A405D1000E236E4F
:1008D000000E246E4C0E256E440E266E000E136E16
:1008E000400E146E080E156EC50E166E6100E0F215
:1008F00001F06100E4F202F0036A046A000ED4EC35
:1009000098F0600004F00FF0600008F010F0600054
:100910000CF011F0600010F012F0BCEC92F06000EE
:100920003CF01FF0600040F020F0600044F021F047
:10093000600048F022F060EC94F060007CF038F049
:10094000600080F039F0600084F03AF0600088F0D8
:100950003BF0000E3C6E000E3D6EC80E3E6E420E29
:100960003F6EFAEC90F06000E0F0EAF06000E4F036
:10097000EBF06000E8F0ECF06000ECF0EDF000016E
:10098000EDBF3BD0000E516E000E526EC80E536E7E
:10099000420E546E6000A8F355F06000ACF356F0C0
:1009A0006000B0F357F06000B4F358F05FEC9BF0D8
:1009B000D8A00DD06000A8F3AEF46000ACF3AFF4A3
:1009C0006000B0F3B0F46000B4F3B1F409D0000EED
:1009D0000401AE6F000EAF6FC80EB06F420EB16F64
:1009E0006100B8F2EAF06100BCF2EBF06100C0F225
:1009F000ECF06100C4F2EDF008D0000EEA6F000EDA
:100A0000EB6F000EEC6F000EED6FCDB418D08D0EB5
:100A10000001BB6F040EBC6F420EBD6FFF0EBE6FB8
:100A20006000A8F3BFF06000ACF3C0F06000B0F36A
:100A3000C1F06000B4F3C2F018ECA1F08AD0CDB2DE
:100A400018D08D0E0001BB6F040EBC6F1A0EBD6F67
:100A5000FF0EBE6F6000A8F3BFF06000ACF3C0F003
:100A60006000B0F3C1F06000B4F3C2F018ECA1F084
:100A700070D0CDB018D08D0E0001BB6F040EBC6FCE
:100A80002E0EBD6FFF0EBE6F6000A8F3BFF06000BA
:100A9000ACF3C0F06000B0F3C1F06000B4F3C2F09A
:100AA00018ECA1F056D08D0E0001BB6F040EBC6F88
:100AB000060EBD6FFF0EBE6F6000A8F3BFF06000B2
:100AC000ACF3C0F06000B0F3C1F06000B4F3C2F06A
:100AD00018ECA1F03ED0000E516E600E526E0B0E5F
:100AE000536E450E546E6100E0F201F06100E4F2D5
:100AF00002F0036A046A000ED4EC98F0600004F07F
:100B000055F0600008F056F060000CF057F06000FF
:100B100010F058F05FEC9BF0D8B008D0000E040144
:100B2000366F37B102D0BC9801D0BC88000E0001EE
:100B3000EA6F000EEB6F000EEC6F000EED6F8D0E86
:100B4000BB6F040EBC6FCD0EBD6FFF0EBE6F18ECF9
:100B5000A1F0000E1AECA2F08D0E056E040E066ECA
:100B6000CDEC9DF0000E0401306F000E316F000ED1
:100B7000326F000E336F22EC98F00400350EE82E31
:100B8000FED700F01200000E866F000E856F600029
:100B900084F197F0600088F198F060008CF199F092
:100BA000600090F19AF09AAF1ED0000E866F010E91
:100BB000856F60005CF201F0600060F202F060009E
:100BC00064F203F0600068F204F09BECA1F06000B6
:100BD00004F097F0600008F098F060000CF099F0D5
:100BE000600010F09AF0000E9E6F000E9D6F600086
:100BF00078F38AF060007CF38BF085518611D8A4DD
:100C000002D0E2A514D085518611D8A404D0000EDC
:100C1000706F2B0E03D0000E706F2D0E6F6F600083
:100C2000BCF13DF49D4B9E2B8A07D8A08B0760003A
:100C30005CF201F0600060F202F0600064F203F028
:100C4000600068F204F00BEC9AF001040210D8A4E2
:100C50004FD0BF0E0001666FFF0E676F6551686F62
:100C6000696B6651682767516923695106E11A0E5D
:100C7000685DD8B002D0010E01D0000E716F726BAA
:100C800071517211D8B40DD03D0E9D25016E040E28
:100C90009E21026EEB0E036EFF0E046E05ECA0F0BB
:100CA0000CD03D0E9D25016E040E9E21026EF30EAA
:100CB000036EFF0E046E05ECA0F00001FD0E8A2706
:100CC000FF0E8B23600080F10FF03D0E106E040EBE
:100CD000116E600028F212F060002CF213F0E0ECCC
:100CE0009CF060003CF060F0600040F061F01200A9
:100CF00060005CF201F0600060F202F0600064F2FB
:100D000003F0600068F204F00BEC9AF0015002105E
:100D1000D8A435D0BF0E0001666FFF0E676F655116
:100D2000686F696B6651682767516923695106E1ED
:100D30001A0E685DD8B002D0010E01D0000E736F9C
:100D4000746B73517411D8B40DD03D0E9D25016E96
:100D5000040E9E21026EEF0E036EFF0E046E05EC74
:100D6000A0F0ABD73D0E9D25016E040E9E21026EB4
:100D7000F70E036EFF0E046E05ECA0F09ED7000E7A
:100D800000019F6F000EA06F800EA16F3F0EA26F3B
:100D9000000E9C6F000E9B6F60005CF201F0600023
:100DA00060F202F0600064F203F0600068F204F0A8
:100DB000000E056E000E066E000E076E000E086E29
:100DC00014EC9EF0D8A026D09AD060007CF238F0C7
:100DD000600080F239F0600084F23AF0600088F23E
:100DE0003BF0000E3C6E000E3D6E200E3E6E410E3E
:100DF0003F6EFAEC90F06000E0F09FF06000E4F0ED
:100E0000A0F06000E8F0A1F06000ECF0A2F00001BA
:100E10009B4B9C2B60005CF251F0600060F252F042
:100E2000600064F253F0600068F254F0000E3C6E13
:100E3000000E3D6E200E3E6E410E3F6E60007CF255
:100E400038F0600080F239F0600084F23AF060001F
:100E500088F23BF0FAEC90F06000E0F055F06000B2
:100E6000E4F056F06000E8F057F06000ECF058F065
:100E70005FEC9BF0D8A027D0A8D760007CF21FF0D1
:100E8000600080F220F0600084F221F0600088F2BF
:100E900022F0000E236E000E246E200E256E410EF1
:100EA000266E60EC94F060007CF09FF0600080F0B3
:100EB000A0F0600084F0A1F0600088F0A2F00001D2
:100EC0009B07D8A09C0760005CF251F0600060F2C4
:100ED00052F0600064F253F0600068F254F0600079
:100EE0007CF255F0600080F256F0600084F257F01A
:100EF000600088F258F05FEC9BF0D8A0BED760008D
:100F000094F107F0086AC5ECA0F0075000018C6F5F
:100F1000600030F289F0670E8C19D8A41BD0E05124
:100F2000E111D8A404D0000EE16F010EE06FE1BF23
:100F300005D0E15108E1E005D8B005D0000E886F7A
:100F4000060E876F0AD0600080F387F0600084F39C
:100F500088F003D0E1AFF7D7F1D7670E8C19D8A48A
:100F600024D09CAF06D0FC0E9B5DFF0E9C59D8A0F0
:100F70001AD0FF0E666FFF0E676F60001CF268F0FC
:100F8000600020F269F066516827675169239B5120
:100F9000685D6951800A6A6F9C51800A6A59D8A0BD
:100FA00002D0660E01D0650E896F60001CF27FF0E2
:100FB000600020F280F0670E8C19D8A405D0660E70
:100FC0008919D8B49CAF02D07F4B802B660E89194B
:100FD000D8A416D09CAF0CD0000E9F6F000EA06F4F
:100FE000800EA16F3F0EA26F000E9C6F000E9B6FD4
:100FF000670E8C19D8B404D09B517F279C51802355
:10100000000E966F000E956F60005CF28DF0600030
:1010100060F28EF0600064F28FF0600068F290F091
:1010200060007CF26BF0600080F26CF0600084F293
:101030006DF0600088F26EF0ADD0600034F21FF009
:10104000600038F220F060003CF221F0600040F2D5
:1010500022F060007CF223F0600080F224F0600057
:1010600084F225F0600088F226F060EC94F06000D5
:101070007CF038F0600080F039F0600084F03AF0E5
:10108000600088F03BF0B6EC95F06000E0F091F085
:101090006000E4F092F06000E8F093F06000ECF0A3
:1010A00094F0600044F201F0600048F202F0600049
:1010B0004CF203F0600050F204F0C7EC9BF06000CB
:1010C00004F083F0600008F084F0600034F251F026
:1010D000600038F252F060003CF253F0600040F2E1
:1010E00054F060007CF23CF0600080F23DF0600063
:1010F00084F23EF0600088F23FF0600044F238F085
:10110000600048F239F060004CF23AF0600050F2B2
:101110003BF0FAEC90F06000E0F055F06000E4F095
:1011200056F06000E8F057F06000ECF058F039EC51
:10113000A0F0600044F18DF0600048F18EF0600096
:101140004CF18FF0600050F190F060007CF21FF0E5
:10115000600080F220F0600084F221F0600088F2EC
:1011600022F0000E236E000E246E200E256E410E1E
:10117000266E60EC94F060007CF09FF0600080F0E0
:10118000A0F0600084F0A1F0600088F0A2F00001FF
:10119000954B962B7F51955D9651800A666F8051D5
:1011A000800A6659D8A049D760007CF238F0600008
:1011B00080F239F0600084F23AF0600088F23BF08F
:1011C000000E3C6E000E3D6EA00E3E6E400E3F6E59
:1011D000FAEC90F06000E0F091F06000E4F092F042
:1011E0006000E8F093F06000ECF094F0600034F2FE
:1011F00051F0600038F252F060003CF253F06000B1
:1012000040F254F0600044F255F0600048F256F0AD
:1012100060004CF257F0600050F258F05FEC9BF029
:10122000D8B003D0000E000120D0600034F201F0ED
:10123000600038F202F060003CF203F0600040F21F
:1012400004F0600044F205F0600048F206F060002F
:101250004CF207F0600050F208F014EC9EF0D8A0B9
:101260000BD0000183B108D0000E916F000E926F79
:10127000000E936F000E946F60005CF20FF0600040
:1012800060F210F0600064F211F0600068F212F099
:10129000600044F213F0600048F214F060004CF279
:1012A00015F0600050F216F0BCEC92F060003CF0DB
:1012B0008DF0600040F08EF0600044F08FF0600030
:1012C00048F090F06000ACF19FF06000B0F1A0F049
:1012D0006000B4F1A1F06000B8F1A2F0650E000169
:1012E0008919D8B407D060006CF281F0600070F208
:1012F00082F004D0000E826F000E816F000E7E6FB0
:10130000000E7D6F000E7C6F000E7B6F000E966FDF
:10131000000E956FF8D0600034F21FF0600038F2D4
:1013200020F060003CF221F0600040F222F060000A
:101330007CF223F0600080F224F0600084F225F05B
:10134000600088F226F060EC94F060007CF038F0E9
:10135000600080F039F0600084F03AF0600088F0BE
:101360003BF0B6EC95F06000E0F091F06000E4F046
:1013700092F06000E8F093F06000ECF094F0600010
:1013800044F201F0600048F202F060004CF203F019
:10139000600050F204F0C7EC9BF0600004F083F0B2
:1013A000600008F084F00001E2B90CD08351841190
:1013B000D8A408D0670E8C19D8B482AF03D07B4B69
:1013C0007C2B39D07D517E11D8B482AF22D03D0E16
:1013D0009D25D96E040E9E21DA6E2E0EDF6E9D4B7A
:1013E0009E2B8A07D8A08B07000E7E6F010E7D6FA3
:1013F00010D03D0E9D25D96E040E9E21DA6E300E62
:10140000DF6E9D4B9E2B8A07D8A08B077B07D8A049
:101410007C077B517C11D8A4ECD73D0E9D25D96E5D
:10142000040E9E21DA6E8351300FDF6E9D4B9E2B92
:101430008A07D8A08B07600034F251F0600038F2C0
:1014400052F060003CF253F0600040F254F0600053
:101450007CF23CF0600080F23DF0600084F23EF0EF
:10146000600088F23FF0600044F238F0600048F21B
:1014700039F060004CF23AF0600050F23BF0FAECC8
:1014800090F06000E0F055F06000E4F056F060008D
:10149000E8F057F06000ECF058F039ECA0F0600094
:1014A00044F18DF0600048F18EF060004CF18FF057
:1014B000600050F190F060007CF21FF0600080F25C
:1014C00020F0600084F221F0600088F222F0000E2B
:1014D000236E000E246E200E256E410E266E60ECEB
:1014E00094F060007CF09FF0600080F0A0F060005D
:1014F00084F0A1F0600088F0A2F000018107D8A07C
:101500008207954B962B7F51955D9651800A666FA9
:101510008051800A6659D8B008D09EBFFCD69E5133
:1015200004E14B0E9D5DD8A0F6D67D517E11D8B456
:10153000E2A90AD03D0E9D25D96E040E9E21DA6ED9
:101540002E0EDF6E9D4B9E2B3D0E9D25D96E040EFB
:101550009E21DA6E000EDF6E650E8919D8A462EF47
:1015600086F0000E966F4F0E956F3D0E9525D96E45
:10157000040E9621DA6E000EDF6E000E866F000EEE
:10158000856F9CAF08D0000E866F010E856F9B6D36
:101590009C1FD8B09C2B000E886F020E876F30D036
:1015A0009507D8A096073D0E9525D96E040E962175
:1015B000DA6E60006CF201F0600070F202F0000E72
:1015C000046E0A0E036E5BEC9FF00150300FDF6E6D
:1015D00060006CF201F0600070F202F0000E046E28
:1015E0000A0E036E9EEC9EF0600004F09BF060001B
:1015F00008F09CF08707D8A088078A07D8A08B0737
:101600009B519C11D8A4CCD788BF05D08851C8E184
:101610008705D8B0C5D79507D8A0960785518611FC
:10162000D8A404D0000E766F2B0E03D0000E766F78
:101630002D0E756F3D0E9525D96E040E9621DA6E2E
:101640006000D7F1DFFF8A07D8A08B079507D8A0E5
:101650009607BF0E666FFF0E676F6551686F696B07
:101660006651682767516923695106E11A0E685D62
:10167000D8B002D0010E01D0000E796F7A6B79518B
:101680007A11D8A404D0000E786F650E03D0000E36
:10169000786F450E776F3D0E9525D96E040E962115
:1016A000DA6E6000DFF1DFFF8A07D8A08B073D0EFE
:1016B0009D25016E040E9E21026E3D0E9525036E42
:1016C000040E9621046E05ECA0F062EF86F063BF75
:1016D0002BD063BF07D06351621111E1100E615D21
:1016E000D8B00DD0600080F178F0600084F179F01E
:1016F000600088F17AF060008CF17BF008D0FF0E7A
:10170000786F0F0E796F000E7A6F000E7B6F60009E
:10171000E0F174F06000E4F175F06000E8F176F05B
:101720006000ECF177F008D0000E746F000E756F5A
:10173000000E766F000E776F6000D0F184F06000CD
:10174000D4F185F0600010F270F0600014F271F0D6
:10175000726B736BD8908531696F8431686FFF0E3F
:101760006A6F070E6B6F68516A5F69516B5B60004F
:10177000A8F186F06000ACF187F0886B896BD89097
:101780008531696F8431686FFF0E6A6F070E6B6F6A
:1017900068516A5F69516B5B6000A8F18AF0600074
:1017A000ACF18BF08C6B8D6B67BF09D06751661104
:1017B0001DE1A80E645D610E6559D8B017D06000B8
:1017C00090F10DF0600094F10EF0600098F10FF0D0
:1017D00060009CF110F0280E116E000E126E000ECB
:1017E000136E000E146EF5EC9AF039D067BF0AD074
:1017F00067511FE1F80E645D240E6559010E6659AC
:10180000D8B017D0645150080D6EC30E65550E6EDA
:10181000000E66550F6E000E6755106E280E116E85
:10182000000E126E000E136E000E146EF5EC9AF0A0
:1018300016D0600E64250D6E790E65210E6EFE0EBB
:1018400066210F6EFF0E6721106E280E116E000EBE
:10185000126E000E136E000E146EF5EC9AF060001E
:1018600034F09AF0600038F09BF060003CF09CF09F
:10187000600040F09DF000019A518625686F9B51F1
:101880008721696F9C5188216A6F9D5189216B6FF7
:101890008F0E68256C6FFD0E69216D6FFF0E6A213A
:1018A0006E6FFF0E6B216F6F6FBF4ED09A51862502
:1018B000686F9B518721696F9C5188216A6F9D5188
:1018C00089216B6F8F0E68256C6FFD0E69216D6F1E
:1018D000FF0E6A216E6FFF0E6B216F6F6FBF07D017
:1018E0006F516E111CE1100E6D5DD8B018D09A5179
:1018F0008625686F9B518721696F9C5188216A6F8B
:101900009D5189216B6F8F0E68257C6FFD0E6921BB
:101910007D6FFF0E6A217E6FFF0E6B2107D0FF0ED9
:101920007C6F0F0E7D6F000E7E6F000E7F6F60006C
:10193000F0F186F06000F4F187F06000F8F188F0D3
:101940006000FCF189F008D0000E866F000E876FF2
:10195000000E886F000E896F9A518A5D686F9B51E7
:101960008B59696F9C518C596A6F9D518D596B6F62
:101970008F0E68256C6FFD0E69216D6FFF0E6A2159
:101980006E6FFF0E6B216F6F6FBF4ED09A518A5DE5
:10199000686F9B518B59696F9C518C596A6F9D512F
:1019A0008D596B6F8F0E68256C6FFD0E69216D6F01
:1019B000FF0E6A216E6FFF0E6B216F6F6FBF07D036
:1019C0006F516E111CE1100E6D5DD8B018D09A5198
:1019D0008A5D686F9B518B59696F9C518C596A6FF6
:1019E0009D518D596B6F8F0E6825806FFD0E69219B
:1019F000816FFF0E6A21826FFF0E6B2107D0FF0EF1
:101A0000806F0F0E816F000E826F000E836F60007B
:101A100000F28AF0600004F28BF0600008F28CF0B3
:101A200060000CF28DF008D0000E8A6F000E8B6FF4
:101A3000000E8C6F000E8D6FE551D8B4FED06000A3
:101A4000C0F101F06000C4F102F06000C8F103F0E1
:101A50006000CCF104F0600098F305F060009CF3A6
:101A600006F06000A0F307F06000A4F308F068EC53
:101A7000A0F0600004F00DF0600008F00EF06000CF
:101A80000CF00FF0600010F010F02C0E116E010E33
:101A9000126E000E136E000E146EF5EC9AF06000DC
:101AA00034F096F0600038F097F060003CF098F069
:101AB000600040F099F0000199AF04D0000E966FDD
:101AC000000E0CD099BF0FD09951981104E1100E5F
:101AD000975DD8A008D0FF0E966F0F0E976F000E7F
:101AE000986F000E996F600018F201F060001CF210
:101AF00002F0600020F203F0600024F204F06000C5
:101B000098F305F060009CF306F06000A0F307F086
:101B10006000A4F308F068ECA0F0600004F00DF0A1
:101B2000600008F00EF060000CF00FF0600010F0A4
:101B300010F02C0E116E010E126E000E136E000EC0
:101B4000146EF5EC9AF0600034F08EF0600038F01E
:101B50008FF060003CF090F0600040F091F00001E8
:101B600091AF09D0000E8E6F000E8F6F000E906F38
:101B7000000E916F11D091BF0FD09151901104E1DF
:101B8000100E8F5DD8A008D0FF0E966F0F0E976FC6
:101B9000000E986F000E996F600028F201F060004F
:101BA0002CF202F0600030F203F0600034F204F036
:101BB000600098F305F060009CF306F06000A0F36D
:101BC00007F06000A4F308F068ECA0F0600004F0F7
:101BD0000DF0600008F00EF060000CF00FF06000F7
:101BE00010F010F02C0E116E010E126E000E136E1E
:101BF000000E146EF5EC9AF0600034F092F0600084
:101C000038F093F060003CF094F0600040F095F004
:101C1000000195BF22D095BF28D09551941104E1C1
:101C2000100E935DD8A021D0FF0E966F0F0E976F08
:101C3000000E986F000E996F18D0000E966F000E70
:101C4000976F000E986F000E996F000E8E6F000E4A
:101C50008F6F000E906F000E916F000E926F000E4E
:101C6000936F000E946F000E956F6000A8F351F013
:101C70006000ACF352F06000B0F353F06000B4F3D6
:101C800054F0000E556E000E566EA00E576E400EAC
:101C9000586E5FEC9BF0D8B03AD0600090F101F044
:101CA000600094F102F0600098F103F060009CF194
:101CB00004F0100E056E270E066E000E076E000E65
:101CC000086E86EC9CF004BE09D0045003101FE19E
:101CD000E80E015C030E0258D8B019D0FF0E0001C7
:101CE000966F0F0E976F000E986F000E996F000E93
:101CF0008E6F000E8F6F000E906F000E916F000EB2
:101D0000926F000E936F000E946F000E956F60003F
:101D10005FF275FF60005BF274FF60003FF279FFD5
:101D200060003BF278FF60004FF271FF60004BF201
:101D300070FF12005E50D96EDA6A6F007BFFF6FF0B
:101D40006F0077FFF7FF000EF86E0800F550250AC8
:101D5000D8A435D25E50D96EDA6ADE2A000EDD22B2
:101D6000000EDF6F000EDE6FDEC0E2F0DFC0E3F0DA
:101D7000E069E1695E50D96EDA6A6F007BFFF6FFB9
:101D80006F0077FFF7FF000EF86E0800F5502A0A83
:101D9000D8A41CD05E50D96EDA6ADE2A000EDD228D
:101DA0005F50D96EDA6A020EDF26DF5CD96EDA6A1E
:101DB0006F0078FFDEF06F0078FFDFF0DFAF45D017
:101DC000E281DE6DDF1FD8B0DF2B3FD05E50D96ED1
:101DD000DA6A6F0078FF08F06F0074FF09F0ABEC6F
:101DE00096F0600020F0DEF0600024F0DFF006D016
:101DF0005E50D96EDA6ADE2A000EDD22D00E0001B6
:101E0000A36FFF0EA46F5E50D96EDA6A6F007BFF7E
:101E1000F6FF6F0077FFF7FF000EF86E0800F55031
:101E2000A56FA66BA351A527A451A623A65106E131
:101E30000A0EA55DD8B002D0010E01D0000EA76F2A
:101E4000A86BA751A811D8A4D3D75E50D96EDA6A6F
:101E50006F007BFFF6FF6F0077FFF7FF000EF86E55
:101E60000800F5502E0AD8A46ED0000EE16F000EC7
:101E7000E06F5E50D96EDA6ADE2A000EDD225E5017
:101E8000D96EDA6A6F007BFFF6FF6F0077FFF7FF0E
:101E9000000EF86E0800F5502A0AD8A415D05E503E
:101EA000D96EDA6ADE2A000EDD225F50D96EDA6A58
:101EB000020EDF26DF5CD96EDA6A6F0078FFE0F091
:101EC0006F0078FFE1F03FD05E50D96EDA6A6F00A4
:101ED00078FF08F06F0074FF09F0ABEC96F060003B
:101EE00020F0E0F0600024F0E1F006D05E50D96E02
:101EF000DA6ADE2A000EDD22D00E0001A36FFF0E8B
:101F0000A46F5E50D96EDA6A6F007BFFF6FF6F0038
:101F100077FFF7FF000EF86E0800F550A56FA66B6F
:101F2000A351A527A451A623A65106E10A0EA55D3B
:101F3000D8B002D0010E01D0000EA96FAA6BA95132
:101F4000AA11D8A4D3D75E50D96EDA6A6F007BFF8E
:101F5000F6FF6F0077FFF7FF000EF86E0800F550F0
:101F6000076E086AC5ECA0F007500001AD6FAD51D7
:101F7000D8B43FD05E50D96EDA6A6F0078FFA3F014
:101F80006F0074FFA4F0010EA327000EA4236000CD
:101F90008FF2F6FF600093F2F7FF000EF86E080074
:101FA000F550076E086AC5ECA0F007500001AE6F4F
:101FB000AE51D8B41ED05E50D96EDA6A6F0078FF89
:101FC000A3F06F0074FFA4F0020EA327000EA42359
:101FD00060008FF2F6FF600093F2F7FF000EF86EDC
:101FE0000800F550076E086AC5ECA0F00750000124
:101FF000AF6F660EAD19D8A447D05E50D96EDA6ABD
:102000006F007BFFF6FF6F0077FFF7FF000EF86EA3
:1020100008006F00D4FFB4F05E50D96EDA6ADE2A91
:10202000000EDD225F50D96EDA6A6F007CFFA3F0EC
:10203000040EDF26A351D96EDA6A6F0078FFB0F084
:102040006F0078FFB1F06F0078FFB2F06F0078FF9B
:10205000B3F0600074F160F06000C0F261F0600005
:10206000C4F262F06000C8F263F06000CCF264F089
:102070006000D0F265F0C3EC85F0600080F15DF0A7
:10208000600084F15EF01200AD0E016EFB0E026E78
:10209000FF0E036E000E056E020E046E2CEC9CF01B
:1020A00001500210D8A45CD05E50D96EDA6A6F007D
:1020B00078FFA3F06F0074FFA4F0010EA327000EB9
:1020C000A42360008FF2F6FF600093F2F7FF000E8A
:1020D000F86E08006F00D4FFB4F0BF0EA36FFF0EC0
:1020E000A46F5E50D96EDA6A6F007BFFF6FF6F0057
:1020F00077FFF7FF000EF86E0800F550A56FA66B8E
:10210000A351A527A451A623A65106E11A0EA55D49
:10211000D8B002D0010E01D0000EAB6FAC6BAB514A
:10212000AC115F50D96EDA6A6F007CFFA3F0040E29
:10213000DF26A351D96EDA6A6F0078FFB0F06F0026
:1021400078FFB1F06F0078FFB2F06F0078FFB3F066
:102150005E50D96EDA6A020EDE26000EDD2279D7D5
:102160005E50D96EDA6A6F007BFFF6FF6F0077FF73
:10217000F7FF000EF86E0800F550250AD8A414D019
:102180005E50D96EDA6ADE2A000EDD22000E026E83
:10219000250E016E600074F103F080EC9DF0000EDE
:1021A0005E6E010E5D6E12005E50D96EDA6ADE2A36
:1021B000000EDD22000E5E6E000E5D6E12005E509F
:1021C000D96EDA6A6F007BFFF6FF6F0077FFF7FFCB
:1021D000000EF86E0800F550016E026A600074F19E
:1021E00003F080EC9DF05E50D96EDA6ADE2A000EB4
:1021F000DD22D5D73B50800B446E3B503B244A6ECA
:102200003ABE4A804A50D8B40DD04A28D8A408D043
:10221000000E386E000E396E000E3A6E000E3B6EE8
:102220003A8E08D0000E386E000E396E000E3A6EEF
:10223000000E3B6E3F50800B441A3F503F24456ECA
:102240003EBE45804550D8B40DD04528D8A408D00E
:10225000000E3C6E000E3D6E000E3E6E000E3F6E98
:102260003E8E08D0000E3C6E000E3D6E000E3E6E9F
:10227000000E3F6E4550D8B403D04A50D8A409D0C0
:10228000000E386E000E396E000E3A6E000E3B6E78
:1022900012003E5038026F00CCFF4FF06F00D0FFAD
:1022A00050F04F50466E476A486A496A50504B6E2C
:1022B0004C6A4D6A4E6A3D5039026F00CCFF4FF0B8
:1022C0006F00D0FF50F04F504626000E47224822A4
:1022D000492250504B26000E4C224D224E223C509B
:1022E0003A026F00CCFF4FF06F00D0FF50F04F501C
:1022F0004626000E47224822492250504B26000E07
:102300004C224D224E22600020F149F060001CF169
:1023100048F0600018F147F0466A3C5039026F00FF
:10232000CCFF4FF06F00D0FF50F04F50462650507A
:102330004722000E4822000E49223D5038026F000D
:10234000CCFF4FF06F00D0FF50F04F50462650505A
:102350004722000E4822000E4922600020F149F079
:1023600060001CF148F0600018F147F0466A3C50EC
:1023700038026F00CCFF4FF06F00D0FF50F04F508D
:10238000462650504722000E4822000E49223E5059
:1023900039026F00CCFF4FF06F00D0FF50F04F506C
:1023A0004B2650504C22000E4D22000E4E223D5026
:1023B0003A026F00CCFF4FF06F00D0FF50F04F504B
:1023C0004B2650504C22000E4D22000E4E223E5005
:1023D0003A026F00CCFF4FF06F00D0FF50F04F502B
:1023E000406E5050416E426A436A600008F143F00B
:1023F000600004F142F0600000F141F0406A40509A
:102400004B2641504C2242504D2243504E224950BF
:102410004B26000E4C224D224E22600020F149F046
:1024200060001CF148F0600018F147F0466A455022
:10243000600028F140F0416A4026000E4122820EE1
:1024400040244F6EFF0E4120506E0FD0D8904B3677
:102450004C364D364E3649BE4B80D89046364736C0
:10246000483649364F06D8A050064DAEEFD7000E7D
:10247000456E49AE17D0FF0E4614406EFF0E47144E
:10248000416EFF0E4814426E7F0E4914436E405059
:10249000411042104310D8B403D0010E456E02D053
:1024A0004BB0FBD74550D8B427D0010E4B26000EB9
:1024B0004C224D224E224EA01FD060002CF140F045
:1024C000600030F141F0600034F142F0600038F11A
:1024D00043F043344332423241324032600000F133
:1024E0004BF0600004F14CF0600008F14DF060002A
:1024F0000CF14EF04F4A502A50BE0DD0505003E11F
:102500004F28D8A008D0000E4B6E000E4C6E800EE7
:102510004D6E7F0E21D050BE05D050500EE14F04BD
:10252000D8B00BD0000E4B6E000E4C6E000E4D6EF0
:10253000000E4E6E000E446E10D060003CF14AF06A
:10254000FF0E4B16FF0E4C167F0E4D16000E4E164C
:102550004AB04D8ED8904A304E6E44504E126000B4
:102560002CF138F0600030F139F0600034F13AF0CD
:10257000600038F13BF012001250800B1B6E1250BD
:1025800012241D6E11BE1D801D50D8B40DD01D2803
:10259000D8A408D0000E0F6E000E106E000E116E43
:1025A000000E126E118E06D0000E0F6E000E106E11
:1025B000000E116E000E126E1650800B1C6E1B501A
:1025C0001C18D8A41B8C165016241C6E15BE1C801B
:1025D0001C50D8B40DD01C28D8A408D0000E136EFF
:1025E000000E146E000E156E000E166E158E06D0BF
:1025F000000E136E000E146E000E156E000E166E99
:102600001D501C5CD8B031D01BAC02D0800E1B1A00
:10261000600074F01EF0600070F01DF0600078F053
:102620001CF060003CF01EF060004CF00FF0600009
:1026300078F013F0600040F01EF0600050F010F0F1
:10264000600078F014F0600044F01EF0600054F078
:1026500011F0600078F015F0600048F01EF06000A6
:1026600058F012F0600078F016F0000E1E6E1D504B
:10267000600070F017F0186A175E000E185A18BE46
:102680002DD0185004E11A0E175CD8A027D00F5097
:10269000101011101210D8B402D0010E01D0000E8B
:1026A0001E6E000E0F6E000E106E000E116E000EEC
:1026B000126E600070F01DF015D01EA005D0D890ED
:1026C0001E3001091E6E02D0D8901E320FB01E8E31
:1026D00012341232113210320F321D2A1C501D5C7E
:1026E000D8A0EBD71BBC28D01D50D8A409D0000E11
:1026F0000F6E000E106E000E116E000E126E1200A4
:1027000013500F2614501022155011221650122269
:1027100012A071D01EA005D0D8901E3001091E6EE7
:1027200002D0D8901E320FB01E8E123412321132E7
:1027300010320F321D2A5FD013500F5C1450105806
:10274000155011581250800A176E1650800A1758EB
:10275000D8B025D00F50135C176E10501458186E57
:1027600011501558196E125016581A6EFF0E172474
:102770000F6EFF0E1820106EFF0E1920116EFF0E47
:102780001A20126E800E1B1A1E6C1E50D8A40FD079
:10279000010E0F26000E10221122122208D0135013
:1027A0000F5E1450105A1550115A1650125A0F50ED
:1027B000101011101210D8A41CD01E50D8A419D07B
:1027C000000E0F6E000E106E000E116E000E126ED7
:1027D0001200D8900F361036113612361EBE0F80FA
:1027E0001EA002D0D88001D0D8901E361D50D8A48B
:1027F0001D0611AEEED7000E1C6E1EAE0CD0600092
:1028000078F017F07F0E1716D8B403D0010E1C6EA7
:1028100002D00FB0FBD71C50D8B428D0010E0F2621
:10282000000E10221122122212A020D060003CF0D3
:1028300017F0600040F018F0600044F019F06000FC
:1028400048F01AF01A341A3219321832173260006E
:102850005CF00FF0600060F010F0600064F011F0C8
:10286000600068F012F01D28D8A41D2A1D28D8B4D5
:1028700003D01D50D8A40DD0000E0F6E000E106EA8
:10288000000E116E000E126E1D50D8A402D0000E64
:102890001B6E1DA002D0118E01D0119ED8901D304C
:1028A000126E1BBE128E60003CF00FF0600040F014
:1028B00010F0600044F011F0600048F012F01200D7
:1028C0002250800B2F6E22502224366E21BE36807D
:1028D0003650D8B40DD03628D8A408D0000E1F6EBC
:1028E000000E206E000E216E000E226E218E06D08C
:1028F000000E1F6E000E206E000E216E000E226E66
:102900002650800B2F1A26502624376E25BE37807E
:102910003750D8B40DD03728D8A408D0000E236E75
:10292000000E246E000E256E000E266E258E06D03B
:10293000000E236E000E246E000E256E000E266E15
:102940002350241025102610D8A41BD0000E1F6E73
:10295000000E206E000E216E000E226E800E2112DF
:102960007F0E22122F50221260007CF01FF06000B8
:1029700080F020F0600084F021F0600088F022F008
:1029800012003650D8A409D0000E1F6E000E206E23
:10299000000E216E000E226E120037506000D8F03B
:1029A00027F0286A275E000E285A7F0E2724306EF3
:1029B000000E2820316E60007CF02BF0600080F06B
:1029C0002CF0600084F02DF0600088F02EF0000EF6
:1029D0001F6E000E206E000E216E000E226E000E85
:1029E000326E000E336E000E346E000E356E000E29
:1029F000376E28D03750D8B411D0D8902B362C361B
:102A00002D362E36D8901F3620362136223635BE4A
:102A10001F80D890323633363436353623502B5C0F
:102A200024502C5825502D5826502E58D8A009D067
:102A3000358C23502B5E24502C5A25502D5A26506D
:102A40002E5A372A190E3764D5D72B502C102D103B
:102A50002E10D8B411D032800FD0D8901F36203627
:102A60002136223635BE1F80D89032363336343682
:102A700035363006D8A0310621AEEFD7000E376EBE
:102A800035AE17D0FF0E3214276EFF0E3314286EAA
:102A9000FF0E3414296E7F0E35142A6E275028102D
:102AA00029102A10D8B403D0010E376E02D01FB0FF
:102AB000FBD73750D8B427D0010E1F26000E202296
:102AC0002122222222A01FD060007CF027F060008B
:102AD00080F028F0600084F029F0600088F02AF08F
:102AE0002A342A3229322832273260009CF01FF023
:102AF0006000A0F020F06000A4F021F06000A8F0D9
:102B000022F0304A312A31BE10D0315003E1302852
:102B1000D8A00BD0000E316E3068000E1F6E000E74
:102B2000206E000E216E000E226E31BE05D0315097
:102B300011E13004D8B00ED0000E316E000E306EB0
:102B4000000E1F6E000E206E000E216E000E226E13
:102B5000000E2F6E6000C0F036F036A002D0218E3D
:102B600001D0219ED8903630226EFCD6600050F302
:102B700048F0600054F349F0600058F34AF06000F8
:102B80005CF34BF06000E0F048F06000E4F049F0E6
:102B90006000E8F04AF06000ECF04BF0810E3C6E13
:102BA000FF0E3D6E600020F13EF0600024F13FF02A
:102BB000600028F140F060002CF141F0180E05D0C3
:102BC000D890413240323F323E32E82EF9D73E5063
:102BD0003C24466E000E3D20476E47BE13D0475042
:102BE00004E1170E465CD8A00DD06000E0F038F08C
:102BF0006000E4F039F06000E8F03AF06000ECF0DA
:102C00003BF0120047BE64D0600018F13CF0FF0EAC
:102C10003D6EFF0E3E6E7F0E3F6E000E406E3C66B8
:102C200001D007D0403440323F323E323D323C2E5C
:102C3000F6D76000F4F042F06000F8F043F0600076
:102C4000FCF044F0600000F145F0425048143C6E46
:102C5000435049143D6E44504A143E6E45504B1447
:102C60003F6E3C503D103E103F10D8B4BED76000C0
:102C700020F13CF0600024F13DF0600028F13EF0CE
:102C800060002CF13FF0200E05D0D8903F323E324C
:102C90003D323C32E82EF9D73C50D8B408D04250EF
:102CA00048264350492244504A2245504B22421C58
:102CB0003C6E431C3D6E441C3E6E451C3F6E3C50BA
:102CC00048163D5049163E504A163F504B1636D0D6
:102CD000600020F13CF0600024F13DF0600028F13C
:102CE0003EF060002CF13FF0200E05D0D8903F322E
:102CF0003E323D323C32E82EF9D73C6608D0000E19
:102D0000486E000E496E000E4A6E000E16D0D89026
:102D100048343C6E49343D6E4A343E6E4B343F6E0F
:102D20003C503D103E103F10D8B408D0000E486E05
:102D3000000E496E800E4A6EBF0E4B6E600020F191
:102D400038F0600024F139F0600028F13AF06000BA
:102D50002CF13BF01200000E166E000E156E000EE8
:102D60000F6E000E0E6E02D0084A092A010E146E74
:102D7000600023F0F6FF600027F0F7FF000EF86E0A
:102D80000800F550200AD8B41CD0F70E0A6EFF0ECA
:102D90000B6E600023F0F6FF600027F0F7FF000ED7
:102DA000F86E0800F5500C6E0D6A0A500C260B5098
:102DB0000D220D5004E1050E0C5CD8A002D0000ECF
:102DC000146E600050F010F0116A10501110D8B459
:102DD00008D0CAD7000E0F6E010E0E6E084A092ADF
:102DE00038D0600023F0F6FF600027F0F7FF000EF8
:102DF000F86E0800F5500A6E0B6A0B50000AD8A452
:102E000028D00A502B0AD8B4E9D7060AD8B4E2D79A
:102E100020D0600054F001F0600058F002F0000E85
:102E2000046E0A0E036E03ECA2F0600023F0F6FFBE
:102E3000600027F0F7FF000EF86E0800F550015E05
:102E4000000E025A300E0124156E000E0220166E7E
:102E5000C5D7D00E0A6EFF0E0B6E600023F0F6FF92
:102E6000600027F0F7FF000EF86E0800F5500C6EBA
:102E70000D6A0A500C260B500D220D5006E10A0E69
:102E80000C5CD8B002D0010E01D0000E126E136A95
:102E900012501310D8A4BDD70E500F10D8A411D0C3
:102EA000600054F00AF0600058F00BF00A1E0B1E90
:102EB0000A4A0B2A600028F008F060002CF009F0A4
:102EC0001200600054F008F0600058F009F01200A1
:102ED000000EC26E000ECA6E000E3A01406F000E68
:102EE000416F44694369000E426FCE0EC36E100EEF
:102EF000CB6E000E506FC00E516F54695369000EB7
:102F0000526F6E0EC46E000ECC6E600E606F0E0EB1
:102F1000616F64696369000E626F0F0EC56E000E0B
:102F2000CD6E080E706F070E716F74697369000EB5
:102F3000726FF80EC66E040ECE6EF00E806F080E25
:102F4000816F84698369000E826F7F0E3901C06FC3
:102F5000FB0EC16F470EC26F510EC36FE00EC46F00
:102F6000270EC56F3F0EC66F000EC76F840E3E0161
:102F7000F86F000EF96F000EFA6F000EFB6F1F0E58
:102F8000FF6F000EFD6F0A0E3A01176F0B0E1C6FDC
:102F90000C0E1D6F0E0E1E6F100E1F6F550E3F0193
:102FA0005E6F8F0E7A6E8F0E766E8F0E726E800E43
:102FB0006A6E800E626EAB68010EAE6E900EAC6EE5
:102FC000000E786E000E796E000E746E000E756E37
:102FD000000E706E000E716E000E696E000E686E4F
:102FE00061686068BB98050E0001D36F0F0ED26F49
:102FF000F10EE82EFED7D22FFCD7D32FFAD7BB88FD
:10300000050E0001D36F0F0ED26FF10EE82EFED722
:10301000D22FFCD7D32FFAD7000E056E000E066E06
:10302000000E076E010E086E010EE2EC9EF0DE0E41
:10303000056EFF0E066ECDEC9DF032EC9DF000ECBF
:1030400080F0FDD73901A5B525ECA2F00001E451CF
:103050003B01EC19D8B412000001E4513B01EC5DD6
:10306000196E000E226E000E216E000E1B6E000EF9
:103070001C6E000E1A6E000E1E6E8ED01C501E5C52
:103080001F6E0001E4511E24206E000E2024D96E14
:10309000DA6A010EDA22DF50236E22501F5CFD0F28
:1030A0001D6E22501F18D8A411D02350D8A405D0CB
:1030B0002250D8A402D0010E07D0AA0E2318D8B4EB
:1030C0006AD020281C6E000E226E65D01F50156E2F
:1030D000166A2250176E186A010E1726000E182263
:1030E0001550171807E116501818D8A403D023500C
:1030F0001B2651D01F50156E166A2250176E186A83
:10310000020E1726000E18221550171813E116503C
:103110001818D8A40FD060008CF021F023501B2683
:103120002150D8A438D020281C6E000E226E000E2C
:103130001B6E31D021501D5CD8B012D0000E156E20
:10314000030E166E1A501526000E16221D50152459
:10315000D96E000E1620DA6E60008FF0DFFFC7D741
:1031600021501D18D8A417D023501B261B50D8A4BB
:103170000BD0000E1A24116E126A030E1222600088
:1031800084F013F086EC99F020281C6E000E226E5D
:1031900021501A26CCD71E2A19501E5CD8A06ED7F3
:1031A000600070F0E4F01200096E0950D8A404AE7B
:1031B00022D0600004F005F0600008F006F0600026
:1031C0000CF007F0600010F008F0051E061E071E48
:1031D000081E052A000E062207220822600014F0AD
:1031E0000BF0600018F00CF060001CF00DF06000B7
:1031F00020F00EF00CD0600004F00BF0600008F03E
:103200000CF060000CF00DF0600010F00EF00150BA
:10321000021003100410D8A409D0000E016E000E95
:10322000026E000E036E000E046E1200960E0A6E01
:1032300006D00A2AD8900E320D320C320B32000E14
:103240000B14056E000E0C14066E000E0D14076EA6
:10325000FE0E0E14086E0550061007100810D8B4A4
:103260000DD0E7D70A2A010E0B26000E0C220D22E4
:103270000E22D8900E320D320C320B32000E0B148F
:10328000056E000E0C14066E000E0D14076EFF0E78
:103290000E14086E0550061007100810D8B407D099
:1032A000E1D70A06D8900B360C360D360E360DBE19
:1032B00003D0020E0A60F5D70AA00D9ED8900A32FC
:1032C000600028F005F0066A076A086A600014F0DA
:1032D00008F0076A066A056A05500B1206500C12C0
:1032E00007500D1208500E120950D8A404AE01D098
:1032F0000E8E60002CF001F0600030F002F06000F3
:1033000034F003F0600038F004F01200600047F081
:10331000D9FF60004BF0DAFF170EDE18D8A419D0E1
:1033200020EE02F01150D9261250DA22040EDE18D7
:10333000D8A40FD0040E1318D8A40BD020EE03F09D
:103340001150D9261250DA22DF500F0B04013C6FC6
:1033500051D0600047F0D9FF60004BF0DAFF1E0E3D
:10336000DE18D8A43AD0080E1318D8A436D020EE10
:1033700001F01150D9261250DA22DF50D8B402D011
:10338000010E01D0000EE56F20EE02F01150D9269B
:103390001250DA22DF50D8B402D0010E01D0000E54
:1033A0000401396F20EE01F01150D9261250DA22B3
:1033B000DE04D8A402D0010E01D0000E3B6F20EE37
:1033C00006F01150D9261250DA22DF50D8B402D0BC
:1033D000010E01D0000E3A6F0DD0600047F0D9FF0A
:1033E00060004BF0DAFFDF50D8A41200030E131870
:1033F000D8A41200600047F0D9FF60004BF0DAFF5C
:10340000DF500001EF6FEE0E0C6E0D6A020E0E6EB5
:1034100020EC9FF01200600060F30BF0600064F39A
:103420000CF0600068F30DF060006CF30EF06000CB
:1034300004F00BF0600008F00CF060000CF00DF0F0
:10344000600010F00EF060002CF005F0600030F02D
:1034500006F0600034F007F0600038F008F0180E55
:1034600005D0D8900832073206320532E82EF9D757
:103470000550096E0A6A09500A10D8A419D0D890CC
:103480000B34056E0C34066E0D34076E0E34086E68
:103490000550061007100810D8A405D0000E026EC3
:1034A000020E016E1200000E026E030E016E12007B
:1034B00009280A10D8A420D060002CF005F0600084
:1034C00030F006F0600034F007F0600038F008F0EB
:1034D000090ED8900536063607360836E82EF9D795
:1034E0000550061007100810D8A402D0010E01D014
:1034F000000E016E026A1200000E026E040E016ED2
:1035000012000001E551D8A407D0000E696E000E2C
:10351000686E61686068120004013B51D8B460D0E5
:1035200069686868FF0E1B141F6E0F0E1C14206E56
:10353000000E1D14216E000E1E14226E22BE07D036
:10354000225021101BE1080E205CD8B017D0FF0ECE
:103550001B140D6E070E1C140E6E000E1D140F6E44
:10356000000E1E14106E080E116E000E126E000E6C
:10357000136E000E146EF5EC9AF022D0FF0E1B14A1
:103580001F6E070E1C14206E000E1D14216E000EFF
:103590001E14226E1F5000080D6E080E20540E6E71
:1035A000000E21540F6E000E2254106E080E116E84
:1035B000000E126E000E136E000E146EF5EC9AF0F3
:1035C000600034F023F0600038F024F060003CF03C
:1035D00025F0600040F026F060008FF061FF9AD780
:1035E00069686868616860681200000E166E14AE43
:1035F0000AD0141E131E121E116C000E122213226A
:103600001422010E166E10AE0AD0101E0F1E0E1ED2
:103610000D6C000E0E220F221022010E161A000E43
:10362000176E000E186E000E196E000E1A6E1150F5
:10363000121013101410D8B42AD0010E156E06D033
:10364000D8901136123613361436152A14AEF8D720
:10365000D8901736183619361A3611500D5C12509C
:103660000E5813500F5814501058D8A009D01150AC
:103670000D5E12500E5A13500F5A1450105A1780E4
:10368000D8901432133212321132152EE1D716505F
:10369000D8B408D01A1E191E181E176C000E182256
:1036A00019221A2260005CF00DF0600060F00EF04C
:1036B000600064F00FF0600068F010F01200000E7F
:1036C0005114596E000E52145A6E800E53145B6ED4
:1036D0007F0E54145C6E59505A105B105C10D8A4C5
:1036E00008D0000E516E000E526E000E536E000E8A
:1036F000546E000E5514596E000E56145A6E800EFC
:1037000057145B6E7F0E58145C6E59505A105B1044
:103710005C10D8A408D0000E556E000E566E000E38
:10372000576E000E586E54AE09D0516C521ED8B070
:10373000522A531ED8B0532A800E545658AE09D080
:10374000556C561ED8B0562A571ED8B0572A800E30
:103750005856000E511A000E521A000E531A800EBF
:10376000541A000E551A000E561A000E571A800EE3
:10377000581A5550515C565052585750535858503B
:103780005458D8B002D0D8901200D8801200033418
:1037900004340A6E0A50D8A409D0000E016E000E3F
:1037A000026E000E036E000E046E1200600004F044
:1037B00005F0600008F006F060000CF007F0600013
:1037C00010F008F0200E05D0D890083207320632EB
:1037D0000532E82EF9D70550096E038EFF0E01164B
:1037E000FF0E0216FF0E0316000E0416960E0A5E5A
:1037F0000AAE0DD00A50800A970FD8A0CED7D89025
:1038000004320332023201320A3EF9D70DD01F0EC4
:103810000A6407D0C2D7D890013602360336043680
:103820000A060A50D8A4F7D70950D8B408D0041E05
:10383000031E021E016C000E0222032204226000FD
:1038400004F001F0600008F002F060000CF003F0FA
:10385000600010F004F01200600004F009F0600055
:1038600008F007F060000CF008F00406D8A0050688
:1038700004280EE10528D8A40BD0000E026E000E1D
:10388000016E1200092A074A082A0406D8A0050674
:103890000950D96EDA6ADF50D8B423D060001FF027
:1038A000F6FF600023F0F7FF000EF86E0800F550F9
:1038B0000009D8B416D004500510D8B412D009505D
:1038C000D96EDA6ADF50066E60001FF0F6FF600006
:1038D00023F0F7FF000EF86E0800F5500618D8B474
:1038E000D1D70950D96EDA6ADF50066E60001FF03A
:1038F000F6FF600023F0F7FF000EF86E0800F550A9
:10390000065C016E026AD8A002061200000E0A6E62
:1039100004AE0AD0041E031E021E016C000E022219
:1039200003220422010E0A6E08AE08D0081E071EEC
:10393000061E056C000E06220722082205500610FE
:1039400007100810D8B424D0010E096E06D0D89004
:103950000536063607360836092A08AEF8D7055068
:10396000015C065002580750035808500458D8A06C
:1039700008D00550015E0650025A0750035A0850FD
:10398000045AD8900832073206320532092EE7D79A
:103990000A50D8B408D0041E031E021E016C000E8B
:1039A000022203220422600004F001F0600008F00B
:1039B00002F060000CF003F0600010F004F0120060
:1039C0000001E2A10BD0600040F009F0600044F07B
:1039D0000AF060003CF00BF07FECA1F013BE07D0C2
:1039E000600048F017F060004CF018F004D0000EB2
:1039F000186E000E176E000E166E000E156E0BD0B0
:103A0000000E026E200E016E60003CF003F080ECB0
:103A10009DF0154A162A1750155C1650800A146E30
:103A20001850800A1458D8A0EBD70001E2B10BD08F
:103A3000600040F009F0600044F00AF060003CF0E3
:103A40000BF07FECA1F0600040F001F0600044F06A
:103A500002F0EAECA1F0175001240F6E185002207A
:103A6000106E1200400E3B01FD6F000EF86F010E4C
:103A7000F76F000EFB6F3D0EFA6FE80EF96F010E47
:103A8000EF6F000EEE6F010EF16F000EF06F1B0E68
:103A9000FF6F1D0EFE6FC40EFC6F030EDD6F000E78
:103AA000D86F010ED76F000EDB6F020EDA6F000EBB
:103AB000D96F000ECF6F010ECE6F3D0ED16FEA0EA3
:103AC000D06F1C0EDF6F1D0EDE6F040EDC6F550E07
:103AD0003901EF6FAA0EEF6FEF81000E3D01F66F17
:103AE000220EF56F090E3A01E56F300E3D01F26FBF
:103AF000800EF36F080EF46F130E3A01086F120078
:103B00000350D8B403D00350D8A404D0015034ECEF
:103B1000A2F012000350D96EDA6A040ED926DE50E4
:103B2000DE10D8B414D00350D96EDA6A040ED92648
:103B30000350E16EE26A020EE126DE50E65CE650DA
:103B4000800A086EDE50800A0858D8B01200035070
:103B5000D96EDA6A020ED9266F0078FF04F06F0082
:103B600074FF05F00350D96EDA6A6F0078FF06F033
:103B70006F0074FF07F004500624D96E055007202B
:103B8000DA6E600007F0DFFF0350D96EDA6A020ECA
:103B9000D926DE2A000EDD221200000E096E22D088
:103BA00009500524076E000E0620086E60001FF005
:103BB000F6FF600023F0F7FF000EF86E1F0EF764AB
:103BC00003D00800F55007D06F00DBFFE1FF6F0066
:103BD000DFFFE2FFE750016E000E026E010EEFEC18
:103BE000A0F0092A09500524076E000E0620086E71
:103BF00060001FF0F6FF600023F0F7FF000EF86E84
:103C00001F0EF76403D00800F55007D06F00DBFFEC
:103C1000E1FF6F00DFFFE2FFE7500009D8B41200B8
:103C20000928D8B41200BCD7000E0114096E000E8A
:103C300002140A6E800E03140B6E7F0E04140C6EB9
:103C400009500A100B100C10D8A408D0000E016EF9
:103C5000000E026E000E036E000E046E000E0514C0
:103C6000096E000E06140A6E800E07140B6E7F0E8E
:103C700008140C6E09500A100B100C10D8A408D0B0
:103C8000000E056E000E066E000E076E000E086E2A
:103C9000055001180AE10650021807E10750031801
:103CA00004E108500418D8B402D0D8901200D8808B
:103CB0001200000E096E000E0A6E000E0B6E000E52
:103CC0000C6E0550061007100810D8B42AD0010E4B
:103CD0000D6E06D0D89005360636073608360D2A02
:103CE00008AEF8D7D89009360A360B360C36055090
:103CF000015C065002580750035808500458D8A0D9
:103D000009D00550015E0650025A0750035A085068
:103D1000045A0980D89008320732063205320D2E37
:103D2000E1D7600024F001F0600028F002F06000AC
:103D30002CF003F0600030F004F01200000E066E6C
:103D400004AE06D0036C041ED8B0042A010E066E21
:103D500002AE06D0016C021ED8B0022A010E061A6D
:103D6000000E086E000E076E03500410D8B41CD06D
:103D7000010E056E04D0D89003360436052A04AE31
:103D8000FAD7D890073608360350015C0450025821
:103D9000D8A005D00350015E0450025A0780D89085
:103DA00004320332052EEDD70650D8B404D0076C88
:103DB000081ED8B0082A60001CF001F0600020F056
:103DC00002F012000A6E330E016E000E026E000E3B
:103DD000EFECA0F0330E016E000E026E000EEFEC61
:103DE000A0F0330E016E000E026E000EEFECA0F09C
:103DF0003B0E016E000E026E000EEFECA0F00A50BA
:103E00000A2405100409016E000E026E000EEFEC8C
:103E1000A0F0D8900634096E0844E846FC0B09105F
:103E200007100809016E000E026E000EEFECA0F004
:103E3000010E016E010E026E000EEFECA0F01200FA
:103E40003B01DCBDFDD73901A5B525ECA2F03B0156
:103E5000DC9FAA0E0201006F000E016F600038F0B7
:103E600002F2030E016E020E026E600030F003F0EB
:103E7000600034F004F0600038F005F0066A95EC5C
:103E80009FF00E500F6E106A030E0F26000E1022C8
:103E9000600040F00FF0106A0F503B01D86F0E50D9
:103EA000030FD76F000E3D01EB6F3901A5953B0164
:103EB000DC8FDC8D1200000E066E02AE06D0016CA7
:103EC000021ED8B0022A010E066E04AE04D0036CA6
:103ED000041ED8B0042A03500410D8B418D0010E20
:103EE000056E04D0D89003360436052A04AEFAD7FE
:103EF0000350015C04500258D8A004D00350015E66
:103F00000450025AD89004320332052EF1D70650DD
:103F1000D8B404D0016C021ED8B0022A600004F0AC
:103F200001F0600008F002F0120060000CF009F0EF
:103F3000600010F00AF0600004F007F0600008F084
:103F400008F023D0600027F0F6FF60002BF0F7FFA9
:103F5000000EF86E1F0EF76403D00800F55007D06E
:103F60006F00DBFFE1FF6F00DFFFE2FFE7500B6E4A
:103F7000094A0A2A60001FF0D9FF600023F0DAFF27
:103F800060002FF0DFFF074A082A0506D8A00606C2
:103F90000528D8E10628D8B41200D4D7125013103F
:103FA00014101510D8B424D0010E166E06D0D89077
:103FB0001236133614361536162A15AEF8D71250A7
:103FC0000E5C13500F581450105815501158D8A0AB
:103FD00008D012500E5E13500F5A1450105A15503C
:103FE000115AD8901532143213321232162EE7D7E6
:103FF000600038F00EF060003CF00FF0600040F020
:1040000010F0600044F011F0120060000CF007F0B6
:10401000600010F008F0600004F009F0600008F0A3
:104020000AF00750056E0850066E074A082A60001D
:1040300017F0F6FF60001BF0F7FF000EF86E60004F
:1040400027F0D9FF60002BF0DAFF094A0A2A1F0E79
:10405000F76403D00800F55007D06F00DBFFE1FFE5
:104060006F00DFFFE2FFE750DF6EDF50D8B41200D1
:10407000D8D7000E551A000E561A000E571A800E89
:10408000581A600044F10FF0600048F110F0600031
:104090004CF111F0600050F112F0600054F113F097
:1040A000600058F114F060005CF115F0600060F100
:1040B00016F0BCEC92F060003CF051F0600040F073
:1040C00052F0600044F053F0600048F054F01200E9
:1040D000000E096E000E0A6E000E0B6E000E0C6EC6
:1040E00001A008D00550092606500A2207500B22CD
:1040F00008500C22D8900536063607360836D89078
:104100000432033202320132015002100310041053
:10411000D8A4E6D7600024F001F0600028F002F097
:1041200060002CF003F0600030F004F0120060003A
:10413000D8F2B9F06000DCF2BAF0000EDD6F000ECC
:10414000DC6F0FD06000D4F25DF0B90E5E6E6000DF
:10415000E0F25FF09AEC8EF05D500001DC275E50DB
:10416000DD236000E7F2F6FF6000EBF2F7FF000EE0
:10417000F86E0800F5500009D8A4E4D7600070F389
:10418000B5F0600074F3B6F01200BF0E096EFF0EBA
:104190000A6E60001CF00BF0600020F00CF009507B
:1041A0000B260A500C220C5006E11A0E0B5CD8B0FC
:1041B00002D0010E01D0000E0D6E0E6A0D500E10D1
:1041C000D8B406D0200E0710076E0850086E1200F3
:1041D00060001CF007F0600020F008F01200046E90
:1041E000BE84BE9204B002D0BE9001D0BE80350E17
:1041F000E82EFED700F0600007F0CAFF350EE82E6B
:10420000FED700F0BE94350EE82EFED700F0BE8437
:104210000250D8B408D02A0E036E8E0EE82EFED7B8
:10422000032EFCD71200A00E00D0E82EFDD71200FE
:10423000BF0EC56F6000ECF2C6F06000F0F2C7F090
:10424000000EC96F000EC86F000ECB6F000ECA6F54
:10425000C60EB56F6000F4F2B6F06000F8F2B7F089
:10426000C50EB86F97ECA0F0C851BB25D96EC951E7
:10427000BC21DA6E000EDF6E1200010E076E200EFA
:1042800001180210D8B416D0F70E036EFF0E046E9C
:10429000600004F005F0600008F006F00350052609
:1042A00004500622065004E1050E055CD8A002D099
:1042B000000E076E60001CF001F0026A12005E0E34
:1042C000F66E440EF76E010EF86E00EEE6F010EE9C
:1042D0000AF009006F00D7FFEEFFE550E150F9E169
:1042E00001EE00F08D0EEE6AE806FDE100EED4F07E
:1042F000120EEE6AE806FDE1000168EF97F0000E8D
:104300000E6E000E0D6E0BD0600030F001F0026AF0
:1043100060002CF003F080EC9DF00D4A0E2A0D5049
:104320000924D96E0E500A20DA6EDF500C6E0C5044
:10433000D8B41200E9D70150021003100410D8B409
:1043400008D0000E011A000E021A000E031A800E89
:10435000041A600004F001F0600008F002F0600050
:104360000CF003F0600010F004F01200BF0E036EBA
:10437000FF0E046E600004F005F0600008F006F027
:104380000350052604500622065006E11A0E055C6D
:10439000D8B002D0010E01D0000E016E026A1200E8
:1043A000D00E036EFF0E046E600004F005F0600096
:1043B00008F006F00350052604500622065006E1D8
:1043C0000A0E055CD8B002D0010E01D0000E016EBD
:1043D000026A1200600004F003F0600008F004F0CC
:1043E00002D0014A022A600007F0D9FF60000BF0FA
:1043F000DAFFDF50D8A4F5D70350015C016E0450FA
:104400000258026E1200015003026F00CCFF05F04B
:104410006F00D0FF06F001500402F3500626025050
:104420000302F3500626600014F001F0600018F05B
:1044300002F01200056E05507F0B8009016E000E20
:10444000026E000EEFECA0F01200A3A9FED73D0112
:10445000EB51560F0008EA6F3901A5951200400094
:0A44600000000000C8421400120022
:04FFFC005FEFA1F022
:020000040020DA
:10000000FF0FFF0FFF0FFF0FFF0FFF0FFF0FFF0F80
:020000040030CA
:0A0000008CFDEFF79FFFFFFFFFFFED
:00000001FF
