:020000040000FA
:04000000FEEFFFF020
:020000040001F9
:10FF72000001BCEFFFF0000EC26E000ECA6E000E52
:10FF82003A01406F000E416F44694369000E426FAF
:10FF9200CC0EC36E100ECB6E000E506FC00E516FA2
:10FFA20054695369000E526F6E0EC46E000ECC6E11
:10FFB200600E606F0E0E616F64696369000E626F9E
:10FFC2000F0EC56E000ECD6E080E706F070E716FAC
:10FFD20074697369000E726FF80EC66E040ECE6EEF
:10FFE200F00E806F080E816F84698369000E826F44
:0EFFF2000400F9EFFFF0FEEFFFF0B9EFFFF0B3
:020000040020DA
:10000000FF0FFF0FFF0FFF0FFF0FFF0FFF0FFF0F80
:020000040030CA
:0A0000008CFDEFF7FFFFFFFFFFFF8D
:00000001FF
